:100000000C9471010C94A2010C94A2010C94A20115
:100010000C94A2010C94A2010C94A2010C94A201D4
:100020000C94A2010C94380B0C94380B0C94380BE4
:100030000C94A2010C94B00C0C94A2010C94A2019B
:100040000C94A2010C94090F0C94A2010C94A2012F
:100050000C94A2010C94A2010C94A2010C94660CC5
:100060000C94A2010C941F0E0C94F50D0C94A2019B
:100070000C94A2010C94A2010C94A2010C94A20174
:100080000C94A2010C94A2010C94A2010C94A20164
:100090000C94A2010C94A2010C94A2010C94420BAA
:1000A0000C94A2010C94A2010C94A2010C94A20144
:1000B0000C94A2010C94A2010C94A2010C94490E80
:1000C0000C94A2010C94A2010C94A2010C94CB0DEF
:1000D0000C94A10D0C94A2010C94770D0C944D0D71
:1000E0000C94A2010C9414070C94A4020C947B02AF
:1000F0000C94B2020C94B6020C940C070C94FA0601
:100100000C9428070C9432070C94E6060C949E027B
:100110000C94CD010C947F020C94E1060C94240203
:100120000C9473070C9409060C9404070C943C0877
:100130000C9483020C945F070C94B10F0C94F90497
:100140000C94CE010C9424170C94BC050C946205FD
:100150000C94B1020C9486020C9470050C94410727
:100160000C9496020C94F0010C9490020C941E07CF
:100170000C9471020C94D0060C9455070C944E0507
:100180000C94F0060C9469070C94DD010C94A80201
:100190000C9423080C94AC020C9477020C943F0549
:1001A0000C94F7010C94CC010C948C020C94CB01B0
:1001B0000C949A020C944B070C9424080200002122
:1001C00000240027002A002D003000330001010028
:1001D00000040107010A0100002200250028002B6D
:1001E000002E003100340002010000050108010B5F
:1001F00001000020002300260029002C002F0032DF
:1002000000000100000301060109010505050507BD
:100210000508080808020202020A0A080804040481
:1002200004010101010101010103030303030303AD
:1002300003040707070C0C0C0C0C0C0C0C0202023C
:100240000206060606060606060B0B0B0B0B0B0B2F
:100250000B010210202008081020401020408002CE
:1002600001020108040201010204081020408080FC
:100270004020100804020180040201804020100880
:100280000402010804020101020408102040800158
:100290000204081020408000000A0B02090C0D0E19
:1002A0000807030401000000000000000000000037
:1002B000000000000000000000000000000000003E
:1002C00000000012111000000000000000000000FB
:1002D0000000000000000000000000000000B10F5E
:1002E000241711241FBECFEFD1E2DEBFCDBF00E047
:1002F0000CBF13E0A0E0B2E0ECE4F8E300E00BBFD9
:1003000002C007900D92AA33B107D9F728E0AAE3FB
:10031000B3E001C01D92A032B207E1F711E0C0E7DF
:10032000D1E000E006C021970109802FFE010E9464
:100330007F18CF36D10780E00807A9F70E949911EE
:100340000C94141C0C9400002091B403260F332746
:10035000331F21323105ECF420910104FC0190E0BF
:1003600080E0243069F082E00895A091B4032191E7
:10037000AC014E565C4FA40FB52FB11D2C930196C6
:10038000861798F38091B403680F6093B40380E0FC
:10039000089581E00895089508950895E0919003E7
:1003A00080918F03E81730F4F0E0E159FC4F808131
:1003B00090E008958FEF9FEF0895909190038091C2
:1003C0008F032FEF3FEF981748F4E92FF0E0E15942
:1003D000FC4F208130E09F5F90939003C901089506
:1003E00080918F0390919003891B990B0895CF9270
:1003F000DF92EF92FF920F931F93CF93DF937C01D5
:10040000CB018A0120910704222389F0EB016B01C3
:10041000C40ED51ECC15DD0569F06991D701ED91AB
:10042000FC910190F081E02DC7011995F3CF642F65
:100430000E94A401C801DF91CF911F910F91FF90FD
:10044000EF90DF90CF900895CF93DF931F92CDB7B9
:10045000DEB76983209107042223F9F020912A0452
:10046000203258F021E030E0FC013383228390E019
:1004700080E00F90DF91CF91089580910804E82FDC
:10048000F0E0E75FFB4F998190838F5F80930804D2
:1004900080932A0481E090E0ECCF61E0CE010196E8
:1004A0000E94A401F7CF8150823108F05AC0E82F92
:1004B000F0E08827E15AFD4F8F4F0C947F187F02A0
:1004C0008302710277027B02B10286028C029002E3
:1004D00096029A029E02A402A802B102AC02B202E3
:1004E000B602809180008F7780938000089580917C
:1004F00080008F7DF9CF80918000877FF5CF84B514
:100500008F7784BD089584B58F7DFBCF8091B00037
:100510008F778093B00008958091B0008F7DF9CFE0
:10052000809190008F778093900008958091900043
:100530008F7DF9CF80919000877FF5CF8091A000CB
:100540008F778093A00008958091A0008F7DF9CFD0
:100550008091A000877FF5CF809120018F778093D5
:1005600020010895809120018F7DF9CF8091200195
:10057000877FF5CFCF93DF93282F30E0F901E9563D
:10058000FD4F8491F901EF5AFD4FD491F901E55FD8
:10059000FD4FC491CC23A1F081110E945302EC2F96
:1005A000F0E0EE0FFF1FEF50FE4FA591B491EC91DC
:1005B000ED2381E090E009F480E0DF91CF91089590
:1005C00080E090E0FACF1F93CF93DF93282F30E0A5
:1005D000F901E956FD4F8491F901EF5AFD4FD4918D
:1005E000F901E55FFD4FC491CC23A9F0162F8111CD
:1005F0000E945302EC2FF0E0EE0FFF1FE952FE4F76
:10060000A591B4918FB7F894EC91111108C0D095D1
:10061000DE23DC938FBFDF91CF911F910895DE2BF6
:10062000F8CF1092010481E0809300041092DB0364
:1006300061E084E10E94E30261E085E10E94E3025F
:10064000E9EBF0E080818E7F808380818D7F8083E5
:1006500088E48093B80085E48093BC000895CF932C
:10066000DF9391E0909391038823B9F0C091B80093
:10067000D091BA008091BC008A7B8093BC0060E07E
:1006800084E10E94E30260E085E10E94E3020E94AF
:100690001103D093BA00C093B800DF91CF910895B1
:1006A000CF93DF9390E0FC01EF5AFD4F2491855FDB
:1006B0009D4FFC0184918823D1F090E0880F991F11
:1006C000FC01E354FE4FA591B491FC01E952FE4FA9
:1006D000C591D49161110EC09FB7F8948C91E22F0F
:1006E000E0958E238C932881E223E8839FBFDF91DE
:1006F000CF9108958FB7F894EC91E22BEC938FBFD4
:10070000F6CF3FB7F89480916B0390916C03A09162
:100710006D03B0916E0326B5A89B05C02F3F19F05D
:100720000196A11DB11D3FBFBA2FA92F982F882771
:10073000BC01CD01620F711D811D911D42E0660F4C
:10074000771F881F991F4A95D1F70895CF92DF929E
:10075000EF92FF920F931F93CF93DF93D0912A04D0
:1007600081E0D13208F09CC0C09129040E9481032D
:100770006B017C018091010481116CC082E0809347
:10078000010481E0809300048FEF8093FF031092B7
:10079000FE03D093FD03A9E0B4E0EDEDF3E080E0CB
:1007A000D8138DC01092DC038091DC03CC0FC82BD2
:1007B000C093DC038091DB03813009F084C0109288
:1007C000DB030E9481036B017C018091DC03809339
:1007D000BB008091030490910404A0910504B091A2
:1007E0000604892B8A2B8B2BA1F00E948103009198
:1007F00003041091040420910504309106046C193F
:100800007D098E099F09061717072807390708F47D
:1008100042C08091BC0083FDD8CF85EC8093BC00A2
:100820000E9481036B017C0180910104823009F4F4
:100830004CC08091FF038F3F09F469C08091FF0392
:10084000803209F466C08091FF03803309F463C0ED
:1008500084E026C08091030490910404A0910504D3
:10086000B0910604892B8A2B8B2B09F483CF0E942D
:100870008103009103041091040420910504309138
:1008800006046C197D098E099F09061717072807AA
:10089000390708F06FCF809102040E942F0385E092
:1008A0001092080410922A0410920704DF91CF914D
:1008B0001F910F91FF90EF90DF90CF9008959D9141
:1008C00091938F5F6DCF85EEA9CF809103049091B6
:1008D0000404A0910504B0910604892B8A2B8B2B6C
:1008E00009F4A2CF0E948103009103041091040433
:1008F00020910504309106046C197D098E099F0929
:10090000061717072807390708F08ECFC4CF80E0F5
:10091000C7CF82E0C5CF83E0C3CF0F931F93CF93A0
:10092000DF93162F072FC5EED7E0AA85BB859C85E0
:1009300021E0209307049093290410920804109258
:100940002A04ED91FC9111970190F081E02D682F20
:10095000CD0119958A859B85DC01ED91FC91019073
:10096000F081E02D602F19958A859B85DC01ED9142
:10097000FC910190F081E02D612F1995DF91CF91CD
:100980001F910F910C94A6038F929F92AF92BF92EA
:10099000CF92DF92EF92FF920E9481034B015C01A4
:1009A00084E6C82ED12CE12CF12C0E948103681919
:1009B00079098A099B09683E734081059105A8F36E
:1009C00021E0C21AD108E108F10888EE880E83E020
:1009D000981EA11CB11CC114D104E104F10429F733
:1009E000FF90EF90DF90CF90BF90AF909F908F904F
:1009F0000895AF92BF92CF92DF92EF92FF920F9342
:100A00001F93CF93DF936C017B018B01040F151FA4
:100A1000EB015E01AE18BF08C017D10759F069910C
:100A2000D601ED91FC910190F081E02DC601199560
:100A3000892B79F7C501DF91CF911F910F91FF901D
:100A4000EF90DF90CF90BF90AF900895FC01A08908
:100A5000B1898C91A689B78982FD0FC09C91818D47
:100A60008F5F8F73228D821749F0A18DAE0FBF2F3C
:100A7000B11D5D969C93818F08958C910895FC0122
:100A8000538D448D252F30E0842F90E0821B930BF3
:100A9000541710F0CF96089501970895FC01918D99
:100AA000828D981761F0A28DAE0FBF2FB11D5D969C
:100AB0008C91928D9F5F9F73928F90E008958FEF3E
:100AC0009FEF0895FC01918D828D981731F0828DF2
:100AD000E80FF11D858D90E008958FEF9FEF089549
:100AE000FC01918D228D892F90E0805C9F4F821BAD
:100AF00091098F739927089587E394E00E94700508
:100B000021E0892B09F420E0822F089584ED94E000
:100B10000E94700521E0892B09F420E0822F0895BE
:100B200081E795E00E94700521E0892B09F420E01F
:100B3000822F0895FC01A48DA80FB92FB11DA35ACF
:100B4000BF4F2C91848D90E001968F739927848FED
:100B5000A689B7892C93A089B1898C918370806410
:100B60008C93938D848D981306C00288F389E02DB1
:100B700080818F7D80830895EF92FF920F931F9362
:100B8000CF93DF93EC0181E0888F9B8D8C8D981340
:100B90001AC0E889F989808185FF15C09FB7F8944C
:100BA000EE89FF896083E889F98980818370806498
:100BB00080839FBF81E090E0DF91CF911F910F91E3
:100BC000FF90EF900895F62E0B8D10E00F5F1F4FF2
:100BD0000F731127E02E8C8D8E110CC00FB607FC01
:100BE000FACFE889F989808185FFF5CFCE010E948F
:100BF0009A05F1CFEB8DEC0FFD2FF11DE35AFF4F5E
:100C0000F0829FB7F8940B8FEA89FB89808180621C
:100C1000CFCFCF93DF93EC01888D8823B9F0AA89D9
:100C2000BB89E889F9898C9185FD03C0808186FDA7
:100C30000DC00FB607FCF7CF8C9185FFF2CF8081F6
:100C400085FFEDCFCE010E949A05E9CFDF91CF91CC
:100C50000895F0E0E0E0199480E090E0892B29F01D
:100C60000E94900581110E94000080E090E0892B95
:100C700049F080E090E0892B29F00E94000081116A
:100C80000E9400000E94860581110E94290680E0D2
:100C900090E0892B29F00E947C0581110C940000C2
:100CA00008958F929F92AF92BF92CF92DF92EF9270
:100CB000FF920F931F93CF93DF93EC016A017B01A7
:100CC00020E030E04FE753E4CB01B6010E949317D8
:100CD0004B015C0120E030E0A9010E94F4191816D4
:100CE0008CF5C501B4010E9466198B01B98020E022
:100CF00030E0A901C701B6010E94F41960E018169E
:100D00000CF061E08B2D0E94E3020F3F110509F00A
:100D1000ECF41127C88161E08C2F0E94500301156B
:100D20001105B9F460E08C2FDF91CF911F910F91E5
:100D3000FF90EF90DF90CF90BF90AF909F908F90FB
:100D40000C94E302C501B4019058CDCF0FEF10E031
:100D5000E1CF0F3F110511F461E0E5CFEC2FF0E09A
:100D6000E956FD4FE491E150E23108F0BCC0F0E0FB
:100D70008827E254F94F8F4F0C947F18D006E10674
:100D8000E606F006FA06730704070C0714071E07A9
:100D90002807320741074B07730755075F076907A5
:100DA00084B5806884BD07BDDF91CF911F910F91FD
:100DB000FF90EF90DF90CF90BF90AF909F908F907B
:100DC000089584B5806284BD08BDEECF8091800017
:100DD0008068809380001093890000938800E4CF9E
:100DE0008091800080628093800010938B0000933C
:100DF0008A00DACF80918000886080938000109311
:100E00008D0000938C00D0CF8091B00080688093DB
:100E1000B0000093B300C8CF8091B000806280938F
:100E2000B0000093B400C0CF8091900080688093A0
:100E300090001093990000939800B6CF8091900095
:100E400080628093900010939B0000939A00ACCF37
:100E50008091900088608093900010939D00009393
:100E60009C00A2CF8091A00080688093A000809118
:100E7000A0008F7B8093A0001093A9000093A8008E
:100E800093CF8091A00080628093A0001093AB006C
:100E90000093AA0089CF8091A00088608093A00071
:100EA0001093AD000093AC007FCF8091200180684B
:100EB00080932001109329010093280175CF809120
:100EC000200180628093200110932B0100932A015E
:100ED0006BCF8091200188608093200110932D01B9
:100EE00000932C0161CF003811050CF035CF1ACFDB
:100EF0008EBD00000DB407FEFDCF8EB50895CF93D3
:100F0000DF93EC0160E088810E94E30288E90E949F
:100F1000780780E00E94780780E00E94780780E0F0
:100F20000E94780780E00E94780761E088810E9433
:100F3000E3028BE891E00197F1F760E088810E947D
:100F4000E30280EE0E94780761E08881DF91CF9113
:100F50000C94E302AF92BF92CF92DF92EF92FF9296
:100F60000F931F93CF93DF93CDB7DEB760970FB684
:100F7000F894DEBF0FBECDBF6C0160E0FC01808144
:100F80000E94E30280E60E9478079E012F5F3F4F98
:100F900079015E0131E1A30EB11C870180E00E945E
:100FA000780790E0B0E0A0E0F80181939193A193DD
:100FB000B1938F01EA15FB0589F761E0F6018081A5
:100FC0000E94E30280E090E0DC01F7014191519141
:100FD000619171917F01BA2FA92F982F8827840FD3
:100FE000951FA61FB71FE017F10779F79C01AD0108
:100FF00066277727CB01621B730B840B950B6096DA
:101000000FB6F894DEBF0FBECDBFDF91CF911F9119
:101010000F91FF90EF90DF90CF90BF90AF90089529
:10102000FC01248131E030930704209329041092BD
:10103000080410922A048485682B8BE294E00E94B5
:1010400024020C94A603089590E080E008950F9385
:101050001F93CF938C01C62F64600E9410086C2FE1
:101060006B7FC8010E94100883EC90E00197F1F7B4
:10107000CF911F910F9108950F931F93CF93DF93FB
:101080008C01C62FD62FD07FD1606D2F0E94100803
:101090006D2FC8010E94270880E1C89FE00111243C
:1010A000C1606C2FC8010E9410086C2FC8010E94FB
:1010B000270881E090E0DF91CF911F910F91089573
:1010C00082E098E00E94AA079B01AC01882799273B
:1010D000DC01821B930BA40BB50B80935E039093F2
:1010E0005F03A0936003B093610384E098E00E94E3
:1010F000AA0760935A0370935B0380935C039093F9
:101100005D03089582E098E00E947F0784E098E004
:101110000E947F070C94600840E050E0BA018EEF17
:1011200097E00E94510640E050E060E070E880E007
:1011300098E00C9451064F925F926F927F928F923B
:101140009F92AF92BF92CF92DF92EF92FF92CF9396
:10115000DF9300D000D0CDB7DEB78E836D836901F9
:101160007A018091990290919A02019709F0E1C069
:1011700040905E0350905F03609060037090610345
:10118000D301C20177FE07C088279927DC018419A3
:101190009509A609B709C0905A03D0905B03E09067
:1011A0005C03F0905D03F7FE08C0F094E094D094E7
:1011B000C094C11CD11CE11CF11CBC01CD016C19F7
:1011C0007D098E099F090E9434172AE037ED43E21A
:1011D0005BE30E94931769837A838B839C83E091FE
:1011E0006203F0916303EE0FFF1FEE0FFF1FE35B3F
:1011F000FD4F80809180A280B380C301B2010E9424
:1012000034176B017C0120E030E04AE755E4C5016A
:10121000B4010E94F41918160CF07CC020ED42169F
:1012200027E05206610471040CF05BC026EA3BE93A
:1012300044EC59E3C701B6010E9493172AE939E942
:1012400049E15EE30E9488186B017C012E81622FC8
:10125000220F770B880B990B0E943417A701960178
:101260000E949317AB01BC018EEF97E00E945106DC
:101270002D81622F220F770B880B990B0E94341758
:101280004B015C01A70196010E9493176B017C0141
:1012900029813A814B815C81C501B4010E94931779
:1012A0009B01AC01C701B6010E948818AB01BC01CB
:1012B000705880E098E026960FB6F894DEBF0FBE17
:1012C000CDBFDF91CF91FF90EF90DF90CF90BF9097
:1012D000AF909F908F907F906F905F904F900C9405
:1012E000510620E030E04AEF54E4C501B4010E9409
:1012F0008718A70196010E942D1787FF1FC0A7011D
:101300009601C501B4010E94871826EA3BE944EC26
:1013100059E392CF20E030E040E05FE3C501B40143
:101320000E949317A70196010E94F41918163CF722
:101330007DCF19821A821B821C8288CF86E6C82E36
:10134000DC2CEC2C8FE3F82E81CFFC0101900020E7
:10135000E9F73197AF01481B590BBC0181E795E0D4
:101360000C94F9048F929F92AF92BF920F931F93A8
:10137000CF93DF93CDB7DEB7A1970FB6F894DEBF5A
:101380000FBECDBF19A2423008F44AE08E010F5DB6
:101390001F4F842E912CB12CA12CA50194010E94E9
:1013A0005118E62FB901CA01EA30F4F4E05DD80122
:1013B000EE938D01232B242B252B79F790E080E0F1
:1013C000109719F0CD010E94A509A1960FB6F894C7
:1013D000DEBF0FBECDBFDF91CF911F910F91BF90A8
:1013E000AF909F908F900895E95CE1CFCF92DF920C
:1013F000EF92FF92CF93DF936B017C01F7FE1FC04A
:101400006DE281E795E00E94BC05EC016627772735
:10141000CB016C197D098E099F094AE00E94B2092F
:10142000C80FD91F89ED92E00E94A5098C0F9D1F5E
:10143000DF91CF91FF90EF90DF90CF9008954AE039
:101440000E94B209EC01EECF4F925F926F927F92B1
:101450008F929F92AF92BF92CF92DF92EF92FF92C4
:101460000F931F93CF936B017C01742EAC019B01F2
:101470000E94F919882399F08CED92E0CF911F9189
:101480000F91FF90EF90DF90CF90BF90AF909F9023
:101490008F907F906F905F904F900C94A5094601BC
:1014A0005701E894B7F82FEF3FEF4FE75FE7C5012B
:1014B000B4010E94F91981110DC02FEF3FEF4FE7E2
:1014C0005FE7C501B4010E942D1718161CF480EEC9
:1014D00092E0D4CF2FEF3FEF4FE75FE4C701B601B3
:1014E0000E94F41918161CF484EE92E0C7CF2FEF77
:1014F0003FEF4FE75FECC701B6010E942D1787FD54
:10150000F3CF20E030E0A901C701B6010E942D17FA
:1015100010E000E087FF0AC06DE281E795E00E94DD
:10152000BC058C01F7FAF094F7F8F094C0E060E0A5
:1015300070E080E09FE37C1641F020E030E040E284
:1015400051E40E94F418CF5FF6CFA70196010E94E4
:1015500088182B013C010E946D194B015C014AE087
:101560000E94B2097C01E00EF11ECC23C1F1C5013D
:10157000B4010E9432179B01AC01C301B2010E9469
:1015800087184B015C016EE281E795E00E94BC0583
:10159000E80EF91EC15018F120E030E040E251E4BD
:1015A000C501B4010E9493172B013C010E946D19E3
:1015B0004B01B12CA12C4AE0C501B4010E94B20933
:1015C000E80EF91EC501B4010E9432179B01AC015F
:1015D000C301B2010E9487184B015C01DBCFC70138
:1015E000CF911F910F91FF90EF90DF90CF90BF9020
:1015F000AF909F908F907F906F905F904F900895E5
:1016000085ED8093BC008091030490910404A09127
:101610000504B09106040796A11DB11D23E0B695FF
:10162000A795979587952A95D1F72091BC0024FD21
:1016300003C01092010408954091030450910404E2
:101640006091050470910604452B462B472B69F3E6
:101650000097A105B10541F025E32A95F1F70000B7
:101660000197A109B109E1CF809102040C942F03E5
:101670001F920F920FB60F9211240F900FBE0F9072
:101680001F9018951F920F920FB60F9211240BB650
:101690000F922F933F934F935F936F937F938F930B
:1016A0009F93AF93BF93EF93FF938091B900887F8F
:1016B000803609F44DC008F040C0883209F4A9C052
:1016C00028F5803109F49DC0C8F4882309F4FBC0D3
:1016D000883009F496C0FF91EF91BF91AF919F912F
:1016E0008F917F916F915F914F913F912F910F90CB
:1016F0000BBE0F900FBE0F901F901895883109F404
:1017000088C0803241F78093FF0314C0803409F40D
:101710009DC040F48033B9F38833E9F68093FF032A
:1017200085ECB0C0803509F485C0883509F496C0D1
:10173000883489F60E94000BCECF883909F48CC01A
:1017400038F5883729F050F4883611F0803719F6CB
:1017500083E0809301041092D80357C0883809F4BD
:101760007BC0803919F0803809F0B5CF8091D8035B
:10177000803208F071C0E091D80381E08E0F809331
:10178000D8038091BB00F0E0E854FC4F80833DC05B
:10179000803B39F0E0F4803A09F479C0883A09F0E6
:1017A0009ACF84E0809301041092B5031092B403A1
:1017B000E091B203F091B30319958091B4038111C4
:1017C0000FC081E08093B4031092920309C0803C63
:1017D00009F4A6CF883C09F4A3CF883B09F07BCF5E
:1017E000E091B50381E08E0F8093B503F0E0EE56F3
:1017F000FC4F80818093BB009091B5038091B4032E
:1018000029C08091DC038093BB0085EC8093BC00F1
:1018100062CF9091FE038091FD03981758F5E091F7
:10182000FE0381E08E0F8093FE03F0E0E352FC4F55
:101830008081E9CFE091FE0381E08E0F8093FE036B
:101840008091BB00F0E0E352FC4F80839091FE0357
:101850008091FD039817C8F285E8D8CFE091FE0388
:1018600081E08E0F8093FE038091BB00F0E0E35295
:10187000FC4F80838091000481115CCF81E08093D4
:10188000DB0384EA8093BC001092010424CF85EC32
:101890008093BC00109201048091D803803230F410
:1018A000E091D803F0E0E854FC4F10826091D80337
:1018B00070E0E091B603F091B70388EB93E01995DF
:1018C0001092D80308CF1092FF0334CF1F920F92CB
:1018D0000FB60F9211242F933F938F939F93AF9343
:1018E000BF938091670390916803A0916903B091C1
:1018F0006A033091660323E0230F2D3758F50196D4
:10190000A11DB11D20936603809367039093680324
:10191000A0936903B0936A0380916B0390916C0369
:10192000A0916D03B0916E030196A11DB11D80932E
:101930006B0390936C03A0936D03B0936E03BF9100
:10194000AF919F918F913F912F910F900FBE0F906C
:101950001F90189526E8230F0296A11DB11DD2CF26
:101960001F920F920FB60F9211240BB60F922F9366
:101970003F934F935F936F937F938F939F93AF9317
:10198000BF93EF93FF938091550390915603A091DD
:101990005703B0915803892B8A2B8B2BD1F190914F
:1019A00054038091000089278093000080915503A3
:1019B00090915603A0915703B09158031816190639
:1019C0001A061B069CF48091550390915603A09132
:1019D0005703B09158030197A109B10980935503AA
:1019E00090935603A0935703B0935803FF91EF9140
:1019F000BF91AF919F918F917F916F915F914F9127
:101A00003F912F910F900BBE0F900FBE0F901F9024
:101A1000189580910002ECEBF1E0E4919FEF909338
:101A20000002E230E9F040F4EE2389F0E13091F079
:101A300060E00E94E302DACFE43049F110F1E530D2
:101A4000B9F7909173009D7F90937300F1CF10923E
:101A50006E00EECF90916F009D7F90936F00E8CF66
:101A6000909170009D7F9093700091E09093B000F2
:101A70009091B100987F94609093B1001092B30060
:101A8000D7CF909171009D7F90937100D1CF9091AD
:101A900072009D7F90937200CBCF1F920F920FB672
:101AA0000F9211240BB60F922F933F934F935F9396
:101AB0006F937F938F939F93AF93BF93EF93FF9316
:101AC00087E394E00E949A05FF91EF91BF91AF9157
:101AD0009F918F917F916F915F914F913F912F9146
:101AE0000F900BBE0F900FBE0F901F9018951F9276
:101AF0000F920FB60F9211240BB60F922F933F93B4
:101B00004F935F936F937F938F939F93AF93BF9305
:101B1000EF93FF9387E394E00E942605FF91EF91F6
:101B2000BF91AF919F918F917F916F915F914F91F5
:101B30003F912F910F900BBE0F900FBE0F901F90F3
:101B400018951F920F920FB60F9211240BB60F9299
:101B50002F933F934F935F936F937F938F939F93B5
:101B6000AF93BF93EF93FF9384ED94E00E949A05A7
:101B7000FF91EF91BF91AF919F918F917F916F9165
:101B80005F914F913F912F910F900BBE0F900FBE21
:101B90000F901F9018951F920F920FB60F9211245D
:101BA0000BB60F922F933F934F935F936F937F9357
:101BB0008F939F93AF93BF93EF93FF9384ED94E044
:101BC0000E942605FF91EF91BF91AF919F918F9158
:101BD0007F916F915F914F913F912F910F900BBE2D
:101BE0000F900FBE0F901F9018951F920F920FB677
:101BF0000F9211240BB60F922F933F934F935F9345
:101C00006F937F938F939F93AF93BF93EF93FF93C4
:101C100081E795E00E949A05FF91EF91BF91AF9106
:101C20009F918F917F916F915F914F913F912F91F4
:101C30000F900BBE0F900FBE0F901F9018951F9224
:101C40000F920FB60F9211240BB60F922F933F9362
:101C50004F935F936F937F938F939F93AF93BF93B4
:101C6000EF93FF9381E795E00E942605FF91EF91A6
:101C7000BF91AF919F918F917F916F915F914F91A4
:101C80003F912F910F900BBE0F900FBE0F901F90A2
:101C900018951F920F920FB60F9211240BB60F9248
:101CA0002F933F934F935F936F937F938F939F9364
:101CB000AF93BF93EF93FF9380910F060E94BA02F8
:101CC00020911306309114062F5F3F4F3093140676
:101CD0002093130690911206953618F096E0909393
:101CE0000E0690910E06943009F466C0B8F4923056
:101CF000F1F0933009F444C090911106992309F44E
:101D00006BC081117CC080911006882309F463C0E8
:101D10008091100661E00E94E3025EC0953009F4F4
:101D200057C0963049F791E09093DF064FC081117C
:101D3000E3CF20911306309114062436310528F4A0
:101D40001092140610921306D7CF1092DF0610924D
:101D50001206E091120691E09E0F90931206F0E0B9
:101D60002091130630911406EE0FFF1FE25FF94F2A
:101D700030872783109214061092130693E019C03F
:101D8000813009F0B9CFE091120691E09E0F909357
:101D90001206F0E02091130630911406EE0FFF1F9B
:101DA000E25FF94F308727831092140610921306D2
:101DB00094E090930E06A0CF882359F22091130649
:101DC000309114062536310508F496CF95E0F1CF11
:101DD000811192CFB5CF2F9AFF91EF91BF91AF9123
:101DE0009F918F917F916F915F914F913F912F9133
:101DF0000F900BBE0F900FBE0F901F901895809103
:101E00001006882321F08091100660E084CF2F987F
:101E1000E3CF1F920F920FB60F9211240BB60F92C1
:101E20002F933F934F935F936F937F938F939F93E2
:101E3000AF93BF93CF93DF93EF93FF9380915303BF
:101E4000C0911C07D0E087FF23C01092850010923C
:101E50008400809153038F5F8093530380915303D9
:101E6000082E000C990B8C179D0724F480915303C6
:101E70008C3074F1809184009091850084349C4969
:101E800008F465C08091840090918500049661C03B
:101E900080915303082E000C990B8C179D07CCF6EC
:101EA0003091530325E03203F0011124E052F94F41
:101EB000808186FFCECF309153033203F00111248D
:101EC000E052F94F808160E08F730E94E302C1CF3E
:101ED00080918400909185003091530325E0320376
:101EE000F0011124E052F94F41815281840F951F76
:101EF0009093890080938800309153033203F0015E
:101F00001124E052F94F808186FF0CC030915303B9
:101F10003203F0011124E052F94F808161E08F73A8
:101F20000E94E302FF91EF91DF91CF91BF91AF91BA
:101F30009F918F917F916F915F914F913F912F91E1
:101F40000F900BBE0F900FBE0F901F90189580E45E
:101F50009CE990938900809388008FEF80935303CE
:101F6000E1CF10922E0410922D0488EE93E0A0E0B1
:101F7000B0E080932F0490933004A0933104B09389
:101F800032042DEA32E030932C0420932B0410927B
:101F90003A041092390480933B0490933C04A0933C
:101FA0003D04B0933E042FEB32E03093380420938D
:101FB000370445E351E0509344044093430444E321
:101FC00051E0509346044093450440E351E0509360
:101FD00048044093470441E351E050934A0440933E
:101FE000490442E351E050934C0440934B0446E3D0
:101FF00051E050934E0440934D04109250041092BF
:10200000510410925204109253041092D70410926B
:10201000D6048093D8049093D904A093DA04B093A3
:10202000DB043093D5042093D40445ED50E0509365
:10203000E1044093E00444ED50E05093E304409306
:10204000E20440ED50E05093E5044093E40441ED98
:1020500050E05093E7044093E60442ED50E0509383
:10206000E9044093E80446ED50E05093EB044093BC
:10207000EA041092ED041092EE041092EF04109214
:10208000F004109274051092730580937505909377
:102090007605A0937705B093780530937205209369
:1020A000710585EC90E090937E0580937D0584EC2E
:1020B00090E09093800580937F0580EC90E0909372
:1020C00082058093810581EC90E090938405809354
:1020D000830582EC90E0909386058093850586ECDD
:1020E00090E0909388058093870510928A0510925E
:1020F0008B0510928C0510928D058091A102909114
:10210000A202A091A302B091A4028093060890932A
:102110000708A0930808B09309088091A502909140
:10212000A602A091A702B091A80280930A089093FA
:102130000B08A0930C08B0930D0884E080930E0860
:1021400087E080930F081092100884EB80931108A9
:1021500086E18093120888E18093130887E18093D9
:10216000140889E180931508E0911C07EC3008F40D
:10217000A9C08FEF80931608E0911C07EC3008F49B
:10218000B2C08FEF809317088CE08093E50784E25C
:102190008093E60786E08093E70785E08093E80771
:1021A0008FE18093E9078EE18093EA0783E28093D1
:1021B000EB0782E28093EC0785E48093ED0784E4EB
:1021C0008093EE0780E48093F1071092F607109257
:1021D000F7071092F8071092F9071092FA07109279
:1021E000FB071092FC071092FD07E7E2F7E08FEF84
:1021F0009FEFDC01128213821482158216821782ED
:102200001086118683879487A587B6878787908BEA
:10221000A18BB28B128611821082739627E0E53E65
:10222000F20741F78DE090E00E94FE19FC01138255
:10223000128281ED92E091838083118687E284830C
:1022400084E1828784E083871486F0932407E093F7
:102250002307109225071092260785E280930F0628
:102260001092110610921E0710921D07109220075F
:1022700010921F07109222071092210761E070E070
:1022800090E080E00E94231B0097F1F190931E07DD
:1022900080931D071092200710921F07209121079D
:1022A00030912207232B11F4FC0110821092220797
:1022B000109221076BED72E080911D0790911E072F
:1022C0000C940D1C81E08E0F80931C07E093160880
:1022D00025E0E29FF0011124E052F94F88EB9BE0EA
:1022E0009283818349CF81E08E0F80931C07E09316
:1022F000170885E0E89FF0011124E052F94F88EBC0
:102300009BE09283818340CF80911D0790911E07AF
:10231000009711F00E949A1A10921E0710921D0742
:1023200010922207109221071092200710921F0787
:102330000895CF93DF9300D01F92CDB7DEB7789486
:1023400084B5826084BD84B5816084BD85B58260BA
:1023500085BD85B5816085BD80916E00816080936B
:102360006E001092810080918100826080938100D4
:1023700080918100816080938100809180008160E4
:10238000809380008091B10084608093B10080913F
:10239000B00081608093B000809191008260809352
:1023A00091008091910081608093910080919000D4
:1023B0008160809390008091A10082608093A10051
:1023C0008091A10081608093A1008091A000816034
:1023D0008093A000809121018260809321018091EF
:1023E000210181608093210180912001816080938F
:1023F000200180917A00846080937A0080917A0035
:10240000826080937A0080917A00816080937A0064
:1024100080917A00806880937A001092C100E091E8
:102420008105F091820582E08083E0917D05F09145
:102430007E051082E0917F05F09180058FEC80830E
:1024400010928905E0918505F091860586E08083EC
:10245000E0918305F0918405808180618083E09123
:102460008305F0918405808188608083E0918305F5
:10247000F0918405808180688083E0918305F091EC
:10248000840580818F7D808361E08091E6070E94D2
:10249000500360E08091E6070E94E30260E08091D3
:1024A000E5070E9450038BE294E09093F00780933D
:1024B000EF071092900310928F031092080410926D
:1024C0002A040E9411038BEC91E09093B303809354
:1024D000B2038CEC91E09093B7038093B60380E055
:1024E00090E1A0E0B0E08093F2079093F307A0930F
:1024F000F407B093F5078AE090E0A0E0B0E08093A5
:10250000F6079093F707A093F807B093F90780E0D8
:1025100090E0A0E0B0E48093FA079093FB07A093CB
:10252000FC07B093FD0760E070E185E00E948D0438
:102530006FE979E380E00E948D0407EE17E085EEF5
:1025400097E09A83898390E4A92E92E0B92E26E839
:10255000822E22E0922E3BECE32E37E0F32ED801C0
:1025600012969C91F80181918F01A981BA815996A7
:102570008C9359975A969C9361E00E94500361E0B6
:10258000E981FA81828D0E945003C980DA80FDE1E1
:10259000CF0ED11CD80115969C91159713968C914E
:1025A000E981FA81858F968F61E00E94500360E097
:1025B000A981BA815E968C910E94500361E0E98105
:1025C000FA81858D0E94E3027FB6F89480915903C9
:1025D000811125C0F5018491F4019491E82FF0E078
:1025E000EE0FFF1FE354FE4FA591B4918C919823F9
:1025F00021F461E085E30E94E30261E085E30E944B
:1026000050038CB580618CBD8CB580648CBD61E05D
:1026100084E30E94500361E083E30E9450038091B1
:1026200059038F5F809359037FBEC7010197F1F76C
:1026300060E0A981BA815D968C910E94E30288E8EE
:102640000E94780783E00E94780761E0E981FA81BF
:10265000858D0E94E302C7010197F1F7C6010E9430
:102660007F0789819A8102969A838983895E974040
:1026700009F075CF0AE018E0E6E0F8E0FA83E983B4
:10268000BEE0EB2EB8E0FB2E60E0D8018D918D010D
:102690000E945003E016F106B9F77AE0E72E78E0E1
:1026A000F72E06E018E0E5E0DE2EFCE0BF2EA2E00B
:1026B000CA2EE981FA8180898C3008F049C0A08453
:1026C00061E08A2D0E945003A981BA8150968C91B5
:1026D000D89EF0011124E052F94F2A2D2F739081DA
:1026E000907C922B9083138214826B2D0E9473181E
:1026F0008B9DA001112430E020E0BA01620F731F0E
:10270000D69EF001D79EF00D1124E052F94F908132
:1027100096FD12C02F5F3F4F2C30310571F78111AC
:102720000BC010928000C092810010928500109220
:102730008400C6BAC0926F00A981BA815096EC910C
:10274000DE9EF0011124E052F94F80818064808385
:10275000E981FA8196858485D80152968C935297A7
:1027600053969C9360E00E94500361E0F8018389D6
:102770000E94500360E0D80153968C910E94E302BE
:10278000E981FA813196FA83E9830E5F1F4FE016E3
:10279000F10609F08ECFF8941092200189E0809321
:1027A000210180E293E09093290180932801109207
:1027B00025011092240182E0809373007894809325
:1027C0000E061092120680910F0660E00E945003E0
:1027D0008DE492E09A838983A981BA816D917D917C
:1027E0008D919D91BA83A9838D010450110920E038
:1027F00030E048E455E40E94931722E133E84FEBC0
:1028000051E40E94F418F8016083718382839383FA
:1028100089819A8189599240F9F6E1E0F2E0FA83E0
:10282000E98309E412E0A981BA816D917D918D91CE
:102830009D91BA83A9832BED3FE049E450E40E94C7
:1028400093172AE939E949E151E40E94931720E0FE
:1028500030E048E455E40E94931729E238EA46E85C
:1028600055E40E94F4180E949C19E981FA8134977A
:102870006083718382839383E981FA810E171F0736
:1028800091F68DE10E94BA02892B41F01092650306
:1028900081E090E090939A02809399028BE10E94EC
:1028A000BA02892B19F091E090936403809164033C
:1028B000882309F4C9C00E946008C0900102D0902A
:1028C0000202E0900302F090040220905E03309038
:1028D0005F03009160031091610320E030E04AEF54
:1028E00053E4C701B6010E9487184B015C01B10196
:1028F000C8010E9434179B01AC01C501B4010E94BC
:102900002D176DEC862E6CEC962E6CE4A62E6EE3E5
:10291000B62E87FF07C05DEC852E5CEC952EA92CAA
:102920005DE3B52E60915A0370915B0380915C0367
:1029300090915D0397FF07C0909580957095619584
:102940007F4F8F4F9F4F0E9434172B013C01AC01EA
:102950009B01C701B6010E94F419B501A401181624
:1029600024F04AE057ED63E27CE380E098E00E94C7
:102970005106B101C80197FF07C0909580957095E9
:1029800061957F4F8F4F9F4F0E94341769837A83E1
:102990008B839C839B01AC01C701B6010E94F41993
:1029A000B501A401181624F04AE057ED63E27CE378
:1029B0008EEF97E00E945106A3019201C701B60174
:1029C0000E942D1718160CF43FC029813A814B81C3
:1029D0005C81C701B6010E942D171816ACF10E9448
:1029E000C4040E94600888EE92E00E94A5096091EC
:1029F000010270910202809103029091040242E070
:102A00000E94240A89ED92E00E94A50981EF92E0DC
:102A10000E94A50960915E0370915F03809160033D
:102A2000909161030E94F6098EEF92E00E94A50941
:102A300060915A0370915B0380915C0390915D03F8
:102A40000E94F6090E9482088CE10E94BA02892B3A
:102A500041F00E948208A1E0A09365030E942C0629
:102A600010CF809165038823C9F30E94600880918C
:102A7000990290919A02009761F0019709F483C13D
:102A80008AE293E00E94A50989ED92E00E94A509DF
:102A9000E5CFE0916203F0916303EE0FFF1FEE0FAD
:102AA000FF1FEF5FFD4FC080D180E280F38020E008
:102AB00030E0A901C701B6010E94F41920E030E01E
:102AC0004AEF53E418160CF0BCC0C701B6010E94CF
:102AD00087184B015C0160915E0370915F038091E8
:102AE00060039091610397FF07C090958095709562
:102AF00061957F4F8F4F9F4F0E94341769837A8370
:102B00008B839C83A50194010E94F419181614F17B
:102B100060915A0370915B0380915C0390915D0317
:102B200097FF07C090958095709561957F4F8F4F67
:102B30009F4F0E9434179B01AC01C501B4010E9454
:102B40002D173AE9832E39E9932EA92C3EE3B32EB3
:102B500087FF07C02DEC822E2CEC922EA92C2DE3A2
:102B6000B22E20E030E0A901C701B6010E94F4199D
:102B700026013701181624F077FA709477F87094CC
:102B8000A301920169817A818B819C810E942D171A
:102B900087FD30C160915A0370915B0380915C03A3
:102BA00090915D0397FF07C0909580957095619512
:102BB0007F4F8F4F9F4F0E9434179B01AC01C30181
:102BC000B2010E94F41918160CF092C020E030E017
:102BD000A901C701B6010E942D1787FF36C0609179
:102BE0005A0370915B0380915C0390915D0397FFA2
:102BF00007C090958095709561957F4F8F4F9F4F3F
:102C00000E9434179B01AC01C301B2010E942D1731
:102C1000181634F0A501940160E081E00E949B0841
:102C2000A301920169817A818B819C810E94F419B0
:102C300087FD14CFA50194016FEF80E00E949B08EF
:102C40000DCFC701B601905842CF20E030E0A90176
:102C5000C701B6010E94F41918160CF0FFCE60915E
:102C60005A0370915B0380915C0390915D0397FF21
:102C700007C090958095709561957F4F8F4F9F4FBE
:102C80000E9434172B013C0129813A814B815C81E0
:102C9000C701B6010E94F41918166CF4A701960139
:102CA000C301B2010E942D1787FF05C0A501940141
:102CB00061E08FEFC3CFA7019601C301B2010E946B
:102CC000F41987FD06C0A501940160E08FEF0E9412
:102CD0009B0829813A814B815C81C701B6010E9422
:102CE0002D17A501940161E018160CF4B7CEA5CFFD
:102CF0000E948C0888EE92E00E94A509E091620390
:102D0000F0916303EE0FFF1FEE0FFF1FEF5FFD4F0C
:102D1000608171818281938142E00E94240A89ED61
:102D200092E00E94A5098BE093E00E94A5096091C2
:102D30005E0370915F0380916003909161030E9434
:102D4000F6098AE193E00E94A50960915A03709107
:102D50005B0380915C0390915D030E94F609809172
:102D600062039091630301969093630380936203DF
:102D70000E94C4040E948208E1E0F0E0F0939A020D
:102D8000E09399026BCEE0906203F09063038701B9
:102D9000000F111F000F111F035B1D4F60915E0399
:102DA00070915F0380916003909161030E943417DA
:102DB0009B01AC01D8016D917D918D919C910E94F8
:102DC000F419181634F420E030E040E85FE361E0E5
:102DD00039C0B3E1EB16F10410F0109265030E94C4
:102DE0008C080E94C4040E94820810929A021092D9
:102DF000990234CE20E030E0A901C701B6010E945B
:102E00002D1787FF22CF60915A0370915B03809149
:102E10005C0390915D0397FF07C090958095709536
:102E200061957F4F8F4F9F4F0E9434179B01AC01DC
:102E3000C301B2010E94F419A50194016FEF1816A5
:102E40000CF0CDCE81E0FACE80911D0790911E0747
:102E5000009711F00C949A1A08950E946F1708F4C5
:102E600081E00895E89409C097FB3EF49095809521
:102E7000709561957F4F8F4F9F4F9923A9F0F92F40
:102E800096E9BB279395F695879577956795B795BE
:102E9000F111F8CFFAF4BB0F11F460FF1BC06F5FA4
:102EA0007F4F8F4F9F4F16C0882311F096E911C0B6
:102EB000772321F09EE8872F762F05C0662371F0D7
:102EC00096E8862F70E060E02AF09A95660F771FEB
:102ED000881FDAF7880F9695879597F90895990FC7
:102EE0000008550FAA0BE0E8FEEF16161706E807D4
:102EF000F907C0F012161306E407F50798F0621BF5
:102F0000730B840B950B39F40A2661F0232B242BC9
:102F1000252B21F408950A2609F4A140A6958FEFE8
:102F2000811D811D08950E94A6170C9417180E94F8
:102F3000091838F00E94101820F0952311F00C9415
:102F400000180C94061811240C944B180E94281891
:102F500070F3959FC1F3950F50E0551F629FF001EC
:102F6000729FBB27F00DB11D639FAA27F00DB11D05
:102F7000AA1F649F6627B00DA11D661F829F22278E
:102F8000B00DA11D621F739FB00DA11D621F839F15
:102F9000A00D611D221F749F3327A00D611D231FEB
:102FA000849F600D211D822F762F6A2F11249F5739
:102FB00050409AF0F1F088234AF0EE0FFF1FBB1F3C
:102FC000661F771F881F91505040A9F79E3F5105FB
:102FD00080F00C9400180C944B185F3FE4F3983E7B
:102FE000D4F3869577956795B795F795E7959F5FA5
:102FF000C1F7FE2B880F911D9695879597F9089537
:1030000097F99F6780E870E060E008959FEF80EC9B
:10301000089500240A94161617061806090608953E
:1030200000240A9412161306140605060895092EA4
:103030000394000C11F4882352F0BB0F40F4BF2B13
:1030400011F460FF04C06F5F7F4F8F4F9F4F089553
:1030500057FD9058440F551F59F05F3F71F0479549
:10306000880F97FB991F61F09F3F79F0879508952E
:10307000121613061406551FF2CF4695F1DF08C04D
:10308000161617061806991FF1CF8695710561056A
:1030900008940895E894BB2766277727CB0197F912
:1030A0000895A1E21A2EAA1BBB1BFD010DC0AA1F89
:1030B000BB1FEE1FFF1FA217B307E407F50720F0A1
:1030C000A21BB30BE40BF50B661F771F881F991F1C
:1030D0001A9469F760957095809590959B01AC0165
:1030E000BD01CF010895991B79E004C0991F96177F
:1030F00008F0961B881F7A95C9F780950895EE0F02
:10310000FF1F881F8BBF0790F691E02D1994505830
:10311000BB27AA270E949F180C9417180E94091811
:1031200038F00E94101820F039F49F3F19F426F46B
:103130000C9406180EF4E095E7FB0C940018E92FA8
:103140000E94281858F3BA17620773078407950777
:1031500020F079F4A6F50C944A180EF4E0950B2EA5
:10316000BA2FA02D0B01B90190010C01CA01A001D9
:103170001124FF27591B99F0593F50F4503E68F134
:103180001A16F040A22F232F342F4427585FF3CF75
:10319000469537952795A795F0405395C9F77EF446
:1031A0001F16BA0B620B730B840BBAF09150A1F08F
:1031B000FF0FBB1F661F771F881FC2F70EC0BA0F15
:1031C000621F731F841F48F4879577956795B7959D
:1031D000F7959E3F08F0B0CF9395880F08F0992798
:1031E000EE0F9795879508950E9408190C9417186B
:1031F0000E94101858F00E94091840F029F45F3F0F
:1032000029F00C94001851110C944B180C940618CA
:103210000E94281868F39923B1F3552391F3951B65
:10322000550BBB27AA2762177307840738F09F5FE7
:103230005F4F220F331F441FAA1FA9F335D00E2E54
:103240003AF0E0E832D091505040E695001CCAF7C1
:103250002BD0FE2F29D0660F771F881FBB1F261784
:1032600037074807AB07B0E809F0BB0B802DBF015B
:10327000FF2793585F4F3AF09E3F510578F00C942A
:1032800000180C944B185F3FE4F3983ED4F38695F6
:1032900077956795B795F7959F5FC9F7880F911D4B
:1032A0009695879597F90895E1E0660F771F881F37
:1032B000BB1F621773078407BA0720F0621B730BEA
:1032C000840BBA0BEE1F88F7E09508950E946D19E4
:1032D0006894B1110C944B1808950E94301888F02E
:1032E0009F5798F0B92F9927B751B0F0E1F0660FCA
:1032F000771F881F991F1AF0BA95C9F714C0B1300B
:1033000091F00E944A18B1E008950C944A18672F72
:10331000782F8827B85F39F0B93FCCF38695779539
:103320006795B395D9F73EF4909580957095619522
:103330007F4F8F4F9F4F08950E94DC1990F09F3769
:1033400048F4911116F00C944B1860E070E080E89E
:103350009FEB089526F41B16611D711D811D0C94B1
:10336000B3190C94CE19882371F4772321F0985067
:10337000872B762F07C0662311F499270DC0905133
:10338000862B70E060E02AF09A95660F771F881F01
:10339000DAF7880F9695879597F908959F3F31F052
:1033A000915020F4879577956795B795880F911D73
:1033B0009695879597F908950E943018A0F0BEE77A
:1033C000B91788F4BB279F3860F41616B11D672F14
:1033D000782F8827985FF7CF869577956795B11DE9
:1033E00093959639C8F308950E946F1708F48FEFEC
:1033F00008950E946F17880B990B08950F931F93E0
:10340000CF93DF938230910510F482E090E0E09159
:103410001E08F0911F0830E020E0B0E0A0E03097F7
:1034200099F42115310509F44AC0281B390B2430C1
:103430003105D8F58A819B816115710589F1FB0100
:1034400093838283FE0111C04081518102811381E7
:1034500048175907E0F04817590799F4109761F099
:1034600012960C93129713961C933296CF01DF910C
:10347000CF911F910F91089500931E0810931F087C
:10348000F4CF2115310551F04217530738F0A90147
:10349000DB019A01BD01DF01F801C1CFEF01F9CFD6
:1034A00090931F0880931E08CDCFFE01E20FF31FFB
:1034B000819391932250310939832883D7CF20916A
:1034C0001C0830911D08232B41F420919D0230915E
:1034D0009E0230931D0820931C0820919B0230917E
:1034E0009C022115310541F42DB73EB740919F0252
:1034F0005091A002241B350BE0911C08F0911D088F
:10350000E217F307A0F42E1B3F0B2817390778F0BA
:10351000AC014E5F5F4F2417350748F04E0F5F1F19
:1035200050931D0840931C08819391939FCFF0E026
:10353000E0E09CCFCF93DF930097E9F0FC01329756
:1035400013821282A0911E08B0911F08ED0130E095
:1035500020E01097A1F420813181820F931F2091E8
:103560001C0830911D082817390709F061C0F09335
:103570001D08E0931C08DF91CF910895EA01CE1752
:10358000DF07E8F54A815B819E0141155105B1F7DE
:10359000E901FB83EA8349915991C40FD51FEC17C8
:1035A000FD0761F4808191810296840F951FE901E6
:1035B00099838883828193819B838A83F0E0E0E012
:1035C00012968D919C9113970097B9F52D913C918E
:1035D0001197CD010296820F931F20911C08309104
:1035E0001D082817390739F6309751F510921F0832
:1035F00010921E08B0931D08A0931C08BCCFD38363
:10360000C28340815181840F951FC817D90761F487
:103610004E5F5F4F88819981480F591F51834083C6
:103620008A819B81938382832115310509F0B0CF74
:10363000F0931F08E0931E089ECFFD01DC01C0CF70
:1036400013821282D7CF4F925F926F927F928F92A6
:103650009F92AF92BF92CF92DF92EF92FF920F9321
:103660001F93CF93DF938C01009799F4CB01DF91E7
:10367000CF911F910F91FF90EF90DF90CF90BF906F
:10368000AF909F908F907F906F905F904F900C9431
:10369000FE19FC01E60FF71F9C0122503109E217C9
:1036A000F30708F4AEC0D901CD91DC911197C6178C
:1036B000D70720F1C530D10578F0CE0104978617E1
:1036C000970750F0C61BD70B2297C193D1936D93E8
:1036D0007C93CF010E949A1AC801DF91CF911F916C
:1036E0000F91FF90EF90DF90CF90BF90AF909F90A1
:1036F0008F907F906F905F904F9008955B01AC1A10
:10370000BD0A4C018C0E9D1EA0911E08B0911F0891
:10371000512C412CF12CE12C109731F580911C0893
:1037200090911D088815990509F05CC0461657064A
:1037300008F058C080919B0290919C02009741F440
:103740008DB79EB740919F025091A002841B950BAC
:10375000E817F90708F055C0F0931D08E0931C081E
:10376000F90171836083B8CF8D919C911197129666
:103770006C90129713967C901397A815B90559F57C
:103780006C0142E0C40ED11CCA14DB0420F1AC0170
:103790004A195B09DA011296159780F062827382EA
:1037A00051834083D9016D937C93E114F10471F04E
:1037B000D7011396FC93EE9312978ECF22968C0F1F
:1037C0009D1FF90191838083F301EFCFF0931F08D0
:1037D000E0931E0881CF4816590608F42C017D019C
:1037E000D3019ACFCB010E94FE197C01009749F0CA
:1037F000AE01B8010E94041CC8010E949A1A8701F8
:103800006BCF10E000E068CFFB01DC0102C001904B
:103810000D9241505040D8F70895FB01DC01019012
:103820000D920020E1F7089511E0C0E7D1E000E03B
:1038300006C0802FFE010E947F182196011DC1370E
:0C384000D10780E00807A9F7F894FFCF3B
:10384C00FF0000B4420000B4C20000B4C20000B4D7
:10385C0042000034C20000B442000034C20000A098
:10386C00C1000034430000A041000034420000B409
:10387C00C2000034420000B4C20000B4420000B4E4
:10388C00420000B4C2000000000000000000005F15
:10389C004300004A420000344200004A420000F853
:1038AC004100003A4200007442000044420000AA69
:1038BC00420000AA42000044420000744200003A58
:1038CC00420000F84100004A420000344200004A25
:1038DC004200005F4300000000010000002008804F
:1038EC0000363738391B1D1A1C000000002402F763
:1038FC00012408CD01F001DD01CE0100000000BC67
:10390C0005F9043F05090670054E05620500000027
:10391C00003C08F904240823080D0A006E616E00AF
:10392C00696E66006F766600416E676C65203A20A2
:10393C0000456E636F646575724C203A2000456ECD
:10394C00636F6465757252203A20004C656674454D
:10395C006E636F646572203A200052696768744523
:10396C006E636F646572203A20004552524F5220AC
:0A397C004E4F204D4F44452100003E
:00000001FF
