:100000000C9471010C94A2010C94A2010C94A20115
:100010000C94A2010C94A2010C94A2010C94A201D4
:100020000C94A2010C94B7080C94B7080C94B70870
:100030000C94A2010C942F0A0C94A2010C94A2011E
:100040000C94A2010C94880C0C94A2010C94A201B3
:100050000C94A2010C94A2010C94A2010C94E50949
:100060000C94A2010C949E0B0C94740B0C94A201A2
:100070000C94A2010C94A2010C94A2010C94A20174
:100080000C94A2010C94A2010C94A2010C94A20164
:100090000C94A2010C94A2010C94A2010C94C1082E
:1000A0000C94A2010C94A2010C94A2010C94A20144
:1000B0000C94A2010C94A2010C94A2010C94C80B04
:1000C0000C94A2010C94A2010C94A2010C944A0B72
:1000D0000C94200B0C94A2010C94F60A0C94CC0AFC
:1000E0000C94A2010C94C2020C94FF060C94AF0570
:1000F0000C942F080C94FC050C94DE020C9425073C
:100100000C94DA020C9405020C94A7020C943205AC
:100110000C941B070C94F7060C94D9060C94AE02B1
:100120000C9417080C94C6020C9452070C94D40635
:100130000C9441050C94D0020C94D9020C94180232
:100140000C94C3110C945C070C944C020C9416088C
:100150000C941F020C94F3010C94300D0C94F401D8
:100160000C94ED060C94BE020C9455050C94E30619
:100170000C943E070C9407070C94A3020C949F0266
:100180000C94CC020C94AB020C94D4020C94110786
:100190000C94EC040C94C3060C94F5010C944807E1
:1001A0000C9466070C9499020C94B4020C943407D6
:1001B0000C94B8020C9463050C94F6010200002123
:1001C00000240027002A002D003000330001010028
:1001D00000040107010A0100002200250028002B6D
:1001E000002E003100340002010000050108010B5F
:1001F00001000020002300260029002C002F0032DF
:1002000000000100000301060109010505050507BD
:100210000508080808020202020A0A080804040481
:1002200004010101010101010103030303030303AD
:1002300003040707070C0C0C0C0C0C0C0C0202023C
:100240000206060606060606060B0B0B0B0B0B0B2F
:100250000B010210202008081020401020408002CE
:1002600001020108040201010204081020408080FC
:100270004020100804020180040201804020100880
:100280000402010804020101020408102040800158
:100290000204081020408000000A0B02090C0D0E19
:1002A0000807030401000000000000000000000037
:1002B000000000000000000000000000000000003E
:1002C00000000012111000000000000000000000FB
:1002D0000000000000000000000000000000300DE1
:1002E000C31111241FBECFEFD1E2DEBFCDBF00E0AE
:1002F0000CBF12E0A0E0B2E0EAE2FCE200E00BBFDB
:1003000002C007900D92A234B107D9F727E0A2E40A
:10031000B2E001C01D92AD31B207E1F711E0C0E7D4
:10032000D1E000E006C021970109802FFE010E9464
:100330003D13CF36D10780E00807A9F70E94180FB8
:100340000C9403160C940000EEE6F4E0A089B18949
:1003500082E08C93A485B5851C92A685B7858FEC29
:100360008C93108EA489B58986E08C93A289B38979
:100370008C9180618C93A289B3898C9188608C93D5
:10038000A289B3898C9180688C930288F389E02DCF
:1003900080818F7D808308952091B102260F3327BD
:1003A000331F21323105ECF42091FE02FC0190E074
:1003B00080E0243069F082E00895A091B10221919B
:1003C000AC0141575D4FA40FB52FB11D2C93019681
:1003D000861798F38091B102680F6093B10280E0B4
:1003E000089581E00895089508950895E0918D029B
:1003F00080918C02E81730F4F0E0E459FD4F8081E1
:1004000090E008958FEF9FEF089590918D02809175
:100410008C022FEF3FEF981748F4E92FF0E0E459F2
:10042000FD4F208130E09F5F90938D02C9010895B8
:1004300080918C0290918D02891B990B0895CF9227
:10044000DF92EF92FF920F931F93CF93DF937C0184
:10045000CB018A0120910403222389F0EB016B0177
:10046000C40ED51ECC15DD0569F06991D701ED915B
:10047000FC910190F081E02DC7011995F3CF642F15
:100480000E94CC01C801DF91CF911F910F91FF9085
:10049000EF90DF90CF900895CF93DF931F92CDB769
:1004A000DEB76983209104032223F9F0209127030A
:1004B000203258F021E030E0FC013383228390E0C9
:1004C00080E00F90DF91CF91089580910503E82F90
:1004D000F0E0EA5FFC4F998190838F5F8093050382
:1004E0008093270381E090E0ECCF61E0CE0101969C
:1004F0000E94CC01F7CF8150823108F05AC0E82F1A
:10050000F0E08827E957FD4F8F4F0C943D13A70269
:10051000AB0299029F02A302D902AE02B402B80252
:10052000BE02C202C602CC02D002D902D402DA0252
:10053000DE02809180008F77809380000895809103
:1005400080008F7DF9CF80918000877FF5CF84B5C3
:100550008F7784BD089584B58F7DFBCF8091B000E7
:100560008F778093B00008958091B0008F7DF9CF90
:10057000809190008F7780939000089580919000F3
:100580008F7DF9CF80919000877FF5CF8091A0007B
:100590008F778093A00008958091A0008F7DF9CF80
:1005A0008091A000877FF5CF809120018F77809385
:1005B00020010895809120018F7DF9CF8091200145
:1005C000877FF5CFCF93DF93282F30E0F901E956ED
:1005D000FD4F8491F901EF5AFD4FD491F901E55F88
:1005E000FD4FC491CC23A1F081110E947B02EC2F1E
:1005F000F0E0EE0FFF1FEF50FE4FA591B491EC918C
:10060000ED2381E090E009F480E0DF91CF9108953F
:1006100080E090E0FACF1F93CF93DF93282F30E054
:10062000F901E956FD4F8491F901EF5AFD4FD4913C
:10063000F901E55FFD4FC491CC23A9F0162F81117C
:100640000E947B02EC2FF0E0EE0FFF1FE952FE4FFD
:10065000A591B4918FB7F894EC91111108C0D09581
:10066000DE23DC938FBFDF91CF911F910895DE2BA6
:10067000F8CF1092FE0281E08093FD021092D80222
:1006800061E084E10E940B0361E085E10E940B03BD
:10069000E9EBF0E080818E7F808380818D7F808395
:1006A00088E48093B80085E48093BC000895CF93DC
:1006B000DF9391E090938E028823B9F0C091B80047
:1006C000D091BA008091BC008A7B8093BC0060E02E
:1006D00084E10E940B0360E085E10E940B030E940D
:1006E0003903D093BA00C093B800DF91CF91089539
:1006F000CF93DF9390E0FC01EF5AFD4F2491855F8B
:100700009D4FFC0184918823D1F090E0880F991FC0
:10071000FC01E354FE4FA591B491FC01E952FE4F58
:10072000C591D49161110EC09FB7F8948C91E22FBE
:10073000E0958E238C932881E223E8839FBFDF918D
:10074000CF9108958FB7F894EC91E22BEC938FBF83
:10075000F6CF3FB7F8948091680290916902A0911A
:100760006A02B0916B0226B5A89B05C02F3F19F015
:100770000196A11DB11D3FBFBA2FA92F982F882721
:10078000BC01CD01620F711D811D911D42E0660FFC
:10079000771F881F991F4A95D1F70895CF92DF924E
:1007A000EF92FF920F931F93CF93DF93D091270384
:1007B00081E0D13208F09CC0C09126030E94A903B9
:1007C0006B017C018091FE0281116CC082E08093FC
:1007D000FE0281E08093FD028FEF8093FC02109275
:1007E000FB02D093FA02A6E0B3E0EAEDF2E080E08B
:1007F000D8138DC01092D9028091D902CC0FC82B8A
:10080000C093D9028091D802813009F084C010923F
:10081000D8020E94A9036B017C018091D9028093C8
:10082000BB008091000390910103A0910203B0915D
:100830000303892B8A2B8B2BA1F00E94A903009123
:1008400000031091010320910203309103036C19FE
:100850007D098E099F09061717072807390708F42D
:1008600042C08091BC0083FDD8CF85EC8093BC0052
:100870000E94A9036B017C018091FE02823009F481
:100880004CC08091FC028F3F09F469C08091FC024A
:10089000803209F466C08091FC02803309F463C0A1
:1008A00084E026C08091000390910103A09102038F
:1008B000B0910303892B8A2B8B2B09F483CF0E94E1
:1008C000A9030091000310910103209102033091CC
:1008D00003036C197D098E099F090617170728075E
:1008E000390708F06FCF8091FF020E94570385E01F
:1008F000109205031092270310920403DF91CF9109
:100900001F910F91FF90EF90DF90CF9008959D91F0
:1009100091938F5F6DCF85EEA9CF80910003909169
:100920000103A0910203B0910303892B8A2B8B2B27
:1009300009F4A2CF0E94A9030091000310910103C2
:1009400020910203309103036C197D098E099F09E0
:10095000061717072807390708F08ECFC4CF80E0A5
:10096000C7CF82E0C5CF83E0C3CF0F931F93CF9350
:10097000DF93162F072FC2EED6E0AA85BB859C8594
:1009800021E0209304039093260310920503109214
:100990002703ED91FC9111970190F081E02D682FD4
:1009A000CD0119958A859B85DC01ED91FC91019023
:1009B000F081E02D602F19958A859B85DC01ED91F2
:1009C000FC910190F081E02D612F1995DF91CF917D
:1009D0001F910F910C94CE03AF92BF92CF92DF92F2
:1009E000EF92FF920F931F93CF93DF936C017B01E4
:1009F0008B01040F151FEB015E01AE18BF08C01775
:100A0000D10759F06991D601ED91FC910190F081E7
:100A1000E02DC6011995892B79F7C501DF91CF919A
:100A20001F910F91FF90EF90DF90CF90BF90AF900C
:100A30000895FC01A089B1898C91A689B78982FDAE
:100A40000FC09C91818D8F5F8F73228D821749F02B
:100A5000A18DAE0FBF2FB11D5D969C93818F089520
:100A60008C910895FC01538D448D252F30E0842F07
:100A700090E0821B930B541710F0CF9608950197C6
:100A80000895FC01918D828D981761F0A28DAE0FB3
:100A9000BF2FB11D5D968C91928D9F5F9F73928F3A
:100AA00090E008958FEF9FEF0895FC01918D828D66
:100AB000981731F0828DE80FF11D858D90E0089533
:100AC0008FEF9FEF0895FC01918D228D892F90E08B
:100AD000805C9F4F821B91098F739927089584E34F
:100AE00093E00E94630521E0892B09F420E0822F26
:100AF000089581ED93E00E94630521E0892B09F4BC
:100B000020E0822F08958EE694E00E94630521E0A4
:100B1000892B09F420E0822F0895FC01A48DA80FF1
:100B2000B92FB11DA35ABF4F2C91848D90E001962F
:100B30008F739927848FA689B7892C93A089B1894F
:100B40008C91837080648C93938D848D981306C0F0
:100B50000288F389E02D80818F7D80830895EF9254
:100B6000FF920F931F93CF93DF93EC0181E0888F67
:100B70009B8D8C8D98131AC0E889F989808185FF37
:100B800015C09FB7F894EE89FF896083E889F989D9
:100B900080818370806480839FBF81E090E0DF91DB
:100BA000CF911F910F91FF90EF900895F62E0B8D2E
:100BB00010E00F5F1F4F0F731127E02E8C8D8E11E9
:100BC0000CC00FB607FCFACFE889F989808185FF50
:100BD000F5CFCE010E948D05F1CFEB8DEC0FFD2FEF
:100BE000F11DE35AFF4FF0829FB7F8940B8FEA890B
:100BF000FB8980818062CFCFCF93DF93EC01888D1A
:100C00008823B9F0AA89BB89E889F9898C9185FD87
:100C100003C0808186FD0DC00FB607FCF7CF8C9115
:100C200085FFF2CF808185FFEDCFCE010E948D053B
:100C3000E9CFDF91CF910895F0E0E0E0199480E0F2
:100C400090E0892B29F00E94830581110E94000009
:100C500080E090E0892B49F080E090E0892B29F03A
:100C60000E94000081110E9400000E9479058111FC
:100C70000E941C0680E090E0892B29F00E946F05FD
:100C800081110C94000008958F929F92AF92BF92B1
:100C9000CF92DF92EF92FF920F931F93CF93DF9348
:100CA000EC016A017B0120E030E04FE753E4CB0127
:100CB000B6010E9432124B015C0120E030E0A90134
:100CC0000E94E81318168CF5C501B4010E94B213F6
:100CD0008B01B98020E030E0A901C701B6010E9474
:100CE000E81360E018160CF061E08B2D0E940B03F6
:100CF0000F3F110509F0ECF41127C88161E08C2F3A
:100D00000E94780301151105B9F460E08C2FDF9182
:100D1000CF911F910F91FF90EF90DF90CF90BF90F8
:100D2000AF909F908F900C940B03C501B401905825
:100D3000CDCF0FEF10E0E1CF0F3F110511F461E0CF
:100D4000E5CFEC2FF0E0E956FD4FE491E150E231C0
:100D500008F0BCC0F0E08827EF54F94F8F4F0C9497
:100D60003D13C306D406D906E306ED066607F7066B
:100D7000FF06070711071B07250734073E0766070D
:100D8000480752075C0784B5806884BD07BDDF91C2
:100D9000CF911F910F91FF90EF90DF90CF90BF9078
:100DA000AF909F908F90089584B5806284BD08BDF8
:100DB000EECF80918000806880938000109389003E
:100DC00000938800E4CF809180008062809380004F
:100DD00010938B0000938A00DACF809180008860A6
:100DE0008093800010938D0000938C00D0CF809171
:100DF000B00080688093B0000093B300C8CF8091AA
:100E0000B00080628093B0000093B400C0CF8091A6
:100E10009000806880939000109399000093980050
:100E2000B6CF8091900080628093900010939B00D9
:100E300000939A00ACCF80919000886080939000DE
:100E400010939D0000939C00A2CF8091A000806829
:100E50008093A0008091A0008F7B8093A0001093CE
:100E6000A9000093A80093CF8091A0008062809396
:100E7000A0001093AB000093AA0089CF8091A0003E
:100E800088608093A0001093AD000093AC007FCFEA
:100E900080912001806880932001109329010093A4
:100EA000280175CF809120018062809320011093EA
:100EB0002B0100932A016BCF8091200188608093E1
:100EC000200110932D0100932C0161CF00381105F2
:100ED0000CF035CF1ACF8EBD00000DB407FEFDCF4C
:100EE0008EB50895CF93DF93EC0160E088810E9476
:100EF0000B0388E90E946B0780E00E946B0780E08B
:100F00000E946B0780E00E946B0780E00E946B07E5
:100F100061E088810E940B038BE891E00197F1F773
:100F200060E088810E940B0380EE0E946B0761E005
:100F30008881DF91CF910C940B03AF92BF92CF9237
:100F4000DF92EF92FF920F931F93CF93DF93CDB772
:100F5000DEB760970FB6F894DEBF0FBECDBF6C0151
:100F600060E0FC0180810E940B0380E60E946B0719
:100F70009E012F5F3F4F79015E0131E1A30EB11C4D
:100F8000870180E00E946B0790E0B0E0A0E0F801EC
:100F900081939193A193B1938F01EA15FB0589F792
:100FA00061E0F60180810E940B0380E090E0DC01AB
:100FB000F70141915191619171917F01BA2FA92F50
:100FC000982F8827840F951FA61FB71FE017F107DA
:100FD00079F79C01AD0166277727CB01621B730B64
:100FE000840B950B60960FB6F894DEBF0FBECDBF95
:100FF000DF91CF911F910F91FF90EF90DF90CF90F5
:10100000BF90AF900895FC01248131E03093040338
:101010002093260310920503109227038485682BE2
:1010200088E293E00E944C020C94CE03089590E075
:1010300080E008950F931F93CF938C01C62F6460B7
:101040000E9403086C2F6B7FC8010E94030883EC89
:1010500090E00197F1F7CF911F910F9108950F93B1
:101060001F93CF93DF938C01C62FD62FD07FD160F3
:101070006D2F0E9403086D2FC8010E941A0880E19D
:10108000C89FE0011124C1606C2FC8010E940308B1
:101090006C2FC8010E941A0881E090E0DF91CF9187
:1010A0001F910F91089540E050E0BA018BEF96E058
:1010B0000E94440640E050E060E070E88DEF96E06A
:1010C0000C944406CF93DF93FC0101900020E9F7D4
:1010D0003197AF01481B590BBC018EE694E00E948A
:1010E000EC04EC0142E050E06FE372E08EE694E045
:1010F0000E94EC048C0F9D1FDF91CF91089585ED28
:101100008093BC008091000390910103A0910203A1
:10111000B09103030796A11DB11D23E0B695A795D5
:10112000979587952A95D1F72091BC0024FD03C09F
:101130001092FE02089540910003509101036091C6
:10114000020370910303452B462B472B69F300974D
:10115000A105B10541F025E32A95F1F700000197BB
:10116000A109B109E1CF8091FF020C9457031F92AE
:101170000F920FB60F9211240F900FBE0F901F9079
:1011800018951F920F920FB60F9211240BB60F9263
:101190002F933F934F935F936F937F938F939F937F
:1011A000AF93BF93EF93FF938091B900887F803610
:1011B00009F44DC008F040C0883209F4A9C028F5F0
:1011C000803109F49DC0C8F4882309F4FBC088303D
:1011D00009F496C0FF91EF91BF91AF919F918F91CC
:1011E0007F916F915F914F913F912F910F900BBE27
:1011F0000F900FBE0F901F901895883109F488C08A
:10120000803241F78093FC0214C0803409F49DC001
:1012100040F48033B9F38833E9F68093FC0285EC1F
:10122000B0C0803509F485C0883509F496C088348B
:1012300089F60E947F08CECF883909F48CC038F532
:10124000883729F050F4883611F0803719F683E09A
:101250008093FE021092D50257C0883809F47BC0F3
:10126000803919F0803809F0B5CF8091D5028032ED
:1012700008F071C0E091D50281E08E0F8093D50215
:101280008091BB00F0E0EB54FD4F80833DC0803B7C
:1012900039F0E0F4803A09F479C0883A09F09ACF3D
:1012A00084E08093FE021092B2021092B102E091AB
:1012B000AF02F091B00219958091B10281110FC077
:1012C00081E08093B10210928F0209C0803C09F442
:1012D000A6CF883C09F4A3CF883B09F07BCFE091EF
:1012E000B20281E08E0F8093B202F0E0E157FD4F31
:1012F00080818093BB009091B2028091B10229C09D
:101300008091D9028093BB0085EC8093BC0062CFB2
:101310009091FB028091FA02981758F5E091FB0238
:1013200081E08E0F8093FB02F0E0E652FD4F80815A
:10133000E9CFE091FB0281E08E0F8093FB02809168
:10134000BB00F0E0E652FD4F80839091FB0280915C
:10135000FA029817C8F285E8D8CFE091FB0281E045
:101360008E0F8093FB028091BB00F0E0E652FD4FB0
:1013700080838091FD0281115CCF81E08093D8024F
:1013800084EA8093BC001092FE0224CF85EC809307
:10139000BC001092FE028091D502803230F4E091C0
:1013A000D502F0E0EB54FD4F10826091D50270E061
:1013B000E091B302F091B40285EB92E0199510929E
:1013C000D50208CF1092FC0234CF1F920F920FB6B5
:1013D0000F9211242F933F938F939F93AF93BF93BB
:1013E0008091640290916502A0916602B0916702BB
:1013F0003091630223E0230F2D3758F50196A11D8C
:10140000B11D209363028093640290936502A093C0
:101410006602B09367028091680290916902A09180
:101420006A02B0916B020196A11DB11D8093680202
:1014300090936902A0936A02B0936B02BF91AF913F
:101440009F918F913F912F910F900FBE0F901F9002
:10145000189526E8230F0296A11DB11DD2CF1F9229
:101460000F920FB60F9211240BB60F922F933F934A
:101470004F935F936F937F938F939F93AF93BF939C
:10148000EF93FF9380915D0290915E02A0915F02C5
:10149000B0916002892B8A2B8B2BD1F190915C0249
:1014A0008091000089278093000080915D029091D7
:1014B0005E02A0915F02B0916002181619061A062A
:1014C0001B069CF480915D0290915E02A0915F02E8
:1014D000B09160020197A109B10980935D029093D8
:1014E0005E02A0935F02B0936002FF91EF91BF9103
:1014F000AF919F918F917F916F915F914F913F91AC
:101500002F910F900BBE0F900FBE0F901F9018954C
:1015100080910002ECEBF1E0E4919FEF90930002E8
:10152000E230E9F040F4EE2389F0E13091F060E040
:101530000E940B03DACFE43049F110F1E530B9F73E
:10154000909173009D7F90937300F1CF10926E0085
:10155000EECF90916F009D7F90936F00E8CF9091B8
:1015600070009D7F9093700091E09093B0009091F7
:10157000B100987F94609093B1001092B300D7CFE0
:10158000909171009D7F90937100D1CF90917200E6
:101590009D7F90937200CBCF1F920F920FB60F9248
:1015A00011240BB60F922F933F934F935F936F933A
:1015B0007F938F939F93AF93BF93EF93FF9384E3B6
:1015C00093E00E948D05FF91EF91BF91AF919F91A4
:1015D0008F917F916F915F914F913F912F910F90DC
:1015E0000BBE0F900FBE0F901F9018951F920F9279
:1015F0000FB60F9211240BB60F922F933F934F9378
:101600005F936F937F938F939F93AF93BF93EF936A
:10161000FF9384E393E00E941905FF91EF91BF913E
:10162000AF919F918F917F916F915F914F913F917A
:101630002F910F900BBE0F900FBE0F901F9018951B
:101640001F920F920FB60F9211240BB60F922F9389
:101650003F934F935F936F937F938F939F93AF933A
:10166000BF93EF93FF9381ED93E00E948D05FF916F
:10167000EF91BF91AF919F918F917F916F915F910A
:101680004F913F912F910F900BBE0F900FBE0F9077
:101690001F9018951F920F920FB60F9211240BB640
:1016A0000F922F933F934F935F936F937F938F93FB
:1016B0009F93AF93BF93EF93FF9381ED93E00E94CD
:1016C0001905FF91EF91BF91AF919F918F917F91FC
:1016D0006F915F914F913F912F910F900BBE0F90A3
:1016E0000FBE0F901F9018951F920F920FB60F927A
:1016F00011240BB60F922F933F934F935F936F93E9
:101700007F938F939F93AF93BF93EF93FF938EE657
:1017100094E00E948D05FF91EF91BF91AF919F9151
:101720008F917F916F915F914F913F912F910F908A
:101730000BBE0F900FBE0F901F9018951F920F9227
:101740000FB60F9211240BB60F922F933F934F9326
:101750005F936F937F938F939F93AF93BF93EF9319
:10176000FF938EE694E00E941905FF91EF91BF91DF
:10177000AF919F918F917F916F915F914F913F9129
:101780002F910F900BBE0F900FBE0F901F901895CA
:101790001F920F920FB60F9211240BB60F922F9338
:1017A0003F934F935F936F937F938F939F93AF93E9
:1017B000BF93EF93FF9380910C050E94E20220916A
:1017C0001005309111052F5F3F4F30931105209385
:1017D000100590910F05953618F096E090930B0543
:1017E00090910B05943009F466C0B8F49230F1F092
:1017F000933009F444C090910E05992309F46BC00D
:1018000081117CC080910D05882309F463C080910B
:101810000D0561E00E940B035EC0953009F457C0CE
:10182000963049F791E09093DC054FC08111E3CFEA
:1018300020911005309111052436310528F41092BD
:10184000110510921005D7CF1092DC0510920F05EC
:10185000E0910F0591E09E0F90930F05F0E020912D
:10186000100530911105EE0FFF1FE55FFA4F30872D
:101870002783109211051092100593E019C0813052
:1018800009F0B9CFE0910F0591E09E0F90930F05FD
:10189000F0E02091100530911105EE0FFF1FE55F7C
:1018A000FA4F30872783109211051092100594E0AB
:1018B00090930B05A0CF882359F220911005309109
:1018C00011052536310508F496CF95E0F1CF811149
:1018D00092CFB5CF2F9AFF91EF91BF91AF919F918A
:1018E0008F917F916F915F914F913F912F910F90C9
:1018F0000BBE0F900FBE0F901F90189580910D0595
:10190000882321F080910D0560E084CF2F98E3CFEC
:101910001F920F920FB60F9211240BB60F922F93B6
:101920003F934F935F936F937F938F939F93AF9367
:10193000BF93CF93DF93EF93FF9380915B02C091AE
:101940001906D0E087FF23C0109285001092840012
:1019500080915B028F5F80935B0280915B02082E17
:10196000000C990B8C179D0724F480915B028C303E
:1019700074F1809184009091850084349C4908F42E
:1019800065C08091840090918500049661C080912B
:101990005B02082E000C990B8C179D07CCF630913A
:1019A0005B0225E03203F0011124E352FA4F8081FB
:1019B00086FFCECF30915B023203F0011124E35257
:1019C000FA4F808160E08F730E940B03C1CF80913A
:1019D00084009091850030915B0225E03203F00194
:1019E0001124E352FA4F41815281840F951F909345
:1019F00089008093880030915B023203F00111244A
:101A0000E352FA4F808186FF0CC030915B023203B3
:101A1000F0011124E352FA4F808161E08F730E943C
:101A20000B03FF91EF91DF91CF91BF91AF919F9108
:101A30008F917F916F915F914F913F912F910F9077
:101A40000BBE0F900FBE0F901F90189580E49CE97D
:101A500090938900809388008FEF80935B02E1CFA1
:101A600010922B0310922A0388EE93E0A0E0B0E0DE
:101A700080932C0390932D03A0932E03B0932F03F8
:101A800023E132E030932903209328031092370397
:101A9000109236038093380390933903A0933A034E
:101AA000B0933B0325E232E03093350320933403B7
:101AB00045E351E0509341034093400344E351E038
:101AC000509343034093420340E351E05093450356
:101AD0004093440341E351E050934703409346034E
:101AE00042E351E0509349034093480346E351E0F9
:101AF00050934B0340934A0310924D0310924E03B0
:101B000010924F03109250031092D4031092D303FB
:101B10008093D5039093D603A093D703B093D803B3
:101B20003093D2032093D10345ED50E05093DE0370
:101B30004093DD0344ED50E05093E0034093DF0316
:101B400040ED50E05093E2034093E10341ED50E05B
:101B50005093E4034093E30342ED50E05093E603D7
:101B60004093E50346ED50E05093E8034093E703CC
:101B70001092EA031092EB031092EC031092ED0323
:101B80001092710410927004809372049093730405
:101B9000A0937404B093750430936F0420936E0483
:101BA00085EC90E090937B0480937A0484EC90E041
:101BB00090937D0480937C0480EC90E090937F046C
:101BC00080937E0481EC90E0909381048093800464
:101BD00082EC90E0909383048093820486EC90E002
:101BE0009093850480938404109287041092880453
:101BF0001092890410928A04809107029091080241
:101C0000A0910902B0910A02809303079093040700
:101C1000A0930507B093060780910B0290910C02E8
:101C2000A0910D02B0910E028093070790930807D0
:101C3000A0930907B0930A0784E080930B0787E01D
:101C400080930C0710920D0784EB80930E0786E1BA
:101C500080930F0788E18093100787E18093110735
:101C600089E180931207E0911906EC3008F4A9C0CD
:101C70008FEF80931307E0911906EC3008F4B2C09F
:101C80008FEF809314078CE08093E20684E28093C8
:101C9000E30686E08093E40685E08093E5068FE125
:101CA0008093E6068EE18093E70683E28093E80660
:101CB00082E28093E90685E48093EA0684E48093D7
:101CC000EB0680E48093EE061092F3061092F40681
:101CD0001092F5061092F6061092F7061092F8068A
:101CE0001092F9061092FA06E4E2F6E08FEF9FEF09
:101CF000DC011282138214821582168217821086EA
:101D0000118683879487A587B6878787908BA18B59
:101D1000B28B128611821082739626E0E23EF207A1
:101D200041F78DE090E00E94ED13FC0113821282D6
:101D300087E392E091838083118687E2848384E144
:101D4000828784E083871486F0932106E09320063F
:101D5000109222061092230685E280930C051092C1
:101D60000E0510921B0610921A0610921D06109274
:101D70001C0610921F0610921E0661E070E090E0B3
:101D800080E00E9412150097F1F190931B0680935A
:101D90001A0610921D0610921C0620911E06309104
:101DA0001F06232B11F4FC01108210921F061092C3
:101DB0001E0661E472E080911A0690911B060C9455
:101DC000FC1581E08E0F80931906E093130725E040
:101DD000E29FF0011124E352FA4F88EB9BE09283DB
:101DE000818349CF81E08E0F80931906E093140719
:101DF00085E0E89FF0011124E352FA4F88EB9BE065
:101E00009283818340CF80911A0690911B060097A0
:101E100011F00E94891410921B0610921A0610925B
:101E20001F0610921E0610921D0610921C060895A1
:101E3000789484B5826084BD84B5816084BD85B5A5
:101E4000826085BD85B5816085BD80916E008160B1
:101E500080936E0010928100809181008260809357
:101E60008100809181008160809381008091800059
:101E70008160809380008091B10084608093B10084
:101E80008091B00081608093B00080919100826069
:101E90008093910080919100816080939100809166
:101EA00090008160809390008091A1008260809377
:101EB000A1008091A10081608093A1008091A00089
:101EC00081608093A0008091210182608093210134
:101ED00080912101816080932101809120018160A6
:101EE0008093200180917A00846080937A008091B1
:101EF0007A00826080937A0080917A00816080937A
:101F00007A0080917A00806880937A001092C100F4
:101F10000E94A4010E94A40161E08091E3060E9456
:101F2000780360E08091E3060E940B0360E08091FB
:101F3000E2060E94780388E293E09093ED06809396
:101F4000EC0610928D0210928C02109205031092F2
:101F500027030E94390383EF91E09093B0028093AE
:101F6000AF0284EF91E09093B4028093B30280E0DB
:101F700090E1A0E0B0E08093EF069093F006A0938C
:101F8000F106B093F2068AE090E0A0E0B0E0809322
:101F9000F3069093F406A093F506B093F60680E05E
:101FA00090E0A0E0B0E48093F7069093F806A09349
:101FB000F906B093FA0660E070E185E00E94B5048E
:101FC0006FE979E380E00E94B50404EE16E0C2EE0A
:101FD000D6E076EEC72E76E0D72EE0E46E2EE2E075
:101FE0007E2EF6E88F2EF2E09F2EABECEA2EA7E0D5
:101FF000FA2EF801928181918F01898F9A8F61E089
:102000000E94780361E08A8D0E9478035E01FDE101
:10201000AF0EB11CF801958183818D8F9E8F61E099
:102020000E94780360E08E8D0E94780361E08D8DC0
:102030000E940B035FB6F89480916102811125C064
:10204000F3018491F4019491E82FF0E0EE0FFF1F6B
:10205000E354FE4FA591B4918C91982321F461E053
:1020600085E30E940B0361E085E30E9478038CB551
:1020700080618CBD8CB580648CBD61E084E30E947E
:10208000780361E083E30E947803809161028F5FAF
:10209000809361025FBEC7010197F1F760E08D8D0B
:1020A0000E940B0388E80E946B0783E00E946B0785
:1020B00061E08D8D0E940B03C7010197F1F7C50107
:1020C0000E9472072296CC16DD0609F092CFC7E077
:1020D000D7E003E017E05BE0E52E57E0F52E60E087
:1020E00089910E947803EC16FD06C9F7CBE0D7E092
:1020F00025E0F22E3CE0D32E42E0E42EC9908F8101
:102100008C3008F042C061E08C2D0E9478038F81F2
:10211000F89EF0011124E352FA4F2C2D2F73908179
:10212000907C922B9083138214826D2D0E94311328
:102130008D9DA001112430E020E0BA01620F731FD1
:10214000F69EF001F79EF00D1124E352FA4F9081B4
:1021500096FD12C02F5F3F4F2C30310571F7811172
:102160000BC010928000E0928100109285001092C6
:102170008400E6BAE0926F00EF81FE9EF001112428
:10218000E352FA4F8081806480839D818B81F801C6
:10219000828B938B60E00E94780361E0F801838971
:1021A0000E94780360E0F80183890E940B030E5FB0
:1021B0001F4FF7E007301F0709F0A0CFF8941092E7
:1021C000200189E08093210180E293E0909329012E
:1021D00080932801109225011092240182E08093BF
:1021E0007300789480930B0510920F0580910C0575
:1021F00060E00E94780390E8C92E9CE0D92EE12C83
:10220000F12CC1E08DE10E94E202892B11F01092C5
:1022100062028CE10E94E202892B69F08FEF96E066
:102220000E94720781E097E00E947207C0936202E9
:102230000E941F06E7CF80916202882309F4A0C0A4
:102240008FEF96E00E949D0761157105810591054C
:10225000E9F090958095709561957F4F8F4F9F4FD6
:10226000A70196010E94F012CA01B9010E94D31180
:1022700021EF32E84FEB51E40E94321220E030E0CF
:1022800040EC51E40E94CC1187FF4BC08FEF96E0E9
:102290000E949D07762E872E8C0181E097E00E9498
:1022A0009D07962EA72EB82ED92F40E050E0BA01F8
:1022B0008BEF96E00E944406872D982DD801B7FF3A
:1022C00007C0B095A095909581959F4FAF4FBF4F98
:1022D000092D1A2D2B2D3D2F37FF07C03095209546
:1022E000109501951F4F2F4F3F4FBC01CD01601B33
:1022F000710B820B930B0E94D31126E933E44BE060
:102300005CE30E9432122DEC3CEC4CE45EE30E9454
:102310004613AB01BC0170588DEF96E00E94440655
:1023200087CF0E9453088FEF96E00E94720781E0EA
:1023300097E00E9472070E94A9032B013C0182E3EF
:10234000882E912CA12CB12C0E94A9036419750927
:1023500086099709683E734081059105A8F321E03D
:10236000821A9108A108B10888EE480E83E0581E31
:10237000611C711C81149104A104B10429F758CF88
:102380000E94530855CF80911A0690911B06009722
:1023900011F00C94891408950E940E1208F481E043
:1023A0000895E89409C097FB3EF490958095709548
:1023B00061957F4F8F4F9F4F9923A9F0F92F96E991
:1023C000BB279395F695879577956795B795F11106
:1023D000F8CFFAF4BB0F11F460FF1BC06F5F7F4FA3
:1023E0008F4F9F4F16C0882311F096E911C07723B5
:1023F00021F09EE8872F762F05C0662371F096E8BE
:10240000862F70E060E02AF09A95660F771F881F8C
:10241000DAF7880F9695879597F90895990F000830
:10242000550FAA0BE0E8FEEF16161706E807F907A6
:10243000C0F012161306E407F50798F0621B730B41
:10244000840B950B39F40A2661F0232B242B252BC2
:1024500021F408950A2609F4A140A6958FEF811D65
:10246000811D08950E9445120C94B6120E94A81274
:1024700038F00E94AF1220F0952311F00C949F12B7
:102480000C94A51211240C94EA120E94C71270F346
:10249000959FC1F3950F50E0551F629FF001729F09
:1024A000BB27F00DB11D639FAA27F00DB11DAA1F18
:1024B000649F6627B00DA11D661F829F2227B00D65
:1024C000A11D621F739FB00DA11D621F839FA00DF0
:1024D000611D221F749F3327A00D611D231F849F40
:1024E000600D211D822F762F6A2F11249F57504097
:1024F0009AF0F1F088234AF0EE0FFF1FBB1F661F12
:10250000771F881F91505040A9F79E3F510580F0DA
:102510000C949F120C94EA125F3FE4F3983ED4F3BC
:10252000869577956795B795F795E7959F5FC1F77E
:10253000FE2B880F911D9695879597F9089597F929
:102540009F6780E870E060E008959FEF80EC089559
:1025500000240A9416161706180609060895002482
:102560000A9412161306140605060895092E0394FC
:10257000000C11F4882352F0BB0F40F4BF2B11F470
:1025800060FF04C06F5F7F4F8F4F9F4F089557FDCF
:102590009058440F551F59F05F3F71F04795880FD1
:1025A00097FB991F61F09F3F79F087950895121668
:1025B00013061406551FF2CF4695F1DF08C0161614
:1025C00017061806991FF1CF8695710561050894C5
:1025D0000895E894BB2766277727CB0197F90895DC
:1025E000052E97FB1EF400940E94071357FD07D099
:1025F0000E940F1307FC03D04EF40C940713509560
:102600004095309521953F4F4F4F5F4F08959095DE
:102610008095709561957F4F8F4F9F4F0895A1E2F0
:102620001A2EAA1BBB1BFD010DC0AA1FBB1FEE1F4C
:10263000FF1FA217B307E407F50720F0A21BB30B97
:10264000E40BF50B661F771F881F991F1A9469F713
:1026500060957095809590959B01AC01BD01CF016F
:102660000895991B79E004C0991F961708F0961BEE
:10267000881F7A95C9F780950895EE0FFF1F881F70
:102680008BBF0790F691E02D19945058BB27AA27CD
:102690000E945D130C94B6120E94A81238F00E949A
:1026A000AF1220F039F49F3F19F426F40C94A512D0
:1026B0000EF4E095E7FB0C949F12E92F0E94C712DD
:1026C00058F3BA17620773078407950720F079F467
:1026D000A6F50C94E9120EF4E0950B2EBA2FA02D5E
:1026E0000B01B90190010C01CA01A0011124FF27BF
:1026F000591B99F0593F50F4503E68F11A16F040BA
:10270000A22F232F342F4427585FF3CF46953795B8
:102710002795A795F0405395C9F77EF41F16BA0B7D
:10272000620B730B840BBAF09150A1F0FF0FBB1F2B
:10273000661F771F881FC2F70EC0BA0F621F731F74
:10274000841F48F4879577956795B795F7959E3FD1
:1027500008F0B0CF9395880F08F09927EE0F979562
:10276000879508950E94B9136894B1110C94EA12E8
:1027700008950E94CF1288F09F5798F0B92F99279B
:10278000B751B0F0E1F0660F771F881F991F1AF05C
:10279000BA95C9F714C0B13091F00E94E912B1E0C6
:1027A00008950C94E912672F782F8827B85F39F0C5
:1027B000B93FCCF3869577956795B395D9F73EF4F5
:1027C00090958095709561957F4F8F4F9F4F08959D
:1027D0000E940E1208F48FEF08950F931F93CF936A
:1027E000DF938230910510F482E090E0E0911B07C6
:1027F000F0911C0730E020E0B0E0A0E0309799F4C1
:102800002115310509F44AC0281B390B2430310544
:10281000D8F58A819B816115710589F1FB0193834C
:102820008283FE0111C040815181028113814817CA
:102830005907E0F04817590799F4109761F012967C
:102840000C93129713961C933296CF01DF91CF9180
:102850001F910F91089500931B0710931C07F4CF4D
:102860002115310551F04217530738F0A901DB015A
:102870009A01BD01DF01F801C1CFEF01F9CF9093BB
:102880001C0780931B07CDCFFE01E20FF31F81933E
:1028900091932250310939832883D7CF209119078A
:1028A00030911A07232B41F4209103023091040246
:1028B00030931A07209319072091010230910202E8
:1028C0002115310541F42DB73EB7409105025091D5
:1028D0000602241B350BE0911907F0911A07E21745
:1028E000F307A0F42E1B3F0B2817390778F0AC0133
:1028F0004E5F5F4F2417350748F04E0F5F1F509310
:102900001A0740931907819391939FCFF0E0E0E07D
:102910009CCFCF93DF930097E9F0FC0132971382AD
:102920001282A0911B07B0911C07ED0130E020E05E
:102930001097A1F420813181820F931F20911907F4
:1029400030911A072817390709F061C0F0931A0768
:10295000E0931907DF91CF910895EA01CE17DF07C1
:10296000E8F54A815B819E0141155105B1F7E90106
:10297000FB83EA8349915991C40FD51FEC17FD07DA
:1029800061F4808191810296840F951FE9019983FA
:102990008883828193819B838A83F0E0E0E01296B2
:1029A0008D919C9113970097B9F52D913C911197BA
:1029B000CD010296820F931F2091190730911A07BB
:1029C0002817390739F6309751F510921C071092E5
:1029D0001B07B0931A07A0931907BCCFD383C283F8
:1029E00040815181840F951FC817D90761F44E5F4C
:1029F0005F4F88819981480F591F518340838A8195
:102A00009B81938382832115310509F0B0CFF09328
:102A10001C07E0931B079ECFFD01DC01C0CF138292
:102A20001282D7CF4F925F926F927F928F929F9236
:102A3000AF92BF92CF92DF92EF92FF920F931F93CC
:102A4000CF93DF938C01009799F4CB01DF91CF9165
:102A50001F910F91FF90EF90DF90CF90BF90AF90BC
:102A60009F908F907F906F905F904F900C94ED139C
:102A7000FC01E60FF71F9C0122503109E217F30712
:102A800008F4AEC0D901CD91DC911197C617D707D4
:102A900020F1C530D10578F0CE010497861797074D
:102AA00050F0C61BD70B2297C193D1936D937C93A3
:102AB000CF010E948914C801DF91CF911F910F911E
:102AC000FF90EF90DF90CF90BF90AF909F908F904E
:102AD0007F906F905F904F9008955B01AC1ABD0A94
:102AE0004C018C0E9D1EA0911B07B0911C07512C10
:102AF000412CF12CE12C109731F580911907909120
:102B00001A078815990509F05CC04616570608F0A3
:102B100058C08091010290910202009741F48DB754
:102B20009EB74091050250910602841B950BE81751
:102B3000F90708F055C0F0931A07E0931907F90157
:102B400071836083B8CF8D919C91119712966C9090
:102B5000129713967C901397A815B90559F56C0137
:102B600042E0C40ED11CCA14DB0420F1AC014A19A6
:102B70005B09DA011296159780F0628273825183A5
:102B80004083D9016D937C93E114F10471F0D70176
:102B90001396FC93EE9312978ECF22968C0F9D1F67
:102BA000F90191838083F301EFCFF0931C07E09349
:102BB0001B0781CF4816590608F42C017D01D3016B
:102BC0009ACFCB010E94ED137C01009749F0AE0132
:102BD000B8010E94F315C8010E94891487016BCFC8
:102BE00010E000E068CFFB01DC0102C001900D9213
:102BF00041505040D8F70895FB01DC0101900D923F
:102C00000020E1F7089511E0C0E7D1E000E006C040
:102C1000802FFE010E943D132196011DC137D1076F
:0A2C200080E00807A9F7F894FFCF41
:102C2A00FF00001D078000363738391B1D1A1C00AB
:102C3A000000004C021F021708F50118020502F6EF
:102C4A000100000000AF05EC043205FC05630541F4
:102C5A00055505000000002F08EC04170816080D9A
:022C6A000A005E
:00000001FF
