:100000000C9471010C94A2010C94A2010C94A20115
:100010000C94A2010C94A2010C94A2010C94A201D4
:100020000C94A2010C9444080C9444080C944408C9
:100030000C94A2010C94BC090C94A2010C94A20192
:100040000C94A2010C94360C0C94A2010C94A20105
:100050000C94A2010C94A2010C94A2010C947209BC
:100060000C94A2010C942B0B0C94010B0C94A20188
:100070000C94A2010C94A2010C94A2010C94A20174
:100080000C94A2010C94A2010C94A2010C94A20164
:100090000C94A2010C94A2010C94A2010C944E08A1
:1000A0000C94A2010C94A2010C94A2010C94A20144
:1000B0000C94A2010C94A2010C94A2010C94550B77
:1000C0000C94A2010C94A2010C94A2010C94D70AE6
:1000D0000C94AD0A0C94A2010C94830A0C94590A56
:1000E0000C94A2010C9405020C94D9020C942C05DA
:1000F0000C94AE020C9418050C94FC060C941F078B
:100100000C94DE020C949F110C940B070C949A062D
:100110000C94A7020C94D6060C9409050C94860541
:100120000C944C020C94F3010C9433070C94F206DB
:100130000C94F4010C94D3050C941F020C943A0512
:100140000C94BA060C9429070C94B8020C94D402AF
:100150000C94C2070C94F5010C94B4020C9415078E
:100160000C94CE060C94BE020C94DB070C94CC02CB
:100170000C94AB060C94E8060C9418020C94DE0C5C
:100180000C949F020C94DE060C9499020C94AB0222
:100190000C943D070C94C3070C94A3020C94C20268
:1001A0000C94D0020C94F6010C94B0060C94C40686
:1001B0000C94C3040C94DA020C94C60200002000D4
:1001C0002300260029002C002F003200000100002F
:1001D0000301060109010200002100240027002A72
:1001E000002D003000330001010000040107010A66
:1001F0000100002200250028002B002E00310034D1
:100200000002010000050108010B010505050507B5
:100210000508080808020202020A0A080804040481
:1002200004010101010101010103030303030303AD
:1002300003040707070C0C0C0C0C0C0C0C0202023C
:100240000206060606060606060B0B0B0B0B0B0B2F
:100250000B010210202008081020401020408002CE
:1002600001020108040201010204081020408080FC
:100270004020100804020180040201804020100880
:100280000402010804020101020408102040800158
:100290000204081020408000000A0B02090C0D0E19
:1002A0000807030401000000000000000000000037
:1002B000000000000000000000000000000000003E
:1002C00000000012111000000000000000000000FB
:1002D0000000000000000000000000000000DE0C34
:1002E0009F1111241FBECFEFD1E2DEBFCDBF00E0D2
:1002F0000CBF12E0A0E0B2E0E2E0F1E300E00BBFEF
:1003000002C007900D92A436B107D9F727E0A4E602
:10031000B2E001C01D92AE33B207E1F711E0C0E7D1
:10032000D1E000E006C021970109802FFE010E9464
:10033000D312CF36D10780E00807A9F70E94C60E76
:100340000C946F180C940000EFE8F4E0A089B189D8
:1003500082E08C93A485B5851C92A685B7858FEC29
:100360008C93108EA489B58986E08C93A289B38979
:100370008C9180618C93A289B3898C9188608C93D5
:10038000A289B3898C9180688C930288F389E02DCF
:1003900080818F7D808308952091D202260F33279C
:1003A000331F21323105ECF420911F03FC0190E052
:1003B00080E0243069F082E00895A091D20221917A
:1003C000AC0140555D4FA40FB52FB11D2C93019684
:1003D000861798F38091D202680F6093D20280E072
:1003E000089581E00895089508950895E091AE027A
:1003F0008091AD02E81730F4F0E0E357FD4F8081C3
:1004000090E008958FEF9FEF08959091AE02809154
:10041000AD022FEF3FEF981748F4E92FF0E0E357D4
:10042000FD4F208130E09F5F9093AE02C901089597
:100430008091AD029091AE02891B990B0895CF92E5
:10044000DF92EF92FF920F931F93CF93DF937C0184
:10045000CB018A0120912503222389F0EB016B0156
:10046000C40ED51ECC15DD0569F06991D701ED915B
:10047000FC910190F081E02DC7011995F3CF642F15
:100480000E94CC01C801DF91CF911F910F91FF9085
:10049000EF90DF90CF900895CF93DF931F92CDB769
:1004A000DEB76983209125032223F9F020914803C8
:1004B000203258F021E030E0FC013383228390E0C9
:1004C00080E00F90DF91CF91089580912603E82F6F
:1004D000F0E0E95DFC4F998190838F5F8093260364
:1004E0008093480381E090E0ECCF61E0CE0101967B
:1004F0000E94CC01F7CF8150823108F05AC0E82F1A
:10050000F0E08827E957FD4F8F4F0C94D312A702D4
:10051000AB0299029F02A302D902AE02B402B80252
:10052000BE02C202C602CC02D002D902D402DA0252
:10053000DE02809180008F77809380000895809103
:1005400080008F7DF9CF80918000877FF5CF84B5C3
:100550008F7784BD089584B58F7DFBCF8091B000E7
:100560008F778093B00008958091B0008F7DF9CF90
:10057000809190008F7780939000089580919000F3
:100580008F7DF9CF80919000877FF5CF8091A0007B
:100590008F778093A00008958091A0008F7DF9CF80
:1005A0008091A000877FF5CF809120018F77809385
:1005B00020010895809120018F7DF9CF8091200145
:1005C000877FF5CF1F93CF93DF93282F30E0F9017A
:1005D000E956FD4F8491F901EF5AFD4FD491F9018D
:1005E000E55FFD4FC491CC23A9F0162F81110E9425
:1005F0007B02EC2FF0E0EE0FFF1FEF50FE4FA591B6
:10060000B4918FB7F894EC91111108C0D095DE2306
:10061000DC938FBFDF91CF911F910895DE2BF8CF30
:1006200010921F0381E080931E031092F90261E093
:1006300084E10E94E20261E085E10E94E202E9EBCE
:10064000F0E080818E7F808380818D7F808388E44D
:100650008093B80085E48093BC000895CF93DF9326
:1006600091E09093AF028823B9F0C091B800D09187
:10067000BA008091BC008A7B8093BC0060E084E17A
:100680000E94E20260E085E10E94E2020E94100303
:10069000D093BA00C093B800DF91CF910895CF9363
:1006A000DF9390E0FC01EF5AFD4F2491855F9D4F51
:1006B000FC0184918823D1F090E0880F991FFC0100
:1006C000E952FE4FA591B491FC01EF50FE4FC59148
:1006D000D49161110EC09FB7F8948C91E22FE095F0
:1006E0008E238C932881E223E8839FBFDF91CF91F3
:1006F00008958FB7F894EC91E22BEC938FBFF6CF6F
:100700003FB7F8948091890290918A02A0918B0260
:10071000B0918C0226B5A89B05C02F3F19F0019619
:10072000A11DB11D3FBFBA2FA92F982F8827BC014B
:10073000CD01620F711D811D911D42E0660F771F73
:10074000881F991F4A95D1F70895CF92DF92EF92B3
:10075000FF920F931F93CF93DF93D091480381E0D3
:10076000D13208F09CC0C09147030E9480036B0106
:100770007C0180911F0381116CC082E080931F0374
:1007800081E080931E038FEF80931D0310921C0362
:10079000D0931B03A7E2B3E0EBEFF2E080E0D813C5
:1007A0008DC01092FA028091FA02CC0FC82BC09330
:1007B000FA028091F902813009F084C01092F902A6
:1007C0000E9480036B017C018091FA028093BB0040
:1007D0008091210390912203A0912303B0912403DF
:1007E000892B8A2B8B2BA1F00E948003009121037F
:1007F0001091220320912303309124036C197D0969
:100800008E099F09061717072807390708F442C001
:100810008091BC0083FDD8CF85EC8093BC000E9402
:1008200080036B017C0180911F03823009F44CC06E
:1008300080911D038F3F09F469C080911D038032B0
:1008400009F466C080911D03803309F463C084E01D
:1008500026C08091210390912203A0912303B0919F
:100860002403892B8A2B8B2B09F483CF0E948003CE
:10087000009121031091220320912303309124033E
:100880006C197D098E099F09061717072807390774
:1008900008F06FCF809120030E942E0385E0109214
:1008A00026031092480310922503DF91CF911F91E8
:1008B0000F91FF90EF90DF90CF9008959D919193CD
:1008C0008F5F6DCF85EEA9CF809121039091220398
:1008D000A0912303B0912403892B8A2B8B2B09F43D
:1008E000A2CF0E9480030091210310912203209146
:1008F0002303309124036C197D098E099F09061783
:1009000017072807390708F08ECFC4CF80E0C7CF7C
:1009100082E0C5CF83E0C3CF0F931F93CF93DF93C4
:10092000162F072FC3E0D7E0AA85BB859C8521E061
:1009300020932503909347031092260310924803B7
:10094000ED91FC9111970190F081E02D682FCD0180
:1009500019958A859B85DC01ED91FC910190F081D0
:10096000E02D602F19958A859B85DC01ED91FC9126
:100970000190F081E02D612F1995DF91CF911F91AA
:100980000F910C94A503AF92BF92CF92DF92EF929A
:10099000FF920F931F93CF93DF936C017B018B0129
:1009A000040F151FEB015E01AE18BF08C017D10779
:1009B00059F06991D601ED91FC910190F081E02D03
:1009C000C6011995892B79F7C501DF91CF911F9148
:1009D0000F91FF90EF90DF90CF90BF90AF90089570
:1009E000FC01A089B1898C91A689B78982FD0FC0CD
:1009F0009C91818D8F5F8F73228D821749F0A18D1D
:100A0000AE0FBF2FB11D5D969C93818F08958C9181
:100A10000895FC01538D448D252F30E0842F90E004
:100A2000821B930B541710F0CF96089501970895E9
:100A3000FC01918D828D981761F0A28DAE0FBF2FB2
:100A4000B11D5D968C91928D9F5F9F73928F90E008
:100A500008958FEF9FEF0895FC01918D828D981777
:100A600031F0828DE80FF11D858D90E008958FEFB4
:100A70009FEF0895FC01918D228D892F90E0805C7D
:100A80009F4F821B91098F739927089585E593E005
:100A90000E943A0521E0892B09F420E0822F089575
:100AA00082EF93E00E943A0521E0892B09F420E0CF
:100AB000822F08958FE894E00E943A0521E0892B67
:100AC00009F420E0822F0895FC01A48DA80FB92F0E
:100AD000B11DA35ABF4F2C91848D90E001968F7366
:100AE0009927848FA689B7892C93A089B1898C9185
:100AF000837080648C93938D848D981306C00288D4
:100B0000F389E02D80818F7D80830895EF92FF929D
:100B10000F931F93CF93DF93EC0181E0888F9B8D20
:100B20008C8D98131AC0E889F989808185FF15C0DA
:100B30009FB7F894EE89FF896083E889F9898081FD
:100B40008370806480839FBF81E090E0DF91CF91CC
:100B50001F910F91FF90EF900895F62E0B8D10E0EE
:100B60000F5F1F4F0F731127E02E8C8D8E110CC05D
:100B70000FB607FCFACFE889F989808185FFF5CFA8
:100B8000CE010E946405F1CFEB8DEC0FFD2FF11D1E
:100B9000E35AFF4FF0829FB7F8940B8FEA89FB89E5
:100BA00080818062CFCFCF93DF93EC01888D882343
:100BB000B9F0AA89BB89E889F9898C9185FD03C0C0
:100BC000808186FD0DC00FB607FCF7CF8C9185FFA5
:100BD000F2CF808185FFEDCFCE010E946405E9CF81
:100BE000DF91CF910895F0E0E0E0199480E090E08B
:100BF000892B29F00E945A0581110E94000080E093
:100C000090E0892B49F080E090E0892B29F00E9448
:100C1000000081110E9400000E94500581110E9475
:100C2000F30580E090E0892B29F00E9446058111B0
:100C30000C94000008958F929F92AF92BF92CF9232
:100C4000DF92EF92FF920F931F93CF93DF93EC010C
:100C50006A017B0120E030E04FE753E4CB01B601AD
:100C60000E9409124B015C0120E030E0A9010E94C2
:100C70007E1318168CF5C501B4010E9448138B0130
:100C8000B98020E030E0A901C701B6010E947E13BF
:100C900060E018160CF061E08B2D0E94E2020F3F1D
:100CA000110509F0ECF41127C88161E08C2F0E9436
:100CB0004F0301151105B9F460E08C2FDF91CF913E
:100CC0001F910F91FF90EF90DF90CF90BF90AF906A
:100CD0009F908F900C94E202C501B4019058CDCF43
:100CE0000FEF10E0E1CF0F3F110511F461E0E5CF08
:100CF000EC2FF0E0E956FD4FE491E150E23108F0CD
:100D0000BCC0F0E08827E857F94F8F4F0C94D312FE
:100D10009A06AB06B006BA06C4063D07CE06D6064E
:100D2000DE06E806F206FC060B0715073D071F075F
:100D30002907330784B5806884BD07BDDF91CF9153
:100D40001F910F91FF90EF90DF90CF90BF90AF90E9
:100D50009F908F90089584B5806284BD08BDEECFCA
:100D600080918000806880938000109389000093B8
:100D70008800E4CF8091800080628093800010938F
:100D80008B0000938A00DACF809180008860809386
:100D9000800010938D0000938C00D0CF8091B00024
:100DA00080688093B0000093B300C8CF8091B000FA
:100DB00080628093B0000093B400C0CF8091900017
:100DC0008068809390001093990000939800B6CFAC
:100DD0008091900080628093900010939B0000931C
:100DE0009A00ACCF8091900088608093900010931F
:100DF0009D0000939C00A2CF8091A000806880930A
:100E0000A0008091A0008F7B8093A0001093A90088
:100E10000093A80093CF8091A00080628093A000EF
:100E20001093AB000093AA0089CF8091A000886046
:100E30008093A0001093AD000093AC007FCF809111
:100E400020018068809320011093290100932801DC
:100E500075CF8091200180628093200110932B0137
:100E600000932A016BCF809120018860809320013C
:100E700010932D0100932C0161CF003811050CF067
:100E800035CF1ACF8EBD00000DB407FEFDCF8EB555
:100E90000895AF92BF92CF92DF92EF92FF920F939D
:100EA0001F93CF93DF93CDB7DEB760970FB6F8945B
:100EB000DEBF0FBECDBF6C0160E0FC0180810E94EF
:100EC000E20280E60E9442079E012F5F3F4F7901B8
:100ED0005E0131E1A30EB11C870180E00E94420750
:100EE00090E0B0E0A0E0F80181939193A193B193D9
:100EF0008F01EA15FB0589F761E0F60180810E9408
:100F0000E20280E090E0DC01F701419151916191B2
:100F100071917F01BA2FA92F982F8827840F951FD1
:100F2000A61FB71FE017F10779F79C01AD016627EF
:100F30007727CB01621B730B840B950B60960FB662
:100F4000F894DEBF0FBECDBFDF91CF911F910F91FF
:100F5000FF90EF90DF90CF90BF90AF900895FC018D
:100F6000248131E030932503209347031092260318
:100F7000109248038485682B89E493E00E944C0218
:100F80000C94A503089590E080E008950F931F93BB
:100F9000CF938C01C62F64600E94AF076C2F6B7FCC
:100FA000C8010E94AF0783EC90E00197F1F7CF9161
:100FB0001F910F9108950F931F93CF93DF938C018F
:100FC000C62FD62FD07FD1606D2F0E94AF076D2F17
:100FD000C8010E94C60780E1C89FE0011124C160DA
:100FE0006C2FC8010E94AF076C2FC8010E94C60772
:100FF00081E090E0DF91CF911F910F910895FC0166
:1010000001900020E9F73197AF01481B590BBC0153
:101010008FE894E00C94C30485ED8093BC0080912C
:10102000210390912203A0912303B09124030796FA
:10103000A11DB11D23E0B695A795979587952A9593
:10104000D1F72091BC0024FD03C010921F03089526
:101050004091210350912203609123037091240356
:10106000452B462B472B69F30097A105B10541F0AD
:1010700025E32A95F1F700000197A109B109E1CF15
:10108000809120030C942E031F920F920FB60F92A3
:1010900011240F900FBE0F901F9018951F920F9262
:1010A0000FB60F9211240BB60F922F933F934F93CD
:1010B0005F936F937F938F939F93AF93BF93EF93C0
:1010C000FF938091B900887F803609F44DC008F005
:1010D00040C0883209F4A9C028F5803109F49DC0C8
:1010E000C8F4882309F4FBC0883009F496C0FF9146
:1010F000EF91BF91AF919F918F917F916F915F9190
:101100004F913F912F910F900BBE0F900FBE0F90FC
:101110001F901895883109F488C0803241F7809378
:101120001D0314C0803409F49DC040F48033B9F32A
:101130008833E9F680931D0385ECB0C0803509F44F
:1011400085C0883509F496C0883489F60E940C0859
:10115000CECF883909F48CC038F5883729F050F49F
:10116000883611F0803719F683E080931F031092C0
:10117000F60257C0883809F47BC0803919F08038EE
:1011800009F0B5CF8091F602803208F071C0E0918D
:10119000F60281E08E0F8093F6028091BB00F0E0B2
:1011A000EA52FD4F80833DC0803B39F0E0F4803A45
:1011B00009F479C0883A09F09ACF84E080931F033C
:1011C0001092D3021092D202E091D002F091D1029B
:1011D00019958091D20281110FC081E08093D202D3
:1011E0001092B00209C0803C09F4A6CF883C09F4F3
:1011F000A3CF883B09F07BCFE091D30281E08E0F33
:101200008093D302F0E0E055FD4F80818093BB00D6
:101210009091D3028091D20229C08091FA028093EA
:10122000BB0085EC8093BC0062CF90911C03809141
:101230001B03981758F5E0911C0381E08E0F8093F3
:101240001C03F0E0E550FD4F8081E9CFE0911C03E5
:1012500081E08E0F80931C038091BB00F0E0E5508D
:10126000FD4F808390911C0380911B039817C8F257
:1012700085E8D8CFE0911C0381E08E0F80931C039A
:101280008091BB00F0E0E550FD4F808380911E030C
:1012900081115CCF81E08093F90284EA8093BC00E5
:1012A00010921F0324CF85EC8093BC0010921F0383
:1012B0008091F602803230F4E091F602F0E0EA52DA
:1012C000FD4F10826091F60270E0E091D402F0913F
:1012D000D50286ED92E019951092F60208CF109291
:1012E0001D0334CF1F920F920FB60F9211242F932C
:1012F0003F938F939F93AF93BF938091850290917B
:101300008602A0918702B09188023091840223E086
:10131000230F2D3758F50196A11DB11D209384028E
:101320008093850290938602A0938702B0938802EF
:101330008091890290918A02A0918B02B0918C02D7
:101340000196A11DB11D8093890290938A02A093FA
:101350008B02B0938C02BF91AF919F918F913F917F
:101360002F910F900FBE0F901F90189526E8230F16
:101370000296A11DB11DD2CF1F920F920FB60F92F0
:1013800011240BB60F922F933F934F935F936F935C
:101390007F938F939F93AF93BF93EF93FF9380912E
:1013A0007F0290918002A0918102B0918202892BEC
:1013B0008A2B8B2BD1F190917E028091000089279E
:1013C0008093000080917F0290918002A091810221
:1013D000B0918202181619061A061B069CF4809119
:1013E0007F0290918002A0918102B09182020197C8
:1013F000A109B10980937F0290938002A09381029A
:10140000B0938202FF91EF91BF91AF919F918F9125
:101410007F916F915F914F913F912F910F900BBEF4
:101420000F900FBE0F901F90189580910002E6ED6F
:10143000F1E0E4919FEF90930002E230E9F040F494
:10144000EE2389F0E13091F060E00E94E202DACF11
:10145000E43049F110F1E530B9F7909173009D7FC8
:1014600090937300F1CF10926E00EECF90916F00C9
:101470009D7F90936F00E8CF909170009D7F909337
:10148000700091E09093B0009091B100987F9460CB
:101490009093B1001092B300D7CF909171009D7FCF
:1014A00090937100D1CF909172009D7F90937200C4
:1014B000CBCF1F920F920FB60F9211240BB60F9243
:1014C0002F933F934F935F936F937F938F939F934C
:1014D000AF93BF93EF93FF9385E593E00E9464057C
:1014E000FF91EF91BF91AF919F918F917F916F91FC
:1014F0005F914F913F912F910F900BBE0F900FBEB8
:101500000F901F9018951F920F920FB60F921124F3
:101510000BB60F922F933F934F935F936F937F93ED
:101520008F939F93AF93BF93EF93FF9385E593E0E2
:101530000E94F004FF91EF91BF91AF919F918F9125
:101540007F916F915F914F913F912F910F900BBEC3
:101550000F900FBE0F901F9018951F920F920FB60D
:101560000F9211240BB60F922F933F934F935F93DB
:101570006F937F938F939F93AF93BF93EF93FF935B
:1015800082EF93E00E946405FF91EF91BF91AF91CC
:101590009F918F917F916F915F914F913F912F918B
:1015A0000F900BBE0F900FBE0F901F9018951F92BB
:1015B0000F920FB60F9211240BB60F922F933F93F9
:1015C0004F935F936F937F938F939F93AF93BF934B
:1015D000EF93FF9382EF93E00E94F004FF91EF916D
:1015E000BF91AF919F918F917F916F915F914F913B
:1015F0003F912F910F900BBE0F900FBE0F901F9039
:1016000018951F920F920FB60F9211240BB60F92DE
:101610002F933F934F935F936F937F938F939F93FA
:10162000AF93BF93EF93FF938FE894E00E9464051C
:10163000FF91EF91BF91AF919F918F917F916F91AA
:101640005F914F913F912F910F900BBE0F900FBE66
:101650000F901F9018951F920F920FB60F921124A2
:101660000BB60F922F933F934F935F936F937F939C
:101670008F939F93AF93BF93EF93FF938FE894E083
:101680000E94F004FF91EF91BF91AF919F918F91D4
:101690007F916F915F914F913F912F910F900BBE72
:1016A0000F900FBE0F901F9018951F920F920FB6BC
:1016B0000F9211240BB60F922F933F934F935F938A
:1016C0006F937F938F939F93AF93BF93CF93DF934A
:1016D000EF93FF9320912D0530E0F901E956FD4F7E
:1016E0008491F901EF5AFD4FD491F901E55FFD4F67
:1016F000C491CC2379F081110E947B02EC2FF0E0A1
:10170000EE0FFF1FE454FE4FA591B491EC91ED2331
:1017100081E009F480E020913105309132052F5F9E
:101720003F4F309332052093310590913005953627
:1017300018F096E090932C0590912C05943009F4C4
:1017400066C0B8F49230F1F0933009F444C090913F
:101750002F05992309F46BC081117EC080912E055D
:10176000882309F463C080912E0561E00E94E202A3
:101770005EC0953009F457C0963049F791E09093D8
:10178000FD054FC08111E3CF209131053091320525
:101790002436310528F41092320510923105D7CF46
:1017A0001092FD0510923005E091300591E09E0FFA
:1017B00090933005F0E02091310530913205EE0F25
:1017C000FF1FE45DFA4F3087278310923205109295
:1017D000310593E019C0813009F0B9CFE0913005AF
:1017E00091E09E0F90933005F0E02091310530910B
:1017F0003205EE0FFF1FE45DFA4F3087278310920A
:1018000032051092310594E090932C05A0CF8823E7
:1018100059F220913105309132052536310508F411
:1018200096CF95E0F1CF811192CFB5CF2F9AFF914E
:10183000EF91DF91CF91BF91AF919F918F917F9168
:101840006F915F914F913F912F910F900BBE0F9031
:101850000FBE0F901F90189580912E05882321F0C0
:1018600080912E0560E082CF2F98E1CF1F920F92DA
:101870000FB60F9211240BB60F922F933F934F93F5
:101880005F936F937F938F939F93AF93BF93CF9308
:10189000DF93EF93FF9380917D02C0913A06D0E0F1
:1018A00087FF23C0109285001092840080917D02F2
:1018B0008F5F80937D0280917D02082E000C990B32
:1018C0008C179D0724F480917D028C3074F18091F7
:1018D00084009091850084349C4908F465C080910F
:1018E000840090918500049661C080917D02082E4D
:1018F000000C990B8C179D07CCF630917D0225E0EA
:101900003203F0011124E250FA4F808186FFCECFDE
:1019100030917D023203F0011124E250FA4F8081B0
:1019200060E08F730E94E202C1CF809184009091A9
:10193000850030917D0225E03203F0011124E25050
:10194000FA4F41815281840F951F909389008093B3
:10195000880030917D023203F0011124E250FA4FE9
:10196000808186FF0CC030917D023203F00111248A
:10197000E250FA4F808161E08F730E94E202FF9192
:10198000EF91DF91CF91BF91AF919F918F917F9117
:101990006F915F914F913F912F910F900BBE0F90E0
:1019A0000FBE0F901F90189580E49CE990938900DA
:1019B000809388008FEF80937D02E1CF10924C03DB
:1019C00010924B0388EE93E0A0E0B0E080934D03CB
:1019D00090934E03A0934F03B093500324E132E061
:1019E00030934A03209349031092580310925703EF
:1019F0008093590390935A03A0935B03B0935C03C5
:101A000026E232E0309356032093550345E351E03C
:101A1000509362034093610344E351E050936403A5
:101A20004093630340E351E05093660340936503A2
:101A300041E351E0509368034093670342E351E070
:101A400050936A034093690346E351E050936C035B
:101A500040936B0310926E0310926F031092700309
:101A6000109271031092F5031092F4038093F60321
:101A70009093F703A093F803B093F9033093F30323
:101A80002093F20345ED50E05093FF034093FE0393
:101A900044ED50E0509301044093000440ED50E0C9
:101AA000509303044093020441ED50E05093050429
:101AB0004093040442ED50E0509307044093060421
:101AC00046ED50E0509309044093080410920B0433
:101AD00010920C0410920D0410920E0410929204B5
:101AE000109291048093930490939404A09395048E
:101AF000B09396043093900420938F0485EC90E08B
:101B000090939C0480939B0484EC90E090939E04BB
:101B100080939D0480EC90E09093A00480939F04B8
:101B200081EC90E09093A2048093A10482EC90E079
:101B30009093A4048093A30486EC90E09093A60471
:101B40008093A5041092A8041092A9041092AA04EC
:101B50001092AB048091080290910902A0910A02B0
:101B6000B0910B028093240790932507A09326073A
:101B7000B093270780910C0290910D02A0910E0264
:101B8000B0910F028093280790932907A0932A070A
:101B9000B0932B0784E080932C0787E080932D0778
:101BA00010922E0784EB80932F0786E180933007F5
:101BB00088E18093310787E18093320789E1809340
:101BC0003307E0913A06EC3008F4A9C08FEF809318
:101BD0003407E0913A06EC3008F4B2C08FEF8093FE
:101BE00035078CE08093030784E28093040786E046
:101BF0008093050785E0809306078FE180930707B0
:101C00008EE18093080783E28093090782E2809344
:101C10000A0785E480930B0784E480930C0780E433
:101C200080930F0710921407109215071092160751
:101C300010921707109218071092190710921A079E
:101C400010921B07E5E4F6E08FEF9FEFDC011282B4
:101C5000138214821582168217821086118683875A
:101C60009487A587B6878787908BA18BB28B1286C6
:101C700011821082739627E0E330F20741F78DE07E
:101C800090E00E948313FC011382128288E392E0A9
:101C900091838083118687E2848384E1828784E054
:101CA00083871486F0934206E09341061092430620
:101CB0001092440685E280932D0510922F05109214
:101CC0003C0610923B0610923E0610923D06109282
:101CD000400610923F0661E070E090E080E00E94D4
:101CE000A8140097F1F190933C0680933B06109264
:101CF0003E0610923D0620913F0630914006232B70
:101D000011F4FC0110821092400610923F0662E628
:101D100072E080913B0690913C060C94921581E014
:101D20008E0F80933A06E093340725E0E29FF0019E
:101D30001124E250FA4F88EB9BE09283818349CFD4
:101D400081E08E0F80933A06E093350785E0E89FA7
:101D5000F0011124E250FA4F88EB9BE092838183DB
:101D600040CF80913B0690913C06009711F00E9475
:101D70001F1410923C0610923B06109240061092DF
:101D80003F0610923E0610923D060895CF93DF93D2
:101D9000CDB7DEB7E2970FB6F894DEBF0FBECDBF6A
:101DA000789484B5826084BD84B5816084BD85B536
:101DB000826085BD85B5816085BD80916E00816042
:101DC00080936E00109281008091810082608093E8
:101DD00081008091810081608093810080918000EA
:101DE0008160809380008091B10084608093B10015
:101DF0008091B00081608093B000809191008260FA
:101E000080939100809191008160809391008091F6
:101E100090008160809390008091A1008260809307
:101E2000A1008091A10081608093A1008091A00019
:101E300081608093A00080912101826080932101C4
:101E40008091210181608093210180912001816036
:101E50008093200180917A00846080937A00809141
:101E60007A00826080937A0080917A00816080930A
:101E70007A0080917A00806880937A001092C10085
:101E80000E94A4010E94A40161E0809104070E94C5
:101E90004F0360E0809104070E94E20260E08091BD
:101EA00003070E944F0389E493E090930E07809309
:101EB0000D071092AE021092AD02109226031092FE
:101EC00048030E94100383EF91E09093D102809326
:101ED000D00284EF91E09093D5028093D40280E009
:101EE00090E1A0E0B0E08093100790931107A093D9
:101EF0001207B09313078AE090E0A0E0B0E080936F
:101F0000140790931507A0931607B093170780E066
:101F100090E0A0E0B0E48093180790931907A09395
:101F20001A07B0931B0760E070E185E00E948C0403
:101F30006FE979E380E00E948C04B5E0EB2EB7E016
:101F4000FB2E03E017E080E4682E82E0782E96E80E
:101F5000892E92E0992E2BECC22E27E0D22E3BE860
:101F6000A32EBB24B394D70112969C91F7018191C3
:101F70007F01D80159968C9359975A969C9361E0AA
:101F80000E944F0361E0F801828D0E944F03D70148
:101F900015969C91159713968C91F801858F968FC5
:101FA00061E00E944F0360E0D8015E968C910E9430
:101FB0004F0361E0F801858D0E94E2025FB6F8945C
:101FC00080918302811125C0F3018491F4019491E1
:101FD000E82FF0E0EE0FFF1FE952FE4FA591B491FC
:101FE0008C91982321F461E085E30E94E20261E094
:101FF00085E30E944F038CB580618CBD8CB58064F5
:102000008CBD61E084E30E944F0361E083E30E94A2
:102010004F03809183028F5F809383025FBEC6016E
:102020000197F1F760E0D8015D968C910E94E20281
:1020300088E80E94420783E00E94420761E0F801BD
:10204000858D0E94E202C6010197F1F760E0D80198
:102050005D968C910E94E20288E90E94420780E02E
:102060000E94420780E00E94420780E00E944207EF
:1020700080E00E94420761E0F801858D0E94E20243
:10208000C5010197F1F760E0D8015D968C910E943F
:10209000E20280EE0E94420761E0F801858D0E9415
:1020A000E2020E5F1F4FF7E007301F0709F05BCF1A
:1020B00008E217E064E2E62E67E0F62E7CE2C72E27
:1020C00077E0D72E60E0D8018D918D010E944F03FB
:1020D000C016D106B9F70CE217E028E2C22E27E0BD
:1020E000D22E35E0B32E4CE0942E52E0A52EF8010E
:1020F00081908F0187818C3008F046C061E0882D87
:102100000E944F03D80117968C91B89EF0011124BC
:10211000E250FA4F282D2F739081907C922B908360
:1021200013821482692D0E94C712899DA001112477
:1021300030E020E0BA01620F731FB69EF001B79E37
:10214000F00D1124E250FA4F908196FD12C02F5FDE
:102150003F4F2C30310571F781110BC01092800078
:10216000A09281001092850010928400A6BAA092DD
:102170006F00D8011796EC91BE9EF0011124E25039
:10218000FA4F808180648083F80195818381D70133
:1021900052968C93529753969C9360E00E944F0303
:1021A00061E0F70183890E944F0360E0D7015396F5
:1021B0008C910E94E202B2E0EB0EF11CCE14DF041F
:1021C00009F095CFF8941092200189E080932101C5
:1021D00080E293E0909329018093280110922501D9
:1021E0001092240182E080937300789480932C05F0
:1021F0001092300580912D0560E00E944F0390E41D
:10220000E92E92E0F92E8E010F5F1F4F809101029F
:10221000882309F441C040E050E060E07FE38CE1B6
:1022200097E00E941B064DEC5CEC6CE47EEB8EE1CB
:1022300097E00E941B0680E297E00E9449074B014D
:102240005C0182E297E00E944907B094A0949094C8
:102250008094811C911CA11CB11CA5019401261B1A
:10226000370B480B590BCA01B9010E94AA1127E18B
:1022700037EB41E55AE30E94091220E030E040E0EC
:102280005FE30E94DC12AB01BC0170588EE197E065
:102290000E941B06109201020E9480032B013C0148
:1022A00088EE882E83E0982EA12CB12C0E9480030A
:1022B0006419750986099709683E7340810591057F
:1022C000A8F331E0831A9108A108B10848EE440E42
:1022D00043E0541E611C711C81149104A104B104DB
:1022E00029F782E297E00E944907D62EC72EB82E22
:1022F000A92E80E297E00E944907AF92BF92CF9249
:10230000DF929B01AC0188279927DC01821B930B8C
:10231000A40BB50BBF93AF939F938F93FF92EF9254
:102320001F930F930E949915C8010E94FF070E94F6
:10233000F6050FB6F894DEBF0FBECDBF67CF809114
:102340003B0690913C06009711F00C941F140895E1
:10235000E89409C097FB3EF490958095709561953F
:102360007F4F8F4F9F4F9923A9F0F92F96E9BB27F5
:102370009395F695879577956795B795F111F8CF71
:10238000FAF4BB0F11F460FF1BC06F5F7F4F8F4FDC
:102390009F4F16C0882311F096E911C0772321F0D2
:1023A0009EE8872F762F05C0662371F096E8862F6A
:1023B00070E060E02AF09A95660F771F881FDAF7C1
:1023C000880F9695879597F90895990F0008550FEE
:1023D000AA0BE0E8FEEF16161706E807F907C0F0AB
:1023E00012161306E407F50798F0621B730B840BB3
:1023F000950B39F40A2661F0232B242B252B21F48D
:1024000008950A2609F4A140A6958FEF811D811D2C
:1024100008950E941C120C948D120E947F1238F0B5
:102420000E94861220F0952311F00C9476120C94E1
:102430007C1211240C94C1120E949E1270F3959F7D
:10244000C1F3950F50E0551F629FF001729FBB27AB
:10245000F00DB11D639FAA27F00DB11DAA1F649F47
:102460006627B00DA11D661F829F2227B00DA11DFA
:10247000621F739FB00DA11D621F839FA00D611D80
:10248000221F749F3327A00D611D231F849F600DA1
:10249000211D822F762F6A2F11249F5750409AF0CA
:1024A000F1F088234AF0EE0FFF1FBB1F661F771F56
:1024B000881F91505040A9F79E3F510580F00C9421
:1024C00076120C94C1125F3FE4F3983ED4F38695E4
:1024D00077956795B795F795E7959F5FC1F7FE2BC1
:1024E000880F911D9695879597F9089597F99F679D
:1024F00080E870E060E008959FEF80EC089500248C
:102500000A941616170618060906089500240A9458
:1025100012161306140605060895092E0394000CDE
:1025200011F4882352F0BB0F40F4BF2B11F460FF6D
:1025300004C06F5F7F4F8F4F9F4F089557FD905896
:10254000440F551F59F05F3F71F04795880F97FB77
:10255000991F61F09F3F79F0879508951216130631
:102560001406551FF2CF4695F1DF08C01616170660
:102570001806991FF1CF8695710561050894089595
:10258000E894BB2766277727CB0197F90895991B15
:1025900079E004C0991F961708F0961B881F7A955A
:1025A000C9F780950895EE0FFF1F881F8BBF079016
:1025B000F691E02D19945058BB27AA270E94F312D8
:1025C0000C948D120E947F1238F00E94861220F027
:1025D00039F49F3F19F426F40C947C120EF4E09524
:1025E000E7FB0C947612E92F0E949E1258F3BA175B
:1025F000620773078407950720F079F4A6F50C9419
:10260000C0120EF4E0950B2EBA2FA02D0B01B901CC
:1026100090010C01CA01A0011124FF27591B99F058
:10262000593F50F4503E68F11A16F040A22F232F64
:10263000342F4427585FF3CF469537952795A795B4
:10264000F0405395C9F77EF41F16BA0B620B730B5B
:10265000840BBAF09150A1F0FF0FBB1F661F771FCC
:10266000881FC2F70EC0BA0F621F731F841F48F481
:10267000879577956795B795F7959E3F08F0B0CF0A
:102680009395880F08F09927EE0F979587950895F1
:102690000E944F136894B1110C94C11208950E94C6
:1026A000A61288F09F5798F0B92F9927B751B0F02C
:1026B000E1F0660F771F881F991F1AF0BA95C9F7C6
:1026C00014C0B13091F00E94C012B1E008950C9492
:1026D000C012672F782F8827B85F39F0B93FCCF345
:1026E000869577956795B395D9F73EF49095809543
:1026F000709561957F4F8F4F9F4F08950E94E51110
:1027000008F48FEF08950F931F93CF93DF938230D8
:10271000910510F482E090E0E0913C07F0913D07D4
:1027200030E020E0B0E0A0E0309799F421153105C9
:1027300009F44AC0281B390B24303105D8F58A81A9
:102740009B816115710589F1FB0193838283FE01F1
:1027500011C0408151810281138148175907E0F06F
:102760004817590799F4109761F012960C93129735
:1027700013961C933296CF01DF91CF911F910F9149
:10278000089500933C0710933D07F4CF21153105C0
:1027900051F04217530738F0A901DB019A01BD013E
:1027A000DF01F801C1CFEF01F9CF90933D0780938E
:1027B0003C07CDCFFE01E20FF31F8193919322508E
:1027C000310939832883D7CF20913A0730913B07CD
:1027D000232B41F4209104023091050230933B07F2
:1027E00020933A072091020230910302211531050E
:1027F00041F42DB73EB74091060250910702241BC9
:10280000350BE0913A07F0913B07E217F307A0F48C
:102810002E1B3F0B2817390778F0AC014E5F5F4F36
:102820002417350748F04E0F5F1F50933B07409326
:102830003A07819391939FCFF0E0E0E09CCFCF9354
:10284000DF930097E9F0FC01329713821282A09186
:102850003C07B0913D07ED0130E020E01097A1F476
:1028600020813181820F931F20913A0730913B07DD
:102870002817390709F061C0F0933B07E0933A0746
:10288000DF91CF910895EA01CE17DF07E8F54A817D
:102890005B819E0141155105B1F7E901FB83EA8394
:1028A00049915991C40FD51FEC17FD0761F4808140
:1028B00091810296840F951FE90199838883828113
:1028C00093819B838A83F0E0E0E012968D919C9146
:1028D00013970097B9F52D913C911197CD01029670
:1028E000820F931F20913A0730913B072817390731
:1028F00039F6309751F510923D0710923C07B0938E
:102900003B07A0933A07BCCFD383C2834081518158
:10291000840F951FC817D90761F44E5F5F4F8881F8
:102920009981480F591F518340838A819B819383EA
:1029300082832115310509F0B0CFF0933D07E09374
:102940003C079ECFFD01DC01C0CF13821282D7CF9E
:102950004F925F926F927F928F929F92AF92BF92AF
:10296000CF92DF92EF92FF920F931F93CF93DF935B
:102970008C01009799F4CB01DF91CF911F910F91BA
:10298000FF90EF90DF90CF90BF90AF909F908F908F
:102990007F906F905F904F900C948313FC01E60F33
:1029A000F71F9C0122503109E217F30708F4AEC06B
:1029B000D901CD91DC911197C617D70720F1C53009
:1029C000D10578F0CE0104978617970750F0C61B03
:1029D000D70B2297C193D1936D937C93CF010E9423
:1029E0001F14C801DF91CF911F910F91FF90EF90BD
:1029F000DF90CF90BF90AF909F908F907F906F901F
:102A00005F904F9008955B01AC1ABD0A4C018C0E8B
:102A10009D1EA0913C07B0913D07512C412CF12CFB
:102A2000E12C109731F580913A0790913B0788157A
:102A3000990509F05CC04616570608F058C0809109
:102A4000020290910302009741F48DB79EB7409126
:102A5000060250910702841B950BE817F90708F04E
:102A600055C0F0933B07E0933A07F9017183608307
:102A7000B8CF8D919C91119712966C9012971396E6
:102A80007C901397A815B90559F56C0142E0C40E66
:102A9000D11CCA14DB0420F1AC014A195B09DA012C
:102AA0001296159780F06282738251834083D90118
:102AB0006D937C93E114F10471F0D7011396FC93AC
:102AC000EE9312978ECF22968C0F9D1FF901918362
:102AD0008083F301EFCFF0933D07E0933C0781CF74
:102AE0004816590608F42C017D01D3019ACFCB0179
:102AF0000E9483137C01009749F0AE01B8010E9447
:102B00008915C8010E941F1487016BCF10E000E0F7
:102B100068CFFB01DC0102C001900D924150504092
:102B2000D8F70895FB01DC0101900D920020E1F738
:102B300008950F931F93CF93DF93CDB7DEB72E97F2
:102B40000FB6F894DEBF0FBECDBF0E891F8986E099
:102B50008C831A8309838FEF9FE79E838D83AE0159
:102B6000465E5F4F688D798DCE0101960E94C91532
:102B70002F813885020F131FF80110822E960FB691
:102B8000F894DEBF0FBECDBFDF91CF911F910F91A3
:102B900008952F923F924F925F926F927F928F9201
:102BA0009F92AF92BF92CF92DF92EF92FF920F93DC
:102BB0001F93CF93DF9300D000D000D01F921F92BD
:102BC000CDB7DEB77C013B018A01FC01178216827A
:102BD000838181FFDDC1CE0101965C01F701938104
:102BE000F30193FD859193FF81913F01882309F4BF
:102BF00053C1853239F493FD859193FF81913F0153
:102C0000853229F4B70190E00E94E117E7CF912CBB
:102C1000212C312CFFE1F31538F08B3211F190F4B7
:102C2000803209F1833229F137FC3CC020ED280FB6
:102C30002A3050F536FE20C08AE0989E200D1124DF
:102C4000922E06C08D3291F0803371F7689430F87F
:102C5000F30193FD859193FF81913F018111DACFBB
:102C600021C0689431F8689432F8F2CF689433F850
:102C7000EFCF689434F8ECCFEAE02E9E200D1124BB
:102C8000222E689435F8E4CF8E3229F436FC04C144
:102C9000689436F8DDCF8C3619F4689437F8D8CFBD
:102CA0008836B1F2982F9F7D95549330E0F08336AB
:102CB000A1F18337C1F1833509F063C02801F2E047
:102CC0004F0E511CF801C080D180692D70E036FC98
:102CD00002C06FEF7FEFC6010E94CB174C016894D2
:102CE00037F882010AC00C5F1F4FFFE3F983882485
:102CF0008394912C6501E89437F833FE2DC0522C53
:102D00008114910471F5552009F468CFB70180E270
:102D100090E00E94E1175A94F6CFF80180818983F0
:102D20000E5F1F4FE4CF2801F2E04F0E511CF80157
:102D3000C080D180692D70E036FC02C06FEF7FEF5C
:102D4000C6010E94D6174C018201D5CFB70180E29F
:102D500090E00E94E1172A942814190409F0B0F7B2
:102D6000CECFF60137FC859137FE81916F01B70117
:102D700090E00E94E11751105A94F1E08F1A9108E7
:102D8000BFCF843619F0893609F077C0F80137FED5
:102D90006BC060817181828193810C5F1F4FF32D25
:102DA000FF763F2E97FF09C09095809570956195AD
:102DB0007F4F8F4F9F4F689437F82AE030E0A5018E
:102DC0000E941118C82ECA188C2C432C36FE0CC039
:102DD000E89440F8C91440F434FE05C032FC03C046
:102DE000F32DFE7E4F2E892C44FEAAC0FE01EC0D71
:102DF000F11D8081803309F09CC0242D297E422E54
:102E0000842D8870582E43FCAAC040FEA4C09C2C80
:102E1000821418F42C0C922C981844FEA6C0B7010A
:102E200080E390E00E94E11742FE09C088E790E04D
:102E300041FE02C088E590E0B7010E94E117C91485
:102E400008F49FC0CA94D12C9FEFC91AD90ACA0CA2
:102E5000DB1CF60182916F01B70190E00E94E1173F
:102E6000AC14BD04B1F74FCF60817181072E000C07
:102E7000880B990B0E5F1F4F92CFD32CE894D4F898
:102E80002AE030E08537E1F1232D297FD22E8F36DD
:102E9000A9F1F0F4883551F1F701868197812B96DD
:102EA0000FB6F894DEBF0FBECDBFDF91CF911F915B
:102EB0000F91FF90EF90DF90CF90BF90AF909F90D9
:102EC0008F907F906F905F904F903F902F900895DC
:102ED000803749F0883701F7D4FE02C06894D2F8F1
:102EE00020E130E00DC06894D4F8F6CF34FE03C082
:102EF000822F8660D82E20E132E002C028E030E048
:102F0000F801D7FE0FC060817181828193810C5FCF
:102F10001F4FA5010E941118C82ECA183D2CE89415
:102F200037F852CF6081718190E080E00E5F1F4FD3
:102F3000F0CF42FC02C0839463CF8394839460CF2C
:102F4000842D867809F45CCFF6CFB70180E290E05B
:102F50000E94E11783948214C0F3512C5ECF522C4F
:102F60005818821408F459CFF8CF842D867809F4C4
:102F700066CF8BE241FE80E247FC8DE2B70190E034
:102F80005CCFB70180E390E00E94E1179A9457CF9D
:102F90008FEF9FEF84CFFC010590615070400110CE
:102FA000D8F7809590958E0F9F1F0895FC01615072
:102FB000704001900110D8F7809590958E0F9F1F5B
:102FC00008950F931F93CF93DF93182F092FEB01D1
:102FD0008B8181FD09C01FEF0FEF812F902FDF91B3
:102FE000CF911F910F91089582FF14C02E813F81D0
:102FF0008C819D81281739073CF4E881F981CF0144
:1030000001969983888310838E819F8101969F8387
:103010008E83E3CFE885F985812F1995892BA1F35C
:10302000DACFFA01AA27283051F1203181F1E89452
:103030006F936E7F6E5F7F4F8F4F9F4FAF4FB1E0AB
:103040003ED0B4E03CD0670F781F891F9A1FA11DA6
:10305000680F791F8A1F911DA11D6A0F711D811DA7
:10306000911DA11D20D009F468943F912AE0269F6C
:1030700011243019305D3193DEF6CF010895462FCB
:103080004770405D4193B3E00FD0C9F7F6CF462FAC
:103090004F70405D4A3318F0495D31FD4052419315
:1030A00002D0A9F7EACFB4E0A695979587957795D2
:1030B0006795BA95C9F700976105710508959B0159
:1030C000AC010A2E06945795479537952795BA95E2
:1030D000C9F7620F731F841F951FA01D089511E08B
:1030E000C0E7D1E000E006C0802FFE010E94D312AD
:1030F0002196011DC137D10780E00807A9F7F89490
:02310000FFCFFF
:10310200FF0100003E078000363738391B1D1A1CAC
:10311200000000004C021F02C307F501180205025D
:10312200F601000000008605C3040905D3053A052F
:1031320018052C0500000000DB07C304C307C20703
:10314200456E636F646575722031203A20256C6488
:103152000A456E636F646575722032203A20256CD1
:04316200640A0000FB
:00000001FF
