:100000000C9471010C94A2010C94A2010C94A20115
:100010000C94A2010C94A2010C94A2010C94A201D4
:100020000C94A2010C94320B0C94320B0C94320BF6
:100030000C94A2010C94AA0C0C94A2010C94A201A1
:100040000C94A2010C94030F0C94A2010C94A20135
:100050000C94A2010C94A2010C94A2010C94600CCB
:100060000C94A2010C94190E0C94EF0D0C94A201A7
:100070000C94A2010C94A2010C94A2010C94A20174
:100080000C94A2010C94A2010C94A2010C94A20164
:100090000C94A2010C94A2010C94A2010C943C0BB0
:1000A0000C94A2010C94A2010C94A2010C94A20144
:1000B0000C94A2010C94A2010C94A2010C94430E86
:1000C0000C94A2010C94A2010C94A2010C94C50DF5
:1000D0000C949B0D0C94A2010C94710D0C94470D83
:1000E0000C94A2010C944B080C94D0020C94B40212
:1000F0000C94D9020C94AB020C9473070C94640812
:100100000C9431060C943C070C94F4010C940907F0
:100110000C940E070C94F6010C94AE020C94DA02C7
:100120000C94DE020C9422070C94A7020C94BE02DD
:100130000C944C080C94C6020C9418020C949F0268
:100140000C94F8060C9491070C9405020C94180773
:100150000C9446070C947D070C94C2020C94AB0FD0
:100160000C949B070C944C020C94A3020C94F30186
:100170000C9469070C9499020C948A050C942C0732
:100180000C9498050C941F020C94D4020C94210535
:100190000C94CC020C9467050C9434070C94500713
:1001A0000C94E4050C9471150C94B8020C94F501B0
:1001B0000C945A070C9487070C94760502000021D2
:1001C00000240027002A002D003000330001010028
:1001D00000040107010A0100002200250028002B6D
:1001E000002E003100340002010000050108010B5F
:1001F00001000020002300260029002C002F0032DF
:1002000000000100000301060109010505050507BD
:100210000508080808020202020A0A080804040481
:1002200004010101010101010103030303030303AD
:1002300003040707070C0C0C0C0C0C0C0C0202023C
:100240000206060606060606060B0B0B0B0B0B0B2F
:100250000B010210202008081020401020408002CE
:1002600001020108040201010204081020408080FC
:100270004020100804020180040201804020100880
:100280000402010804020101020408102040800158
:100290000204081020408000000A0B02090C0D0E19
:1002A0000807030401000000000000000000000037
:1002B000000000000000000000000000000000003E
:1002C00000000012111000000000000000000000FB
:1002D0000000000000000000000000000000AB0F64
:1002E000711511241FBECFEFD1E2DEBFCDBF00E0FC
:1002F0000CBF12E0A0E0B2E0E6E3F4E300E00BBFE5
:1003000002C007900D92A43DB107D9F727E0A4EDF4
:10031000B2E001C01D92AB3BB207E1F711E0C0E7CC
:10032000D1E000E006C021970109802FFE010E9464
:10033000CC16CF36D10780E00807A9F70E949311A9
:100340000C94091A0C940000ECE0F5E0A089B18946
:1003500082E08C93A485B5851C92A685B7858FEC29
:100360008C93108EA489B58986E08C93A289B38979
:100370008C9180618C93A289B3898C9188608C93D5
:10038000A289B3898C9180688C930288F389E02DCF
:1003900080818F7D8083089520914F03260F33271E
:1003A000331F21323105ECF420919C03FC0190E0D5
:1003B00080E0243069F082E00895A0914F032191FC
:1003C000AC01435D5C4FA40FB52FB11D2C9301967A
:1003D000861798F380914F03680F60934F0380E076
:1003E000089581E00895089508950895E0912B03FC
:1003F00080912A03E81730F4F0E0E65FFC4F80813B
:1004000090E008958FEF9FEF089590912B038091D6
:100410002A032FEF3FEF981748F4E92FF0E0E65F4B
:10042000FC4F208130E09F5F90932B03C90108951A
:1004300080912A0390912B03891B990B0895CF92E9
:10044000DF92EF92FF920F931F93CF93DF937C0184
:10045000CB018A012091A203222389F0EB016B01D9
:10046000C40ED51ECC15DD0569F06991D701ED915B
:10047000FC910190F081E02DC7011995F3CF642F15
:100480000E94CC01C801DF91CF911F910F91FF9085
:10049000EF90DF90CF900895CF93DF931F92CDB769
:1004A000DEB769832091A2032223F9F02091C503CE
:1004B000203258F021E030E0FC013383228390E0C9
:1004C00080E00F90DF91CF9108958091A303E82FF2
:1004D000F0E0EC55FC4F998190838F5F8093A303EC
:1004E0008093C50381E090E0ECCF61E0CE010196FE
:1004F0000E94CC01F7CF8150823108F05AC0E82F1A
:10050000F0E08827E957FD4F8F4F0C94CC16A702D7
:10051000AB0299029F02A302D902AE02B402B80252
:10052000BE02C202C602CC02D002D902D402DA0252
:10053000DE02809180008F77809380000895809103
:1005400080008F7DF9CF80918000877FF5CF84B5C3
:100550008F7784BD089584B58F7DFBCF8091B000E7
:100560008F778093B00008958091B0008F7DF9CF90
:10057000809190008F7780939000089580919000F3
:100580008F7DF9CF80919000877FF5CF8091A0007B
:100590008F778093A00008958091A0008F7DF9CF80
:1005A0008091A000877FF5CF809120018F77809385
:1005B00020010895809120018F7DF9CF8091200145
:1005C000877FF5CFCF93DF93282F30E0F901E956ED
:1005D000FD4F8491F901EF5AFD4FD491F901E55F88
:1005E000FD4FC491CC23A1F081110E947B02EC2F1E
:1005F000F0E0EE0FFF1FEF50FE4FA591B491EC918C
:10060000ED2381E090E009F480E0DF91CF9108953F
:1006100080E090E0FACF1F93CF93DF93282F30E054
:10062000F901E956FD4F8491F901EF5AFD4FD4913C
:10063000F901E55FFD4FC491CC23A9F0162F81117C
:100640000E947B02EC2FF0E0EE0FFF1FE952FE4FFD
:10065000A591B4918FB7F894EC91111108C0D09581
:10066000DE23DC938FBFDF91CF911F910895DE2BA6
:10067000F8CF10929C0381E080939B031092760345
:1006800061E084E10E940B0361E085E10E940B03BD
:10069000E9EBF0E080818E7F808380818D7F808395
:1006A00088E48093B80085E48093BC000895CF93DC
:1006B000DF9391E090932C038823B9F0C091B800A8
:1006C000D091BA008091BC008A7B8093BC0060E02E
:1006D00084E10E940B0360E085E10E940B030E940D
:1006E0003903D093BA00C093B800DF91CF91089539
:1006F000CF93DF9390E0FC01EF5AFD4F2491855F8B
:100700009D4FFC0184918823D1F090E0880F991FC0
:10071000FC01E354FE4FA591B491FC01E952FE4F58
:10072000C591D49161110EC09FB7F8948C91E22FBE
:10073000E0958E238C932881E223E8839FBFDF918D
:10074000CF9108958FB7F894EC91E22BEC938FBF83
:10075000F6CF3FB7F8948091060390910703A091DC
:100760000803B091090326B5A89B05C02F3F19F0D7
:100770000196A11DB11D3FBFBA2FA92F982F882721
:10078000BC01CD01620F711D811D911D42E0660FFC
:10079000771F881F991F4A95D1F70895CF92DF924E
:1007A000EF92FF920F931F93CF93DF93D091C503E6
:1007B00081E0D13208F09CC0C091C4030E94A9031B
:1007C0006B017C0180919C0381116CC082E080935D
:1007D0009C0381E080939B038FEF80939A03109298
:1007E0009903D0939803A4EAB3E0E8E7F3E080E04C
:1007F000D8138DC01092770380917703CC0FC82B4C
:10080000C093770380917603813009F084C0109201
:1008100076030E94A9036B017C018091770380938A
:10082000BB0080919E0390919F03A091A003B09183
:10083000A103892B8A2B8B2BA1F00E94A903009185
:100840009E0310919F032091A0033091A1036C1986
:100850007D098E099F09061717072807390708F42D
:1008600042C08091BC0083FDD8CF85EC8093BC0052
:100870000E94A9036B017C0180919C03823009F4E2
:100880004CC080919A038F3F09F469C080919A030C
:10089000803209F466C080919A03803309F463C002
:1008A00084E026C080919E0390919F03A091A003B5
:1008B000B091A103892B8A2B8B2B09F483CF0E9443
:1008C000A90300919E0310919F032091A0033091F2
:1008D000A1036C197D098E099F09061717072807C0
:1008E000390708F06FCF80919D030E94570385E080
:1008F0001092A3031092C5031092A203DF91CF912F
:100900001F910F91FF90EF90DF90CF9008959D91F0
:1009100091938F5F6DCF85EEA9CF80919E039091CB
:100920009F03A091A003B091A103892B8A2B8B2B4D
:1009300009F4A2CF0E94A90300919E0310919F0386
:100940002091A0033091A1036C197D098E099F09A4
:10095000061717072807390708F08ECFC4CF80E0A5
:10096000C7CF82E0C5CF83E0C3CF0F931F93CF9350
:10097000DF93162F072FC0E8D7E0AA85BB859C859B
:1009800021E02093A2039093C4031092A30310923A
:10099000C503ED91FC9111970190F081E02D682F36
:1009A000CD0119958A859B85DC01ED91FC91019023
:1009B000F081E02D602F19958A859B85DC01ED91F2
:1009C000FC910190F081E02D612F1995DF91CF917D
:1009D0001F910F910C94CE038F929F92AF92BF9272
:1009E000CF92DF92EF92FF920E94A9034B015C012C
:1009F00084E6C82ED12CE12CF12C0E94A9036819A1
:100A000079098A099B09683E734081059105A8F31D
:100A100021E0C21AD108E108F10888EE880E83E0CF
:100A2000981EA11CB11CC114D104E104F10429F7E2
:100A3000FF90EF90DF90CF90BF90AF909F908F90FE
:100A40000895AF92BF92CF92DF92EF92FF920F93F1
:100A50001F93CF93DF936C017B018B01040F151F54
:100A6000EB015E01AE18BF08C017D10759F06991BC
:100A7000D601ED91FC910190F081E02DC601199510
:100A8000892B79F7C501DF91CF911F910F91FF90CD
:100A9000EF90DF90CF90BF90AF900895FC01A089B8
:100AA000B1898C91A689B78982FD0FC09C91818DF7
:100AB0008F5F8F73228D821749F0A18DAE0FBF2FEC
:100AC000B11D5D969C93818F08958C910895FC01D2
:100AD000538D448D252F30E0842F90E0821B930BA3
:100AE000541710F0CF96089501970895FC01918D49
:100AF000828D981761F0A28DAE0FBF2FB11D5D964C
:100B00008C91928D9F5F9F73928F90E008958FEFED
:100B10009FEF0895FC01918D828D981731F0828DA1
:100B2000E80FF11D858D90E008958FEF9FEF0895F8
:100B3000FC01918D228D892F90E0805C9F4F821B5C
:100B400091098F739927089582ED93E00E9498058B
:100B500021E0892B09F420E0822F08958FE694E0AC
:100B60000E94980521E0892B09F420E0822F089546
:100B70008CE095E00E94980521E0892B09F420E0A3
:100B8000822F0895FC01A48DA80FB92FB11DA35A7F
:100B9000BF4F2C91848D90E001968F739927848F9D
:100BA000A689B7892C93A089B1898C9183708064C0
:100BB0008C93938D848D981306C00288F389E02D61
:100BC00080818F7D80830895EF92FF920F931F9312
:100BD000CF93DF93EC0181E0888F9B8D8C8D9813F0
:100BE0001AC0E889F989808185FF15C09FB7F894FC
:100BF000EE89FF896083E889F98980818370806448
:100C000080839FBF81E090E0DF91CF911F910F9192
:100C1000FF90EF900895F62E0B8D10E00F5F1F4FA1
:100C20000F731127E02E8C8D8E110CC00FB607FCB0
:100C3000FACFE889F989808185FFF5CFCE010E943E
:100C4000C205F1CFEB8DEC0FFD2FF11DE35AFF4FE5
:100C5000F0829FB7F8940B8FEA89FB8980818062CC
:100C6000CFCFCF93DF93EC01888D8823B9F0AA8989
:100C7000BB89E889F9898C9185FD03C0808186FD57
:100C80000DC00FB607FCF7CF8C9185FFF2CF8081A6
:100C900085FFEDCFCE010E94C205E9CFDF91CF9154
:100CA0000895F0E0E0E0199480E090E0892B29F0CD
:100CB0000E94B80581110E94000080E090E0892B1D
:100CC00049F080E090E0892B29F00E94000081111A
:100CD0000E9400000E94AE0581110E94510680E032
:100CE00090E0892B29F00E94A40581110C9400004A
:100CF00008958F929F92AF92BF92CF92DF92EF9220
:100D0000FF920F931F93CF93DF93EC016A017B0156
:100D100020E030E04FE753E4CB01B6010E94E0153C
:100D20004B015C0120E030E0A9010E94E917181690
:100D30008CF5C501B4010E94B3178B01B98020E086
:100D400030E0A901C701B6010E94E91760E018165A
:100D50000CF061E08B2D0E940B030F3F110509F091
:100D6000ECF41127C88161E08C2F0E9478030115F3
:100D70001105B9F460E08C2FDF91CF911F910F9195
:100D8000FF90EF90DF90CF90BF90AF909F908F90AB
:100D90000C940B03C501B4019058CDCF0FEF10E0B8
:100DA000E1CF0F3F110511F461E0E5CFEC2FF0E04A
:100DB000E956FD4FE491E150E23108F0BCC0F0E0AB
:100DC0008827EA51F94F8F4F0C94CC16F806090783
:100DD0000E07180722079B072C0734073C07460716
:100DE00050075A07690773079B077D078707910715
:100DF00084B5806884BD07BDDF91CF911F910F91AD
:100E0000FF90EF90DF90CF90BF90AF909F908F902A
:100E1000089584B5806284BD08BDEECF80918000C6
:100E20008068809380001093890000938800E4CF4D
:100E30008091800080628093800010938B000093EB
:100E40008A00DACF809180008860809380001093C0
:100E50008D0000938C00D0CF8091B000806880938B
:100E6000B0000093B300C8CF8091B000806280933F
:100E7000B0000093B400C0CF809190008068809350
:100E800090001093990000939800B6CF8091900045
:100E900080628093900010939B0000939A00ACCFE7
:100EA0008091900088608093900010939D00009343
:100EB0009C00A2CF8091A00080688093A0008091C8
:100EC000A0008F7B8093A0001093A9000093A8003E
:100ED00093CF8091A00080628093A0001093AB001C
:100EE0000093AA0089CF8091A00088608093A00021
:100EF0001093AD000093AC007FCF809120018068FB
:100F000080932001109329010093280175CF8091CF
:100F1000200180628093200110932B0100932A010D
:100F20006BCF8091200188608093200110932D0168
:100F300000932C0161CF003811050CF035CF1ACF8A
:100F40008EBD00000DB407FEFDCF8EB50895CF9382
:100F5000DF93EC0160E088810E940B0388E90E9426
:100F6000A00780E00E94A00780E00E94A00780E028
:100F70000E94A00780E00E94A00761E088810E9493
:100F80000B038BE891E00197F1F760E088810E9404
:100F90000B0380EE0E94A00761E08881DF91CF9172
:100FA0000C940B03AF92BF92CF92DF92EF92FF921D
:100FB0000F931F93CF93DF93CDB7DEB760970FB634
:100FC000F894DEBF0FBECDBF6C0160E0FC018081F4
:100FD0000E940B0380E60E94A0079E012F5F3F4FF7
:100FE00079015E0131E1A30EB11C870180E00E940E
:100FF000A00790E0B0E0A0E0F80181939193A19365
:10100000B1938F01EA15FB0589F761E0F601808154
:101010000E940B0380E090E0DC01F70141915191C7
:10102000619171917F01BA2FA92F982F8827840F82
:10103000951FA61FB71FE017F10779F79C01AD01B7
:1010400066277727CB01621B730B840B950B609689
:101050000FB6F894DEBF0FBECDBFDF91CF911F91C9
:101060000F91FF90EF90DF90CF90BF90AF900895D9
:10107000FC01248131E03093A2032093C403109239
:10108000A3031092C5038485682B86EC93E00E942D
:101090004C020C94CE03089590E080E008950F93E5
:1010A0001F93CF938C01C62F64600E9438086C2F69
:1010B0006B7FC8010E94380883EC90E00197F1F73C
:1010C000CF911F910F9108950F931F93CF93DF93AB
:1010D0008C01C62FD62FD07FD1606D2F0E9438088B
:1010E0006D2FC8010E944F0880E1C89FE0011124C4
:1010F000C1606C2FC8010E9438086C2FC8010E9483
:101100004F0881E090E0DF91CF911F910F910895FA
:101110008DE997E00E94D2079B01AC0188279927AF
:10112000DC01821B930BA40BB50B8093F802909308
:10113000F902A093FA02B093FB028FE997E00E94B4
:10114000D2076093F4027093F5028093F6029093B5
:10115000F70208958DE997E00E94A7078FE997E0CD
:101160000E94A7070C94880840E050E0BA0189E982
:1011700097E00E94790640E050E060E070E88BE97B
:1011800097E00C9479064F925F926F927F928F92C4
:101190009F92AF92BF92CF92DF92EF92FF92CF9346
:1011A000DF9300D000D0CDB7DEB78E836D836901A9
:1011B0007A018091750290917602019709F0E1C061
:1011C0004090F8025090F9026090FA027090FB0291
:1011D000D301C20177FE07C088279927DC01841953
:1011E0009509A609B709C090F402D090F502E090E5
:1011F000F602F090F702F7FE08C0F094E094D09465
:10120000C094C11CD11CE11CF11CBC01CD016C19A6
:101210007D098E099F090E9481152AE037ED43E27E
:101220005BE30E94E01569837A838B839C83E09162
:10123000FE02F091FF02EE0FFF1FEE0FFF1FE75CB3
:10124000FD4F80809180A280B380C301B2010E94D3
:1012500081156B017C0120E030E04AE755E4C501CF
:10126000B4010E94E91718160CF07CC020ED42165C
:1012700027E05206610471040CF05BC026EA3BE9EA
:1012800044EC59E3C701B6010E94E0152AE939E9A7
:1012900049E15EE30E94D5166B017C012E81622F2D
:1012A000220F770B880B990B0E948115A7019601DD
:1012B0000E94E015AB01BC0189E997E00E94790624
:1012C0002D81622F220F770B880B990B0E948115BD
:1012D0004B015C01A70196010E94E0156B017C01A6
:1012E00029813A814B815C81C501B4010E94E015DE
:1012F0009B01AC01C701B6010E94D516AB01BC0130
:1013000070588BE997E026960FB6F894DEBF0FBEB3
:10131000CDBFDF91CF91FF90EF90DF90CF90BF9046
:10132000AF909F908F907F906F905F904F900C94B4
:10133000790620E030E44CE955E4C501B4010E948F
:10134000D416A70196010E947A1587FF1FC0A70136
:101350009601C501B4010E94D41626EA3BE944EC8B
:1013600059E392CF20E030E040E05FE3C501B401F3
:101370000E94E015A70196010E94E91718163CF794
:101380007DCF19821A821B821C8288CF86E6C82EE6
:10139000DC2CEC2C8FE3F82E81CFFC010190002097
:1013A000E9F73197AF01481B590BBC018CE095E080
:1013B0000C9421058F929F92AF92BF920F931F932F
:1013C000CF93DF93CDB7DEB7A1970FB6F894DEBF0A
:1013D0000FBECDBF19A2423008F44AE08E010F5D66
:1013E0001F4F842E912CB12CA12CA50194010E9499
:1013F0009E16E62FB901CA01EA30F4F4E05DD80187
:10140000EE938D01232B242B252B79F790E080E0A0
:10141000109719F0CD010E94CD09A1960FB6F8944E
:10142000DEBF0FBECDBFDF91CF911F910F91BF9057
:10143000AF909F908F900895E95CE1CF4F925F92BB
:101440006F927F928F929F92AF92BF92CF92DF92D4
:10145000EF92FF920F931F93CF936B017C01742E39
:10146000AC019B010E94EE17882399F085EB92E076
:10147000CF911F910F91FF90EF90DF90CF90BF9091
:10148000AF909F908F907F906F905F904F900C9453
:10149000CD0946015701E894B7F82FEF3FEF4FE72A
:1014A0005FE7C501B4010E94EE1781110DC02FEF57
:1014B0003FEF4FE75FE7C501B4010E947A151816A8
:1014C0001CF489EB92E0D4CF2FEF3FEF4FE75FE4BE
:1014D000C701B6010E94E91718161CF48DEB92E0C3
:1014E000C7CF2FEF3FEF4FE75FECC701B6010E9478
:1014F0007A1587FDF3CF20E030E0A901C701B601DE
:101500000E947A1510E000E087FF0AC06DE28CE0CF
:1015100095E00E94E4058C01F7FAF094F7F8F09456
:10152000C0E060E070E080E09FE37C1641F020E0E6
:1015300030E040E251E40E944117CF5FF6CFA701AF
:1015400096010E94D5162B013C010E94BA174B014F
:101550005C014AE00E94DA097C01E00EF11ECC2316
:10156000C1F1C501B4010E947F159B01AC01C3010B
:10157000B2010E94D4164B015C016EE28CE095E052
:101580000E94E405E80EF91EC15018F120E030E099
:1015900040E251E4C501B4010E94E0152B013C0179
:1015A0000E94BA174B01B12CA12C4AE0C501B4012D
:1015B0000E94DA09E80EF91EC501B4010E947F15E8
:1015C0009B01AC01C301B2010E94D4164B015C0126
:1015D000DBCFC701CF911F910F91FF90EF90DF906C
:1015E000CF90BF90AF909F908F907F906F905F90C3
:1015F0004F90089585ED8093BC0080919E0390915B
:101600009F03A091A003B091A1030796A11DB11D56
:1016100023E0B695A795979587952A95D1F72091C0
:10162000BC0024FD03C010929C03089540919E03CA
:1016300050919F036091A0037091A103452B462B0D
:10164000472B69F30097A105B10541F025E32A95E1
:10165000F1F700000197A109B109E1CF80919D0345
:101660000C9457031F920F920FB60F9211240F90F4
:101670000FBE0F901F9018951F920F920FB60F92EA
:1016800011240BB60F922F933F934F935F936F9359
:101690007F938F939F93AF93BF93EF93FF9380912B
:1016A000B900887F803609F44DC008F040C0883208
:1016B00009F4A9C028F5803109F49DC0C8F4882335
:1016C00009F4FBC0883009F496C0FF91EF91BF91F7
:1016D000AF919F918F917F916F915F914F913F91CA
:1016E0002F910F900BBE0F900FBE0F901F9018956B
:1016F000883109F488C0803241F780939A0314C07E
:10170000803409F49DC040F48033B9F38833E9F69E
:1017100080939A0385ECB0C0803509F485C0883584
:1017200009F496C0883489F60E94FA0ACECF883927
:1017300009F48CC038F5883729F050F4883611F058
:10174000803719F683E080939C031092730357C08F
:10175000883809F47BC0803919F0803809F0B5CF9A
:1017600080917303803208F071C0E091730381E0CF
:101770008E0F809373038091BB00F0E0ED5AFC4F15
:1017800080833DC0803B39F0E0F4803A09F479C0B1
:10179000883A09F09ACF84E080939C03109250031A
:1017A00010924F03E0914D03F0914E0319958091F3
:1017B0004F0381110FC081E080934F0310922D03DE
:1017C00009C0803C09F4A6CF883C09F4A3CF883B2C
:1017D00009F07BCFE091500381E08E0F809350039E
:1017E000F0E0E35DFC4F80818093BB00909150035B
:1017F00080914F0329C0809177038093BB0085ECD3
:101800008093BC0062CF90919903809198039817C0
:1018100058F5E091990381E08E0F80939903F0E0F1
:10182000E858FC4F8081E9CFE091990381E08E0F69
:10183000809399038091BB00F0E0E858FC4F8083CF
:1018400090919903809198039817C8F285E8D8CFB2
:10185000E091990381E08E0F809399038091BB0002
:10186000F0E0E858FC4F808380919B0381115CCFAE
:1018700081E08093760384EA8093BC0010929C03FD
:1018800024CF85EC8093BC0010929C03809173035D
:10189000803230F4E0917303F0E0ED5AFC4F108297
:1018A0006091730370E0E0915103F091520383E57E
:1018B00093E019951092730308CF10929A0334CFD6
:1018C0001F920F920FB60F9211242F933F938F9375
:1018D0009F93AF93BF938091020390910303A091D4
:1018E0000403B09105033091010323E0230F2D374A
:1018F00058F50196A11DB11D2093010380930203A9
:1019000090930303A0930403B0930503809106030F
:1019100090910703A0910803B09109030196A11DBE
:10192000B11D8093060390930703A0930803B0931F
:101930000903BF91AF919F918F913F912F910F908C
:101940000FBE0F901F90189526E8230F0296A11D39
:10195000B11DD2CF1F920F920FB60F9211240BB66A
:101960000F922F933F934F935F936F937F938F9338
:101970009F93AF93BF93EF93FF938091EF0290916A
:10198000F002A091F102B091F202892B8A2B8B2BED
:10199000D1F19091EE0280910000892780930000A0
:1019A0008091EF029091F002A091F102B091F202C9
:1019B000181619061A061B069CF48091EF029091E6
:1019C000F002A091F102B091F2020197A109B109D0
:1019D0008093EF029093F002A093F102B093F20291
:1019E000FF91EF91BF91AF919F918F917F916F91F7
:1019F0005F914F913F912F910F900BBE0F900FBEB3
:101A00000F901F90189580910002ECEBF1E0E491AB
:101A10009FEF90930002E230E9F040F4EE2389F06A
:101A2000E13091F060E00E940B03DACFE43049F13D
:101A300010F1E530B9F7909173009D7F909373009A
:101A4000F1CF10926E00EECF90916F009D7F90933A
:101A50006F00E8CF909170009D7F9093700091E0AF
:101A60009093B0009091B100987F94609093B100F2
:101A70001092B300D7CF909171009D7F9093710029
:101A8000D1CF909172009D7F90937200CBCF1F9227
:101A90000F920FB60F9211240BB60F922F933F9314
:101AA0004F935F936F937F938F939F93AF93BF9366
:101AB000EF93FF9382ED93E00E94C205FF91EF91B7
:101AC000BF91AF919F918F917F916F915F914F9156
:101AD0003F912F910F900BBE0F900FBE0F901F9054
:101AE00018951F920F920FB60F9211240BB60F92FA
:101AF0002F933F934F935F936F937F938F939F9316
:101B0000AF93BF93EF93FF9382ED93E00E944E0556
:101B1000FF91EF91BF91AF919F918F917F916F91C5
:101B20005F914F913F912F910F900BBE0F900FBE81
:101B30000F901F9018951F920F920FB60F921124BD
:101B40000BB60F922F933F934F935F936F937F93B7
:101B50008F939F93AF93BF93EF93FF938FE694E0A0
:101B60000E94C205FF91EF91BF91AF919F918F911C
:101B70007F916F915F914F913F912F910F900BBE8D
:101B80000F900FBE0F901F9018951F920F920FB6D7
:101B90000F9211240BB60F922F933F934F935F93A5
:101BA0006F937F938F939F93AF93BF93EF93FF9325
:101BB0008FE694E00E944E05FF91EF91BF91AF91A7
:101BC0009F918F917F916F915F914F913F912F9155
:101BD0000F900BBE0F900FBE0F901F9018951F9285
:101BE0000F920FB60F9211240BB60F922F933F93C3
:101BF0004F935F936F937F938F939F93AF93BF9315
:101C0000EF93FF938CE095E00E94C205FF91EF9166
:101C1000BF91AF919F918F917F916F915F914F9104
:101C20003F912F910F900BBE0F900FBE0F901F9002
:101C300018951F920F920FB60F9211240BB60F92A8
:101C40002F933F934F935F936F937F938F939F93C4
:101C5000AF93BF93EF93FF938CE095E00E944E0506
:101C6000FF91EF91BF91AF919F918F917F916F9174
:101C70005F914F913F912F910F900BBE0F900FBE30
:101C80000F901F9018951F920F920FB60F9211246C
:101C90000BB60F922F933F934F935F936F937F9366
:101CA0008F939F93AF93BF93EF93FF938091AA0578
:101CB0000E94E2022091AE053091AF052F5F3F4FA9
:101CC0003093AF052093AE059091AD05953618F091
:101CD00096E09093A9059091A905943009F466C007
:101CE000B8F49230F1F0933009F444C09091AC050F
:101CF000992309F46BC081117CC08091AB058823C6
:101D000009F463C08091AB0561E00E940B035EC0E3
:101D1000953009F457C0963049F791E090937A06D0
:101D20004FC08111E3CF2091AE053091AF0524362D
:101D3000310528F41092AF051092AE05D7CF10925E
:101D40007A061092AD05E091AD0591E09E0F90935B
:101D5000AD05F0E02091AE053091AF05EE0FFF1F0D
:101D6000E755FA4F308727831092AF051092AE05E2
:101D700093E019C0813009F0B9CFE091AD0591E051
:101D80009E0F9093AD05F0E02091AE053091AF0528
:101D9000EE0FFF1FE755FA4F308727831092AF05EC
:101DA0001092AE0594E09093A905A0CF882359F234
:101DB0002091AE053091AF052536310508F496CF58
:101DC00095E0F1CF811192CFB5CF2F9AFF91EF918E
:101DD000BF91AF919F918F917F916F915F914F9143
:101DE0003F912F910F900BBE0F900FBE0F901F9041
:101DF00018958091AB05882321F08091AB0560E0B8
:101E000084CF2F98E3CF1F920F920FB60F92112419
:101E10000BB60F922F933F934F935F936F937F93E4
:101E20008F939F93AF93BF93CF93DF93EF93FF93E2
:101E30008091ED02C091B706D0E087FF23C01092D9
:101E40008500109284008091ED028F5F8093ED02F7
:101E50008091ED02082E000C990B8C179D0724F43D
:101E60008091ED028C3074F1809184009091850016
:101E700084349C4908F465C0809184009091850069
:101E8000049661C08091ED02082E000C990B8C170E
:101E90009D07CCF63091ED0225E03203F0011124CC
:101EA000E558F94F808186FFCECF3091ED023203A5
:101EB000F0011124E558F94F808160E08F730E9492
:101EC0000B03C1CF80918400909185003091ED0289
:101ED00025E03203F0011124E558F94F4181528188
:101EE000840F951F90938900809388003091ED02B4
:101EF0003203F0011124E558F94F808186FF0CC0B0
:101F00003091ED023203F0011124E558F94F808140
:101F100061E08F730E940B03FF91EF91DF91CF91EE
:101F2000BF91AF919F918F917F916F915F914F91F1
:101F30003F912F910F900BBE0F900FBE0F901F90EF
:101F4000189580E49CE990938900809388008FEF36
:101F50008093ED02E1CF1092C9031092C80388EE7E
:101F600093E0A0E0B0E08093CA039093CB03A093EA
:101F7000CC03B093CD0329E832E03093C70320931C
:101F8000C6031092D5031092D4038093D603909386
:101F9000D703A093D803B093D9032BE932E0309351
:101FA000D3032093D20345E351E05093DF034093E2
:101FB000DE0344E351E05093E1034093E00340E348
:101FC00051E05093E3034093E20341E351E0509327
:101FD000E5034093E40342E351E05093E703409369
:101FE000E60346E351E05093E9034093E80310927F
:101FF000EB031092EC031092ED031092EE0310929B
:102000007204109271048093730490937404A093EB
:102010007504B09376043093700420936F0445EDFB
:1020200050E050937C0440937B0444ED50E0509387
:102030007E0440937D0440ED50E050938004409333
:102040007F0441ED50E0509382044093810442EDBF
:1020500050E0509384044093830446ED50E0509345
:10206000860440938504109288041092890410928B
:102070008A0410928B0410920F0510920E05809323
:10208000100590931105A0931205B093130530939A
:102090000D0520930C0585EC90E090931905809335
:1020A000180584EC90E090931B0580931A0580EC52
:1020B00090E090931D0580931C0581EC90E0909337
:1020C0001F0580931E0582EC90E09093210580937C
:1020D000200586EC90E090932305809322051092D2
:1020E000250510922605109227051092280580914B
:1020F0007D0290917E02A0917F02B0918002809338
:10210000A1079093A207A093A307B093A40780917F
:10211000810290918202A0918302B0918402809307
:10212000A5079093A607A093A707B093A80784E0FC
:102130008093A90787E08093AA071092AB0784EBEE
:102140008093AC0786E18093AD0788E18093AE076A
:1021500087E18093AF0789E18093B007E091B706EC
:10216000EC3008F4A9C08FEF8093B107E091B70677
:10217000EC3008F4B2C08FEF8093B2078CE080930C
:10218000800784E28093810786E08093820785E060
:10219000809383078FE1809384078EE18093850786
:1021A00083E28093860782E28093870785E48093A9
:1021B000880784E48093890780E480938C071092D9
:1021C0009107109292071092930710929407109221
:1021D0009507109296071092970710929807E2ECD5
:1021E000F6E08FEF9FEFDC011282138214821582DA
:1021F000168217821086118683879487A587B687F3
:102200008787908BA18BB28B128611821082739676
:1022100027E0E038F20741F78DE090E00E94F317E5
:10222000FC01138212828DEA92E0918380831186F1
:1022300087E2848384E1828784E083871486F09335
:10224000BF06E093BE061092C0061092C10685E25A
:102250008093AA051092AC051092B9061092B806A8
:102260001092BB061092BA061092BD061092BC06E0
:1022700061E070E090E080E00E9418190097F1F1B1
:102280009093B9068093B8061092BB061092BA06D6
:102290002091BC063091BD06232B11F4FC01108265
:1022A0001092BD061092BC0663EC72E08091B806F5
:1022B0009091B9060C94021A81E08E0F8093B706B4
:1022C000E093B10725E0E29FF0011124E558F94FB2
:1022D00088EB9BE09283818349CF81E08E0F8093CE
:1022E000B706E093B20785E0E89FF0011124E558B6
:1022F000F94F88EB9BE09283818340CF8091B806B1
:102300009091B906009711F00E948F181092B906AB
:102310001092B8061092BD061092BC061092BB0631
:102320001092BA060895CF93DF9300D000D0CDB7B6
:10233000DEB7789484B5826084BD84B5816084BD45
:1023400085B5826085BD85B5816085BD80916E0053
:10235000816080936E001092810080918100826084
:1023600080938100809181008160809381008091C1
:1023700080008160809380008091B10084608093B0
:10238000B1008091B00081608093B0008091910095
:102390008260809391008091910081608093910090
:1023A000809190008160809390008091A100826074
:1023B0008093A1008091A10081608093A100809111
:1023C000A00081608093A0008091210182608093B1
:1023D0002101809121018160809321018091200160
:1023E00081608093200180917A00846080937A00DC
:1023F00080917A00826080937A0080917A00816077
:1024000080937A0080917A00806880937A0010929D
:10241000C1000E94A40189E392E09A838983A98183
:10242000BA816D917D918D919D91BA83A9838D0122
:102430000450110920E030E048E455E40E94E01522
:1024400022E133E84FEB51E40E944117F801608329
:1024500071838283938389819A8181579240F9F6AF
:10246000E1E0F2E0FA83E983A981BA816D917D917F
:102470008D919D91BA83A9838D01045011092BED93
:102480003FE049E450E40E94E0152DEC3CEC44E1CF
:1024900051E40E94E01520E030E048E455E40E9459
:1024A000E01529E238EA46E855E40E944117F801B0
:1024B000608371838283938389819A81855392405B
:1024C00099F60E94A40161E0809181070E9478033F
:1024D00060E0809181070E940B0360E0809180079B
:1024E0000E94780386EC93E090938B0780938A0791
:1024F00010922B0310922A031092A3031092C5038B
:102500000E94390383EF91E090934E0380934D0333
:1025100084EF91E0909352038093510380E090E127
:10252000A0E0B0E080938D0790938E07A0938F0773
:10253000B09390078AE090E0A0E0B0E0809391072C
:1025400090939207A0939307B093940780E090E054
:10255000A0E0B0E48093950790939607A093970727
:10256000B093980760E070E185E00E94B5046FE9E0
:1025700079E380E00E94B50402E817E0E0E8F7E0C4
:10258000FA83E983B0E4AB2EB2E0BB2E86E8882E56
:1025900082E0982E9BECE92E97E0F92ED801129656
:1025A0009C91F80181918F01A981BA8159968C93F0
:1025B00059975A969C9361E00E94780361E0E98103
:1025C000FA81828D0E947803C980DA80FDE1CF0E06
:1025D000D11CD80115969C91159713968C91E98181
:1025E000FA81858F968F61E00E94780360E0A9816F
:1025F000BA815E968C910E94780361E0E981FA814C
:10260000858D0E940B037FB6F8948091F3028111AF
:1026100025C0F5018491F4019491E82FF0E0EE0FCC
:10262000FF1FE354FE4FA591B4918C91982321F4A0
:1026300061E085E30E940B0361E085E30E9478037B
:102640008CB580618CBD8CB580648CBD61E084E309
:102650000E94780361E083E30E9478038091F30293
:102660008F5F8093F3027FBEC7010197F1F760E0AF
:10267000A981BA815D968C910E940B0388E80E9423
:10268000A00783E00E94A00761E0E981FA81858DBF
:102690000E940B03C7010197F1F7C6010E94A7072B
:1026A00089819A8102969A8389838458974009F098
:1026B00075CF05EA17E0E1EAF7E0FA83E98360E025
:1026C000D8018D918D010E947803B7E0093A1B076C
:1026D000B1F745EAE42E47E0F42E01EA17E055E0B1
:1026E000D52E6CE0B62E72E0C72EE981FA81808982
:1026F0008C3008F049C0A08461E08A2D0E947803E4
:10270000A981BA8150968C91D89EF0011124E55888
:10271000F94F2A2D2F739081907C922B90831382F6
:1027200014826B2D0E94C0168B9DA001112430E0F5
:1027300020E0BA01620F731FD69EF001D79EF00D04
:102740001124E558F94F908196FD12C02F5F3F4F3D
:102750002C30310571F781110BC010928000C092AE
:1027600081001092850010928400C6BAC0926F005A
:10277000A981BA815096EC91DE9EF0011124E558B2
:10278000F94F808180648083E981FA819685848510
:10279000D80152968C93529753969C9360E00E9476
:1027A000780361E0F80183890E94780360E0D80132
:1027B00053968C910E940B03E981FA813196FA833A
:1027C000E9830E5F1F4FE016F10609F08ECFF894F3
:1027D0001092200189E08093210180E293E09093A0
:1027E000290180932801109225011092240182E092
:1027F0008093730078948093A9051092AD05809121
:10280000AA0560E00E94780301E010E08DE10E94DB
:10281000E202892B31F010920003109376020093AC
:1028200075028CE10E94E202892B41F00E94AA0805
:1028300081E0809300030E945406E8CF809100035A
:10284000882309F44BC10E9488088091FE02909170
:10285000FF022091FC023091FD028217930781F55F
:10286000880F991F880F991FFC01E75CFD4F60815D
:1028700071818281938142E00E941E0A81EC92E084
:102880000E94CD09E091FE02F091FF02EE0FFF1FC2
:10289000EE0FFF1FEF5FFD4F608171818281938199
:1028A00042E00E941E0A81EC92E00E94CD098091D4
:1028B000FC029091FD0201969093FD028093FC0230
:1028C0008091750290917602009761F0019709F46A
:1028D000CBC084EC92E00E94CD0981EC92E00E9492
:1028E000CD09A9CF8091FE029091FF029E838D8336
:1028F000FC01EE0FFF1FEE0FFF1FEF5FFD4FC080CB
:10290000D180E280F38020E030E0A901C701B60168
:102910000E94E91746015701181624F0B7FAB0943F
:10292000B7F8B0946091F8027091F9028091FA02C0
:102930009091FB0297FF07C09095809570956195E7
:102940007F4F8F4F9F4F0E9481152B013C01A501A6
:1029500094010E947A1587FF75C06091F40270910E
:10296000F5028091F6029091F70297FF07C09095CB
:102970008095709561957F4F8F4F9F4F0E94811575
:1029800069837A838B839C839B01AC01C501B4016D
:102990000E94E91718160CF055C020E030E0A9019C
:1029A000C701B6010E947A1587FF21C0A5019401D5
:1029B000C301B2010E94E9172DEC3CEC4CEC5EE344
:1029C0006FEF87FF2BC029813A814B815C81C50164
:1029D000B4010E947A152DEC3CEC4CEC5EE36FEFF9
:1029E00018160CF060E081E00E94C30824CF20E0BC
:1029F00030E0A901C701B6010E94E91718160CF0D2
:102A00001ACFA3019201C701B6010E947A151816C8
:102A10003CF02DEC3CEC4CEC5EE361E080E0E4CF7C
:102A200029813A814B815C81C701B6010E947A15E8
:102A30002DEC3CEC4CEC5EE360E018160CF461E02D
:102A40008FEFD2CF0E94B408AD81BE811196B093B2
:102A5000FF02A093FE020E94EC040E94AA081093B9
:102A6000760200937502E7CEE090FE02F090FF023E
:102A7000F701EE0FFF1FEE0FFF1FE75CFD4FFA831C
:102A8000E9836091F8027091F9028091FA029091C5
:102A9000FB020E9481159B01AC01A981BA816D9155
:102AA0007D918D919C910E94E91720E030E040E8F3
:102AB0005FE361E018160CF496CFBEE0EB16F1046C
:102AC00010F0109200030E94B4080E94EC040E94CF
:102AD000AA081092760210927502ADCE0E94B40838
:102AE000AACE8091B8069091B906009711F00C9487
:102AF0008F1808950E94BC1508F481E00895E894A9
:102B000009C097FB3EF490958095709561957F4F35
:102B10008F4F9F4F9923A9F0F92F96E9BB279395E3
:102B2000F695879577956795B795F111F8CFFAF4F3
:102B3000BB0F11F460FF1BC06F5F7F4F8F4F9F4F24
:102B400016C0882311F096E911C0772321F09EE882
:102B5000872F762F05C0662371F096E8862F70E0E8
:102B600060E02AF09A95660F771F881FDAF7880FC2
:102B70009695879597F90895990F0008550FAA0B18
:102B8000E0E8FEEF16161706E807F907C0F0121680
:102B90001306E407F50798F0621B730B840B950B83
:102BA00039F40A2661F0232B242B252B21F40895D8
:102BB0000A2609F4A140A6958FEF811D811D089575
:102BC0000E94F3150C9464160E94561638F00E9469
:102BD0005D1620F0952311F00C944D160C945316AD
:102BE00011240C9498160E94751670F3959FC1F3EA
:102BF000950F50E0551F629FF001729FBB27F00DAB
:102C0000B11D639FAA27F00DB11DAA1F649F6627FF
:102C1000B00DA11D661F829F2227B00DA11D621F4E
:102C2000739FB00DA11D621F839FA00D611D221F08
:102C3000749F3327A00D611D231F849F600D211DEC
:102C4000822F762F6A2F11249F5750409AF0F1F06F
:102C500088234AF0EE0FFF1FBB1F661F771F881FD8
:102C600091505040A9F79E3F510580F00C944D16AD
:102C70000C9498165F3FE4F3983ED4F386957795CD
:102C80006795B795F795E7959F5FC1F7FE2B880F7E
:102C9000911D9695879597F9089597F99F6780E814
:102CA00070E060E008959FEF80EC089500240A949E
:102CB0001616170618060906089500240A94121617
:102CC0001306140605060895092E0394000C11F44A
:102CD000882352F0BB0F40F4BF2B11F460FF04C0F7
:102CE0006F5F7F4F8F4F9F4F089557FD9058440F50
:102CF000551F59F05F3F71F04795880F97FB991F5B
:102D000061F09F3F79F08795089512161306140617
:102D1000551FF2CF4695F1DF08C0161617061806A4
:102D2000991FF1CF86957105610508940895E8947F
:102D3000BB2766277727CB0197F90895A1E21A2EC2
:102D4000AA1BBB1BFD010DC0AA1FBB1FEE1FFF1F4F
:102D5000A217B307E407F50720F0A21BB30BE40B9F
:102D6000F50B661F771F881F991F1A9469F76095E6
:102D70007095809590959B01AC01BD01CF010895A0
:102D8000991B79E004C0991F961708F0961B881FBD
:102D90007A95C9F780950895EE0FFF1F881F8BBFA6
:102DA0000790F691E02D19945058BB27AA270E944E
:102DB000EC160C9464160E94561638F00E945D16AC
:102DC00020F039F49F3F19F426F40C9453160EF4B6
:102DD000E095E7FB0C944D16E92F0E94751658F309
:102DE000BA17620773078407950720F079F4A6F5F0
:102DF0000C9497160EF4E0950B2EBA2FA02D0B0114
:102E0000B90190010C01CA01A0011124FF27591B2F
:102E100099F0593F50F4503E68F11A16F040A22F35
:102E2000232F342F4427585FF3CF469537952795A6
:102E3000A795F0405395C9F77EF41F16BA0B620BA5
:102E4000730B840BBAF09150A1F0FF0FBB1F661FEC
:102E5000771F881FC2F70EC0BA0F621F731F841F2F
:102E600048F4879577956795B795F7959E3F08F055
:102E7000B0CF9395880F08F09927EE0F9795879517
:102E800008950E9455170C9464160E945D1658F020
:102E90000E94561640F029F45F3F29F00C944D161D
:102EA00051110C9498160C9453160E94751668F3E1
:102EB0009923B1F3552391F3951B550BBB27AA27F3
:102EC00062177307840738F09F5F5F4F220F331F2D
:102ED000441FAA1FA9F335D00E2E3AF0E0E832D0F5
:102EE00091505040E695001CCAF72BD0FE2F29D0F8
:102EF000660F771F881FBB1F261737074807AB07CA
:102F0000B0E809F0BB0B802DBF01FF2793585F4F3E
:102F10003AF09E3F510578F00C944D160C9498169B
:102F20005F3FE4F3983ED4F3869577956795B79520
:102F3000F7959F5FC9F7880F911D9695879597F92B
:102F40000895E1E0660F771F881FBB1F62177307A4
:102F50008407BA0720F0621B730B840BBA0BEE1FB9
:102F600088F7E09508950E94BA176894B1110C94FF
:102F7000981608950E947D1688F09F5798F0B92FF3
:102F80009927B751B0F0E1F0660F771F881F991F9E
:102F90001AF0BA95C9F714C0B13091F00E94971693
:102FA000B1E008950C949716672F782F8827B85FA3
:102FB00039F0B93FCCF3869577956795B395D9F7F6
:102FC0003EF490958095709561957F4F8F4F9F4F00
:102FD00008950E94BC1508F48FEF08950E94BC1557
:102FE000880B990B08950F931F93CF93DF93823033
:102FF000910510F482E090E0E091B907F091BA07F2
:1030000030E020E0B0E0A0E0309799F421153105E0
:1030100009F44AC0281B390B24303105D8F58A81C0
:103020009B816115710589F1FB0193838283FE0108
:1030300011C0408151810281138148175907E0F086
:103040004817590799F4109761F012960C9312974C
:1030500013961C933296CF01DF91CF911F910F9160
:1030600008950093B9071093BA07F4CF21153105DD
:1030700051F04217530738F0A901DB019A01BD0155
:10308000DF01F801C1CFEF01F9CF9093BA07809328
:10309000B907CDCFFE01E20FF31F81939193225028
:1030A000310939832883D7CF2091B7073091B807EA
:1030B000232B41F42091790230917A023093B807A2
:1030C0002093B707209177023091780221153105BE
:1030D00041F42DB73EB740917B0250917C02241BF6
:1030E000350BE091B707F091B807E217F307A0F4AA
:1030F0002E1B3F0B2817390778F0AC014E5F5F4F4E
:103100002417350748F04E0F5F1F5093B8074093C0
:10311000B707819391939FCFF0E0E0E09CCFCF93EE
:10312000DF930097E9F0FC01329713821282A0919D
:10313000B907B091BA07ED0130E020E01097A1F493
:1031400020813181820F931F2091B7073091B807FA
:103150002817390709F061C0F093B807E093B70763
:10316000DF91CF910895EA01CE17DF07E8F54A8194
:103170005B819E0141155105B1F7E901FB83EA83AB
:1031800049915991C40FD51FEC17FD0761F4808157
:1031900091810296840F951FE9019983888382812A
:1031A00093819B838A83F0E0E0E012968D919C915D
:1031B00013970097B9F52D913C911197CD01029687
:1031C000820F931F2091B7073091B807281739074E
:1031D00039F6309751F51092BA071092B907B093AB
:1031E000B807A093B707BCCFD383C2834081518176
:1031F000840F951FC817D90761F44E5F5F4F888110
:103200009981480F591F518340838A819B81938301
:1032100082832115310509F0B0CFF093BA07E0930E
:10322000B9079ECFFD01DC01C0CF13821282D7CF38
:103230004F925F926F927F928F929F92AF92BF92C6
:10324000CF92DF92EF92FF920F931F93CF93DF9372
:103250008C01009799F4CB01DF91CF911F910F91D1
:10326000FF90EF90DF90CF90BF90AF909F908F90A6
:103270007F906F905F904F900C94F317FC01E60FD6
:10328000F71F9C0122503109E217F30708F4AEC082
:10329000D901CD91DC911197C617D70720F1C53020
:1032A000D10578F0CE0104978617970750F0C61B1A
:1032B000D70B2297C193D1936D937C93CF010E943A
:1032C0008F18C801DF91CF911F910F91FF90EF9060
:1032D000DF90CF90BF90AF909F908F907F906F9036
:1032E0005F904F9008955B01AC1ABD0A4C018C0EA3
:1032F0009D1EA091B907B091BA07512C412CF12C19
:10330000E12C109731F58091B7079091B807881597
:10331000990509F05CC04616570608F058C0809120
:10332000770290917802009741F48DB79EB7409153
:103330007B0250917C02841B950BE817F90708F07B
:1033400055C0F093B807E093B707F9017183608324
:10335000B8CF8D919C91119712966C9012971396FD
:103360007C901397A815B90559F56C0142E0C40E7D
:10337000D11CCA14DB0420F1AC014A195B09DA0143
:103380001296159780F06282738251834083D9012F
:103390006D937C93E114F10471F0D7011396FC93C3
:1033A000EE9312978ECF22968C0F9D1FF901918379
:1033B0008083F301EFCFF093BA07E093B90781CF91
:1033C0004816590608F42C017D01D3019ACFCB0190
:1033D0000E94F3177C01009749F0AE01B8010E94EA
:1033E000F919C8010E948F1887016BCF10E000E027
:1033F00068CFFB01DC0102C001900D9241505040AA
:10340000D8F70895FB01DC0101900D920020E1F74F
:10341000089511E0C0E7D1E000E006C0802FFE0172
:103420000E94CC162196011DC137D10780E0080704
:06343000A9F7F894FFCF9C
:10343600FF0000B4420000B4C20000B4C20000B4F1
:103446004200003442000034C20000394300003418
:1034560042000034C20000B4C20000B4420000B40E
:10346600420000B4C2000000000000C9420000464D
:103476004200003E42000046420000014200005069
:103486004200005A4200005A420000504200000129
:10349600420000464200003E42000046420000C98B
:1034A600420000000001000000BB078000363738EC
:1034B600391B1D1A1C000000004C021F024C08F5A7
:1034C6000118020502F60100000000E40521056767
:1034D600053106980576058A050000000064082176
:1034E600054C084B086E616E00696E66006F766665
:1034F600000D0A004552524F52204E4F204D4F4468
:04350600452100005B
:00000001FF
