:100000000C9471010C94A2010C94A2010C94A20115
:100010000C94A2010C94A2010C94A2010C94A201D4
:100020000C94A2010C9454080C9454080C94540899
:100030000C94A2010C94CC090C94A2010C94A20182
:100040000C94A2010C94460C0C94A2010C94A201F5
:100050000C94A2010C94A2010C94A2010C948209AC
:100060000C94A2010C943B0B0C94110B0C94A20168
:100070000C94A2010C94A2010C94A2010C94A20174
:100080000C94A2010C94A2010C94A2010C94A20164
:100090000C94A2010C94A2010C94A2010C945E0891
:1000A0000C94A2010C94A2010C94A2010C94A20144
:1000B0000C94A2010C94A2010C94A2010C94650B67
:1000C0000C94A2010C94A2010C94A2010C94E70AD6
:1000D0000C94BD0A0C94A2010C94930A0C94690A26
:1000E0000C94A2010C94CC020C94BA060C94EE0C65
:1000F0000C94F2060C94DE020C94D9020C94AE021D
:100100000C941F070C94DB070C949F020C943D0782
:100110000C94C3070C943A050C94A7020C94990212
:100120000C940B070C94C2020C94D4020C94811111
:100130000C949A060C94D0020C94C2070C94AB0653
:100140000C94E8060C94F3010C94DE060C94FC0667
:100150000C94B4020C94B8020C941F020C94F50198
:100160000C94D6060C94CE060C942C050C944C02E0
:100170000C9418020C9433070C94D3050C94C40609
:100180000C94B0060C94DA020C94AB020C94F401BB
:100190000C9409050C94BE020C94C3040C948605BF
:1001A0000C9418050C9415070C9429070C94C6029E
:1001B0000C9405020C94F6010C94A302000020009C
:1001C0002300260029002C002F003200000100002F
:1001D0000301060109010200002100240027002A72
:1001E000002D003000330001010000040107010A66
:1001F0000100002200250028002B002E00310034D1
:100200000002010000050108010B010505050507B5
:100210000508080808020202020A0A080804040481
:1002200004010101010101010103030303030303AD
:1002300003040707070C0C0C0C0C0C0C0C0202023C
:100240000206060606060606060B0B0B0B0B0B0B2F
:100250000B010210202008081020401020408002CE
:1002600001020108040201010204081020408080FC
:100270004020100804020180040201804020100880
:100280000402010804020101020408102040800158
:100290000204081020408000000A0B02090C0D0E19
:1002A0000807030401000000000000000000000037
:1002B000000000000000000000000000000000003E
:1002C00000000012111000000000000000000000FB
:1002D0000000000000000000000000000000EE0C24
:1002E000811111241FBECFEFD1E2DEBFCDBF00E0F0
:1002F0000CBF12E0A0E0B2E0E2E7FFE200E00BBFDB
:1003000002C007900D92A636B107D9F727E0A6E6FE
:10031000B2E001C01D92A034B207E1F711E0C0E7DE
:10032000D1E000E006C021970109802FFE010E9464
:100330007812CF36D10780E00807A9F70E94D60EC1
:100340000C94A7170C940000E1E9F4E0A089B189AE
:1003500082E08C93A485B5851C92A685B7858FEC29
:100360008C93108EA489B58986E08C93A289B38979
:100370008C9180618C93A289B3898C9188608C93D5
:10038000A289B3898C9180688C930288F389E02DCF
:1003900080818F7D808308952091D402260F33279A
:1003A000331F21323105ECF420912103FC0190E050
:1003B00080E0243069F082E00895A091D402219178
:1003C000AC014E545D4FA40FB52FB11D2C93019677
:1003D000861798F38091D402680F6093D40280E06E
:1003E000089581E00895089508950895E091B00278
:1003F0008091AF02E81730F4F0E0E157FD4F8081C3
:1004000090E008958FEF9FEF08959091B002809152
:10041000AF022FEF3FEF981748F4E92FF0E0E157D4
:10042000FD4F208130E09F5F9093B002C901089595
:100430008091AF029091B002891B990B0895CF92E1
:10044000DF92EF92FF920F931F93CF93DF937C0184
:10045000CB018A0120912703222389F0EB016B0154
:10046000C40ED51ECC15DD0569F06991D701ED915B
:10047000FC910190F081E02DC7011995F3CF642F15
:100480000E94CC01C801DF91CF911F910F91FF9085
:10049000EF90DF90CF900895CF93DF931F92CDB769
:1004A000DEB76983209127032223F9F020914A03C4
:1004B000203258F021E030E0FC013383228390E0C9
:1004C00080E00F90DF91CF91089580912803E82F6D
:1004D000F0E0E75DFC4F998190838F5F8093280364
:1004E00080934A0381E090E0ECCF61E0CE01019679
:1004F0000E94CC01F7CF8150823108F05AC0E82F1A
:10050000F0E08827E957FD4F8F4F0C947812A7022F
:10051000AB0299029F02A302D902AE02B402B80252
:10052000BE02C202C602CC02D002D902D402DA0252
:10053000DE02809180008F77809380000895809103
:1005400080008F7DF9CF80918000877FF5CF84B5C3
:100550008F7784BD089584B58F7DFBCF8091B000E7
:100560008F778093B00008958091B0008F7DF9CF90
:10057000809190008F7780939000089580919000F3
:100580008F7DF9CF80919000877FF5CF8091A0007B
:100590008F778093A00008958091A0008F7DF9CF80
:1005A0008091A000877FF5CF809120018F77809385
:1005B00020010895809120018F7DF9CF8091200145
:1005C000877FF5CF1F93CF93DF93282F30E0F9017A
:1005D000E956FD4F8491F901EF5AFD4FD491F9018D
:1005E000E55FFD4FC491CC23A9F0162F81110E9425
:1005F0007B02EC2FF0E0EE0FFF1FEF50FE4FA591B6
:10060000B4918FB7F894EC91111108C0D095DE2306
:10061000DC938FBFDF91CF911F910895DE2BF8CF30
:100620001092210381E0809320031092FB0261E08D
:1006300084E10E94E20261E085E10E94E202E9EBCE
:10064000F0E080818E7F808380818D7F808388E44D
:100650008093B80085E48093BC000895CF93DF9326
:1006600091E09093B1028823B9F0C091B800D09185
:10067000BA008091BC008A7B8093BC0060E084E17A
:100680000E94E20260E085E10E94E2020E94100303
:10069000D093BA00C093B800DF91CF910895CF9363
:1006A000DF9390E0FC01EF5AFD4F2491855F9D4F51
:1006B000FC0184918823D1F090E0880F991FFC0100
:1006C000E952FE4FA591B491FC01EF50FE4FC59148
:1006D000D49161110EC09FB7F8948C91E22FE095F0
:1006E0008E238C932881E223E8839FBFDF91CF91F3
:1006F00008958FB7F894EC91E22BEC938FBFF6CF6F
:100700003FB7F89480918B0290918C02A0918D025A
:10071000B0918E0226B5A89B05C02F3F19F0019617
:10072000A11DB11D3FBFBA2FA92F982F8827BC014B
:10073000CD01620F711D811D911D42E0660F771F73
:10074000881F991F4A95D1F70895CF92DF92EF92B3
:10075000FF920F931F93CF93DF93D0914A0381E0D1
:10076000D13208F09CC0C09149030E9480036B0104
:100770007C018091210381116CC082E08093210370
:1007800081E0809320038FEF80931F0310921E035C
:10079000D0931D03A9E2B3E0EDEFF2E080E0D813BF
:1007A0008DC01092FC028091FC02CC0FC82BC0932C
:1007B000FC028091FB02813009F084C01092FB02A0
:1007C0000E9480036B017C018091FC028093BB003E
:1007D0008091230390912403A0912503B0912603D7
:1007E000892B8A2B8B2BA1F00E948003009123037D
:1007F0001091240320912503309126036C197D0963
:100800008E099F09061717072807390708F442C001
:100810008091BC0083FDD8CF85EC8093BC000E9402
:1008200080036B017C0180912103823009F44CC06C
:1008300080911F038F3F09F469C080911F038032AC
:1008400009F466C080911F03803309F463C084E01B
:1008500026C08091230390912403A0912503B09199
:100860002603892B8A2B8B2B09F483CF0E948003CC
:100870000091230310912403209125033091260336
:100880006C197D098E099F09061717072807390774
:1008900008F06FCF809122030E942E0385E0109212
:1008A000280310924A0310922703DF91CF911F91E2
:1008B0000F91FF90EF90DF90CF9008959D919193CD
:1008C0008F5F6DCF85EEA9CF809123039091240394
:1008D000A0912503B0912603892B8A2B8B2B09F439
:1008E000A2CF0E9480030091230310912403209142
:1008F0002503309126036C197D098E099F0906177F
:1009000017072807390708F08ECFC4CF80E0C7CF7C
:1009100082E0C5CF83E0C3CF0F931F93CF93DF93C4
:10092000162F072FC5E0D7E0AA85BB859C8521E05F
:1009300020932703909349031092280310924A03AF
:10094000ED91FC9111970190F081E02D682FCD0180
:1009500019958A859B85DC01ED91FC910190F081D0
:10096000E02D602F19958A859B85DC01ED91FC9126
:100970000190F081E02D612F1995DF91CF911F91AA
:100980000F910C94A503AF92BF92CF92DF92EF929A
:10099000FF920F931F93CF93DF936C017B018B0129
:1009A000040F151FEB015E01AE18BF08C017D10779
:1009B00059F06991D601ED91FC910190F081E02D03
:1009C000C6011995892B79F7C501DF91CF911F9148
:1009D0000F91FF90EF90DF90CF90BF90AF90089570
:1009E000FC01A089B1898C91A689B78982FD0FC0CD
:1009F0009C91818D8F5F8F73228D821749F0A18D1D
:100A0000AE0FBF2FB11D5D969C93818F08958C9181
:100A10000895FC01538D448D252F30E0842F90E004
:100A2000821B930B541710F0CF96089501970895E9
:100A3000FC01918D828D981761F0A28DAE0FBF2FB2
:100A4000B11D5D968C91928D9F5F9F73928F90E008
:100A500008958FEF9FEF0895FC01918D828D981777
:100A600031F0828DE80FF11D858D90E008958FEFB4
:100A70009FEF0895FC01918D228D892F90E0805C7D
:100A80009F4F821B91098F739927089587E593E003
:100A90000E943A0521E0892B09F420E0822F089575
:100AA00084EF93E00E943A0521E0892B09F420E0CD
:100AB000822F089581E994E00E943A0521E0892B74
:100AC00009F420E0822F0895FC01A48DA80FB92F0E
:100AD000B11DA35ABF4F2C91848D90E001968F7366
:100AE0009927848FA689B7892C93A089B1898C9185
:100AF000837080648C93938D848D981306C00288D4
:100B0000F389E02D80818F7D80830895EF92FF929D
:100B10000F931F93CF93DF93EC0181E0888F9B8D20
:100B20008C8D98131AC0E889F989808185FF15C0DA
:100B30009FB7F894EE89FF896083E889F9898081FD
:100B40008370806480839FBF81E090E0DF91CF91CC
:100B50001F910F91FF90EF900895F62E0B8D10E0EE
:100B60000F5F1F4F0F731127E02E8C8D8E110CC05D
:100B70000FB607FCFACFE889F989808185FFF5CFA8
:100B8000CE010E946405F1CFEB8DEC0FFD2FF11D1E
:100B9000E35AFF4FF0829FB7F8940B8FEA89FB89E5
:100BA00080818062CFCFCF93DF93EC01888D882343
:100BB000B9F0AA89BB89E889F9898C9185FD03C0C0
:100BC000808186FD0DC00FB607FCF7CF8C9185FFA5
:100BD000F2CF808185FFEDCFCE010E946405E9CF81
:100BE000DF91CF910895F0E0E0E0199480E090E08B
:100BF000892B29F00E945A0581110E94000080E093
:100C000090E0892B49F080E090E0892B29F00E9448
:100C1000000081110E9400000E94500581110E9475
:100C2000F30580E090E0892B29F00E9446058111B0
:100C30000C94000008958F929F92AF92BF92CF9232
:100C4000DF92EF92FF920F931F93CF93DF93EC010C
:100C50006A017B0120E030E04FE753E4CB01B601AD
:100C60000E94AE114B015C0120E030E0A9010E941E
:100C7000B61218168CF5C501B4010E9480128B01C2
:100C8000B98020E030E0A901C701B6010E94B61288
:100C900060E018160CF061E08B2D0E94E2020F3F1D
:100CA000110509F0ECF41127C88161E08C2F0E9436
:100CB0004F0301151105B9F460E08C2FDF91CF913E
:100CC0001F910F91FF90EF90DF90CF90BF90AF906A
:100CD0009F908F900C94E202C501B4019058CDCF43
:100CE0000FEF10E0E1CF0F3F110511F461E0E5CF08
:100CF000EC2FF0E0E956FD4FE491E150E23108F0CD
:100D0000BCC0F0E08827E857F94F8F4F0C94781259
:100D10009A06AB06B006BA06C4063D07CE06D6064E
:100D2000DE06E806F206FC060B0715073D071F075F
:100D30002907330784B5806884BD07BDDF91CF9153
:100D40001F910F91FF90EF90DF90CF90BF90AF90E9
:100D50009F908F90089584B5806284BD08BDEECFCA
:100D600080918000806880938000109389000093B8
:100D70008800E4CF8091800080628093800010938F
:100D80008B0000938A00DACF809180008860809386
:100D9000800010938D0000938C00D0CF8091B00024
:100DA00080688093B0000093B300C8CF8091B000FA
:100DB00080628093B0000093B400C0CF8091900017
:100DC0008068809390001093990000939800B6CFAC
:100DD0008091900080628093900010939B0000931C
:100DE0009A00ACCF8091900088608093900010931F
:100DF0009D0000939C00A2CF8091A000806880930A
:100E0000A0008091A0008F7B8093A0001093A90088
:100E10000093A80093CF8091A00080628093A000EF
:100E20001093AB000093AA0089CF8091A000886046
:100E30008093A0001093AD000093AC007FCF809111
:100E400020018068809320011093290100932801DC
:100E500075CF8091200180628093200110932B0137
:100E600000932A016BCF809120018860809320013C
:100E700010932D0100932C0161CF003811050CF067
:100E800035CF1ACF8EBD00000DB407FEFDCF8EB555
:100E90000895AF92BF92CF92DF92EF92FF920F939D
:100EA0001F93CF93DF93CDB7DEB760970FB6F8945B
:100EB000DEBF0FBECDBF6C0160E0FC0180810E94EF
:100EC000E20280E60E9442079E012F5F3F4F7901B8
:100ED0005E0131E1A30EB11C870180E00E94420750
:100EE00090E0B0E0A0E0F80181939193A193B193D9
:100EF0008F01EA15FB0589F761E0F60180810E9408
:100F0000E20280E090E0DC01F701419151916191B2
:100F100071917F01BA2FA92F982F8827840F951FD1
:100F2000A61FB71FE017F10779F79C01AD016627EF
:100F30007727CB01621B730B840B950B60960FB662
:100F4000F894DEBF0FBECDBFDF91CF911F910F91FF
:100F5000FF90EF90DF90CF90BF90AF900895FC018D
:100F6000248131E030932703209349031092280312
:100F700010924A038485682B8BE493E00E944C0214
:100F80000C94A503089590E080E008950F931F93BB
:100F9000CF938C01C62F64600E94AF076C2F6B7FCC
:100FA000C8010E94AF0783EC90E00197F1F7CF9161
:100FB0001F910F9108950F931F93CF93DF938C018F
:100FC000C62FD62FD07FD1606D2F0E94AF076D2F17
:100FD000C8010E94C60780E1C89FE0011124C160DA
:100FE0006C2FC8010E94AF076C2FC8010E94C60772
:100FF00081E090E0DF91CF911F910F910895CF9301
:10100000DF93FC0101900020E9F73197AF01481B05
:10101000590BBC0181E994E00E94C304EC0142E059
:1010200050E060E472E081E994E00E94C3048C0F18
:101030009D1FDF91CF91089585ED8093BC00809135
:10104000230390912403A0912503B09126030796D2
:10105000A11DB11D23E0B695A795979587952A9573
:10106000D1F72091BC0024FD03C010922103089504
:10107000409123035091240360912503709126032E
:10108000452B462B472B69F30097A105B10541F08D
:1010900025E32A95F1F700000197A109B109E1CFF5
:1010A000809122030C942E031F920F920FB60F9281
:1010B00011240F900FBE0F901F9018951F920F9242
:1010C0000FB60F9211240BB60F922F933F934F93AD
:1010D0005F936F937F938F939F93AF93BF93EF93A0
:1010E000FF938091B900887F803609F44DC008F0E5
:1010F00040C0883209F4A9C028F5803109F49DC0A8
:10110000C8F4882309F4FBC0883009F496C0FF9125
:10111000EF91BF91AF919F918F917F916F915F916F
:101120004F913F912F910F900BBE0F900FBE0F90DC
:101130001F901895883109F488C0803241F7809358
:101140001F0314C0803409F49DC040F48033B9F308
:101150008833E9F680931F0385ECB0C0803509F42D
:1011600085C0883509F496C0883489F60E941C0829
:10117000CECF883909F48CC038F5883729F050F47F
:10118000883611F0803719F683E08093210310929E
:10119000F80257C0883809F47BC0803919F08038CC
:1011A00009F0B5CF8091F802803208F071C0E0916B
:1011B000F80281E08E0F8093F8028091BB00F0E08E
:1011C000E852FD4F80833DC0803B39F0E0F4803A27
:1011D00009F479C0883A09F09ACF84E0809321031A
:1011E0001092D5021092D402E091D202F091D30273
:1011F00019958091D40281110FC081E08093D402AF
:101200001092B20209C0803C09F4A6CF883C09F4D0
:10121000A3CF883B09F07BCFE091D50281E08E0F10
:101220008093D502F0E0EE54FD4F80818093BB00A7
:101230009091D5028091D40229C08091FC028093C4
:10124000BB0085EC8093BC0062CF90911E0380911F
:101250001D03981758F5E0911E0381E08E0F8093CF
:101260001E03F0E0E350FD4F8081E9CFE0911E03C3
:1012700081E08E0F80931E038091BB00F0E0E3506D
:10128000FD4F808390911E0380911D039817C8F233
:1012900085E8D8CFE0911E0381E08E0F80931E0376
:1012A0008091BB00F0E0E350FD4F808380912003EC
:1012B00081115CCF81E08093FB0284EA8093BC00C3
:1012C0001092210324CF85EC8093BC00109221035F
:1012D0008091F802803230F4E091F802F0E0E852B8
:1012E000FD4F10826091F80270E0E091D602F0911B
:1012F000D70288ED92E019951092F80208CF10926B
:101300001F0334CF1F920F920FB60F9211242F9309
:101310003F938F939F93AF93BF9380918702909158
:101320008802A0918902B0918A023091860223E05E
:10133000230F2D3758F50196A11DB11D209386026C
:101340008093870290938802A0938902B0938A02C7
:1013500080918B0290918C02A0918D02B0918E02AF
:101360000196A11DB11D80938B0290938C02A093D6
:101370008D02B0938E02BF91AF919F918F913F915B
:101380002F910F900FBE0F901F90189526E8230FF6
:101390000296A11DB11DD2CF1F920F920FB60F92D0
:1013A00011240BB60F922F933F934F935F936F933C
:1013B0007F938F939F93AF93BF93EF93FF9380910E
:1013C000810290918202A0918302B0918402892BC4
:1013D0008A2B8B2BD1F1909180028091000089277C
:1013E000809300008091810290918202A0918302FB
:1013F000B0918402181619061A061B069CF48091F7
:10140000810290918202A0918302B091840201979F
:10141000A109B1098093810290938202A093830273
:10142000B0938402FF91EF91BF91AF919F918F9103
:101430007F916F915F914F913F912F910F900BBED4
:101440000F900FBE0F901F90189580910002E6ED4F
:10145000F1E0E4919FEF90930002E230E9F040F474
:10146000EE2389F0E13091F060E00E94E202DACFF1
:10147000E43049F110F1E530B9F7909173009D7FA8
:1014800090937300F1CF10926E00EECF90916F00A9
:101490009D7F90936F00E8CF909170009D7F909317
:1014A000700091E09093B0009091B100987F9460AB
:1014B0009093B1001092B300D7CF909171009D7FAF
:1014C00090937100D1CF909172009D7F90937200A4
:1014D000CBCF1F920F920FB60F9211240BB60F9223
:1014E0002F933F934F935F936F937F938F939F932C
:1014F000AF93BF93EF93FF9387E593E00E9464055A
:10150000FF91EF91BF91AF919F918F917F916F91DB
:101510005F914F913F912F910F900BBE0F900FBE97
:101520000F901F9018951F920F920FB60F921124D3
:101530000BB60F922F933F934F935F936F937F93CD
:101540008F939F93AF93BF93EF93FF9387E593E0C0
:101550000E94F004FF91EF91BF91AF919F918F9105
:101560007F916F915F914F913F912F910F900BBEA3
:101570000F900FBE0F901F9018951F920F920FB6ED
:101580000F9211240BB60F922F933F934F935F93BB
:101590006F937F938F939F93AF93BF93EF93FF933B
:1015A00084EF93E00E946405FF91EF91BF91AF91AA
:1015B0009F918F917F916F915F914F913F912F916B
:1015C0000F900BBE0F900FBE0F901F9018951F929B
:1015D0000F920FB60F9211240BB60F922F933F93D9
:1015E0004F935F936F937F938F939F93AF93BF932B
:1015F000EF93FF9384EF93E00E94F004FF91EF914B
:10160000BF91AF919F918F917F916F915F914F911A
:101610003F912F910F900BBE0F900FBE0F901F9018
:1016200018951F920F920FB60F9211240BB60F92BE
:101630002F933F934F935F936F937F938F939F93DA
:10164000AF93BF93EF93FF9381E994E00E94640509
:10165000FF91EF91BF91AF919F918F917F916F918A
:101660005F914F913F912F910F900BBE0F900FBE46
:101670000F901F9018951F920F920FB60F92112482
:101680000BB60F922F933F934F935F936F937F937C
:101690008F939F93AF93BF93EF93FF9381E994E070
:1016A0000E94F004FF91EF91BF91AF919F918F91B4
:1016B0007F916F915F914F913F912F910F900BBE52
:1016C0000F900FBE0F901F9018951F920F920FB69C
:1016D0000F9211240BB60F922F933F934F935F936A
:1016E0006F937F938F939F93AF93BF93CF93DF932A
:1016F000EF93FF9320912F0530E0F901E956FD4F5C
:101700008491F901EF5AFD4FD491F901E55FFD4F46
:10171000C491CC2379F081110E947B02EC2FF0E080
:10172000EE0FFF1FE454FE4FA591B491EC91ED2311
:1017300081E009F480E020913305309134052F5F7A
:101740003F4F309334052093330590913205953601
:1017500018F096E090932E0590912E05943009F4A0
:1017600066C0B8F49230F1F0933009F444C090911F
:101770003105992309F46BC081117EC08091300539
:10178000882309F463C08091300561E00E94E20281
:101790005EC0953009F457C0963049F791E09093B8
:1017A000FF054FC08111E3CF2091330530913405FF
:1017B0002436310528F41092340510923305D7CF22
:1017C0001092FF0510923205E091320591E09E0FD4
:1017D00090933205F0E02091330530913405EE0FFF
:1017E000FF1FE25DFA4F3087278310923405109275
:1017F000330593E019C0813009F0B9CFE09132058B
:1018000091E09E0F90933205F0E0209133053091E6
:101810003405EE0FFF1FE25DFA4F308727831092E9
:1018200034051092330594E090932E05A0CF8823C1
:1018300059F220913305309134052536310508F4ED
:1018400096CF95E0F1CF811192CFB5CF2F9AFF912E
:10185000EF91DF91CF91BF91AF919F918F917F9148
:101860006F915F914F913F912F910F900BBE0F9011
:101870000FBE0F901F90189580913005882321F09E
:101880008091300560E082CF2F98E1CF1F920F92B8
:101890000FB60F9211240BB60F922F933F934F93D5
:1018A0005F936F937F938F939F93AF93BF93CF93E8
:1018B000DF93EF93FF9380917F02C0913C06D0E0CD
:1018C00087FF23C0109285001092840080917F02D0
:1018D0008F5F80937F0280917F02082E000C990B0E
:1018E0008C179D0724F480917F028C3074F18091D5
:1018F00084009091850084349C4908F465C08091EF
:10190000840090918500049661C080917F02082E2A
:10191000000C990B8C179D07CCF630917F0225E0C7
:101920003203F0011124E050FA4F808186FFCECFC0
:1019300030917F023203F0011124E050FA4F808190
:1019400060E08F730E94E202C1CF80918400909189
:10195000850030917F0225E03203F0011124E05030
:10196000FA4F41815281840F951F90938900809393
:10197000880030917F023203F0011124E050FA4FC9
:10198000808186FF0CC030917F023203F001112468
:10199000E050FA4F808161E08F730E94E202FF9174
:1019A000EF91DF91CF91BF91AF919F918F917F91F7
:1019B0006F915F914F913F912F910F900BBE0F90C0
:1019C0000FBE0F901F90189580E49CE990938900BA
:1019D000809388008FEF80937F02E1CF10924E03B7
:1019E00010924D0388EE93E0A0E0B0E080934F03A7
:1019F00090935003A0935103B093520324E132E03B
:101A000030934C0320934B0310925A0310925903C6
:101A100080935B0390935C03A0935D03B0935E039C
:101A200026E232E0309358032093570345E351E018
:101A3000509364034093630344E351E0509366037F
:101A40004093650340E351E050936803409367037C
:101A500041E351E050936A034093690342E351E04C
:101A600050936C0340936B0346E351E050936E0335
:101A700040936D03109270031092710310927203E1
:101A8000109273031092F7031092F6038093F803F9
:101A90009093F903A093FA03B093FB033093F503FB
:101AA0002093F40345ED50E050930104409300046B
:101AB00044ED50E0509303044093020440ED50E0A5
:101AC000509305044093040441ED50E05093070403
:101AD0004093060442ED50E05093090440930804FB
:101AE00046ED50E050930B0440930A0410920D040D
:101AF00010920E0410920F0410921004109294048D
:101B0000109293048093950490939604A093970465
:101B1000B0939804309392042093910485EC90E064
:101B200090939E0480939D0484EC90E09093A00495
:101B300080939F0480EC90E09093A2048093A10492
:101B400081EC90E09093A4048093A30482EC90E055
:101B50009093A6048093A50486EC90E09093A8044B
:101B60008093A7041092AA041092AB041092AC04C4
:101B70001092AD048091080290910902A0910A028E
:101B8000B0910B028093260790932707A093280714
:101B9000B093290780910C0290910D02A0910E0242
:101BA000B0910F0280932A0790932B07A0932C07E4
:101BB000B0932D0784E080932E0787E080932F0752
:101BC0001092300784EB8093310786E180933207CF
:101BD00088E18093330787E18093340789E180931C
:101BE0003507E0913C06EC3008F4A9C08FEF8093F4
:101BF0003607E0913C06EC3008F4B2C08FEF8093DA
:101C000037078CE08093050784E28093060786E01F
:101C10008093070785E0809308078FE18093090789
:101C20008EE180930A0783E280930B0782E2809320
:101C30000C0785E480930D0784E480930E0780E40D
:101C40008093110710921607109217071092180729
:101C50001092190710921A0710921B0710921C0776
:101C600010921D07E7E4F6E08FEF9FEFDC01128290
:101C7000138214821582168217821086118683873A
:101C80009487A587B6878787908BA18BB28B1286A6
:101C900011821082739627E0E530F20741F78DE05C
:101CA00090E00E94BB12FC011382128288E392E052
:101CB00091838083118687E2848384E1828784E034
:101CC00083871486F0934406E093430610924506FA
:101CD0001092460685E280932F05109231051092EE
:101CE0003E0610923D061092400610923F0610925A
:101CF00042061092410661E070E090E080E00E94B0
:101D0000E0130097F1F190933E0680933D06109208
:101D1000400610923F062091410630914206232B47
:101D200011F4FC011082109242061092410662E406
:101D300072E080913D0690913E060C94CA1481E0B9
:101D40008E0F80933C06E093360725E0E29FF0017A
:101D50001124E050FA4F88EB9BE09283818349CFB6
:101D600081E08E0F80933C06E093370785E0E89F83
:101D7000F0011124E050FA4F88EB9BE092838183BD
:101D800040CF80913D0690913E06009711F00E9451
:101D9000571310923E0610923D0610924206109282
:101DA00041061092400610923F060895CF93DF93AC
:101DB000CDB7DEB7E2970FB6F894DEBF0FBECDBF4A
:101DC000789484B5826084BD84B5816084BD85B516
:101DD000826085BD85B5816085BD80916E00816022
:101DE00080936E00109281008091810082608093C8
:101DF00081008091810081608093810080918000CA
:101E00008160809380008091B10084608093B100F4
:101E10008091B00081608093B000809191008260D9
:101E200080939100809191008160809391008091D6
:101E300090008160809390008091A10082608093E7
:101E4000A1008091A10081608093A1008091A000F9
:101E500081608093A00080912101826080932101A4
:101E60008091210181608093210180912001816016
:101E70008093200180917A00846080937A00809121
:101E80007A00826080937A0080917A0081608093EA
:101E90007A0080917A00806880937A001092C10065
:101EA0000E94A4010E94A40161E0809106070E94A3
:101EB0004F0360E0809106070E94E20260E080919B
:101EC00005070E944F038BE493E0909310078093E3
:101ED0000F071092B0021092AF02109228031092D6
:101EE0004A030E94100383EF91E09093D302809302
:101EF000D20284EF91E09093D7028093D60280E0E3
:101F000090E1A0E0B0E08093120790931307A093B4
:101F10001407B09315078AE090E0A0E0B0E080934A
:101F2000160790931707A0931807B093190780E03E
:101F300090E0A0E0B0E480931A0790931B07A09371
:101F40001C07B0931D0760E070E185E00E948C04DF
:101F50006FE979E380E00E948C04B7E0EB2EB7E0F4
:101F6000FB2E05E017E089E0A82E87E0B82E90E46C
:101F7000492E92E0592E26E8622E22E0722E3BEC8A
:101F8000C32E37E0D32E4BE8842E99249394D701A7
:101F900012969C91F70181917F01D80159968C93FB
:101FA00059975A969C9361E00E944F0361E0F801B3
:101FB000828D0E944F03D70115969C911597139619
:101FC0008C91F801858F968F61E00E944F0360E04D
:101FD000D8015E968C910E944F0361E0F801858DD7
:101FE0000E94E2023FB6F89480918502811125C0DB
:101FF000F2018491F3019491E82FF0E0EE0FFF1FBE
:10200000E952FE4FA591B4918C91982321F461E09F
:1020100085E30E94E20261E085E30E944F038CB5F4
:1020200080618CBD8CB580648CBD61E084E30E94CE
:102030004F0361E083E30E944F03809185028F5F2D
:10204000809385023FBEC6010197F1F760E0D80199
:102050005D968C910E94E20288E80E94420783E02C
:102060000E94420761E0F801858D0E94E202C601EC
:102070000197F1F760E0D8015D968C910E94E20231
:1020800088E90E94420780E00E94420780E00E94A7
:10209000420780E00E94420780E00E94420761E020
:1020A000F801858D0E94E202C4010197F1F760E01A
:1020B000D8015D968C910E94E20280EE0E94420758
:1020C00061E0F801858D0E94E2020E5F1F4FA016AD
:1020D000B10609F05CCF7AE2E72E77E0F72E06E250
:1020E00017E060E0D7018D917D010E944F03BEE2B1
:1020F000EB16B7E0FB06A9F72EE2E22E27E0F22E60
:102100003AE2C32E37E0D32E45E0B42E5CE0952EA4
:1021100062E0A62EF70181907F0187818C3008F064
:1021200046C061E0882D0E944F03D70117968C911D
:10213000B89EF0011124E050FA4F282D2F739081A2
:10214000907C922B908313821482692D0E946C12D2
:10215000899DA001112430E020E0BA01620F731FB5
:10216000B69EF001B79EF00D1124E050FA4F908119
:1021700096FD12C02F5F3F4F2C30310571F7811152
:102180000BC010928000A0928100109285001092E6
:102190008400A6BAA0926F00D7011796EC91BE9E5C
:1021A000F0011124E050FA4F808180648083F701B0
:1021B00095818381D80152968C93529753969C9324
:1021C00060E00E944F0361E0F80183890E944F03A1
:1021D00060E0D80153968C910E94E2020E5F1F4F7F
:1021E000C016D10609F096CFF8941092200189E02C
:1021F0008093210180E293E090932901809328014C
:10220000109225011092240182E08093730078944B
:1022100080932E051092320580912F0560E00E9478
:102220004F0393E4E92E92E0F92E8E010F5F1F4FCA
:1022300080910102882391F046E656E666E67FE348
:102240008EE197E00E941B064BE256EF67E67FEBBC
:1022500080E297E00E941B06109201020E94800318
:102260002B013C0188EE882E83E0982EA12CB12C06
:102270000E9480036419750986099709683E7340B6
:1022800081059105A8F3B1E08B1A9108A108B10866
:10229000E8EE4E0EE3E05E1E611C711C8114910499
:1022A000A104B10429F784E297E00E944907D62EE1
:1022B000C72EB82EA92E82E297E00E944907AF925E
:1022C000BF92CF92DF929B01AC0188279927DC0156
:1022D000821B930BA40BB50BBF93AF939F938F936C
:1022E000FF92EF921F930F930E94D114C8010E9496
:1022F000FF070E94F6050FB6F894DEBF0FBECDBFF4
:1023000097CF80913D0690913E06009711F00C9476
:1023100057130895990F0008550FAA0BE0E8FEEF38
:1023200016161706E807F907C0F012161306E40799
:10233000F50798F0621B730B840B950B39F40A2692
:1023400061F0232B242B252B21F408950A2609F470
:10235000A140A6958FEF811D811D08950E94C11196
:102360000C9432120E94241238F00E942B1220F09A
:10237000952311F00C941B120C94211211240C942F
:1023800066120E94431270F3959FC1F3950F50E0BF
:10239000551F629FF001729FBB27F00DB11D639F17
:1023A000AA27F00DB11DAA1F649F6627B00DA11DBD
:1023B000661F829F2227B00DA11D621F739FB00D63
:1023C000A11D621F839FA00D611D221F749F3327D3
:1023D000A00D611D231F849F600D211D822F762F6C
:1023E0006A2F11249F5750409AF0F1F088234AF049
:1023F000EE0FFF1FBB1F661F771F881F91505040B5
:10240000A9F79E3F510580F00C941B120C946612A4
:102410005F3FE4F3983ED4F3869577956795B7953B
:10242000F795E7959F5FC1F7FE2B880F911D969555
:10243000879597F9089597F99F6780E870E060E0C5
:1024400008959FEF80EC089500240A94161617064D
:1024500018060906089500240A9412161306140695
:1024600005060895092E0394000C11F4882352F0F8
:10247000BB0F40F4BF2B11F460FF04C06F5F7F4FB0
:102480008F4F9F4F089557FD9058440F551F59F097
:102490005F3F71F04795880F97FB991F61F09F3F51
:1024A00079F087950895121613061406551FF2CF7A
:1024B0004695F1DF08C0161617061806991FF1CFCA
:1024C00086957105610508940895E894BB276627F1
:1024D0007727CB0197F90895991B79E004C0991FDC
:1024E000961708F0961B881F7A95C9F7809508956E
:1024F000EE0FFF1F881F8BBF0790F691E02D1994F8
:102500000E9487126894B1110C94661208950E947B
:102510004B1288F09F5798F0B92F9927B751B0F018
:10252000E1F0660F771F881F991F1AF0BA95C9F757
:1025300014C0B13091F00E946512B1E008950C947E
:102540006512672F782F8827B85F39F0B93FCCF331
:10255000869577956795B395D9F73EF490958095D4
:10256000709561957F4F8F4F9F4F08950E948A11FC
:1025700008F48FEF08950F931F93CF93DF9382306A
:10258000910510F482E090E0E0913E07F0913F0762
:1025900030E020E0B0E0A0E0309799F4211531055B
:1025A00009F44AC0281B390B24303105D8F58A813B
:1025B0009B816115710589F1FB0193838283FE0183
:1025C00011C0408151810281138148175907E0F001
:1025D0004817590799F4109761F012960C931297C7
:1025E00013961C933296CF01DF91CF911F910F91DB
:1025F000089500933E0710933F07F4CF211531054E
:1026000051F04217530738F0A901DB019A01BD01CF
:10261000DF01F801C1CFEF01F9CF90933F0780931D
:102620003E07CDCFFE01E20FF31F8193919322501D
:10263000310939832883D7CF20913C0730913D075A
:10264000232B41F4209104023091050230933D0781
:1026500020933C072091020230910302211531059D
:1026600041F42DB73EB74091060250910702241B5A
:10267000350BE0913C07F0913D07E217F307A0F41A
:102680002E1B3F0B2817390778F0AC014E5F5F4FC8
:102690002417350748F04E0F5F1F50933D074093B6
:1026A0003C07819391939FCFF0E0E0E09CCFCF93E4
:1026B000DF930097E9F0FC01329713821282A09118
:1026C0003E07B0913F07ED0130E020E01097A1F404
:1026D00020813181820F931F20913C0730913D076B
:1026E0002817390709F061C0F0933D07E0933C07D4
:1026F000DF91CF910895EA01CE17DF07E8F54A810F
:102700005B819E0141155105B1F7E901FB83EA8325
:1027100049915991C40FD51FEC17FD0761F48081D1
:1027200091810296840F951FE901998388838281A4
:1027300093819B838A83F0E0E0E012968D919C91D7
:1027400013970097B9F52D913C911197CD01029601
:10275000820F931F20913C0730913D0728173907BE
:1027600039F6309751F510923F0710923E07B0931B
:102770003D07A0933C07BCCFD383C28340815181E6
:10278000840F951FC817D90761F44E5F5F4F88818A
:102790009981480F591F518340838A819B8193837C
:1027A00082832115310509F0B0CFF0933F07E09304
:1027B0003E079ECFFD01DC01C0CF13821282D7CF2E
:1027C0004F925F926F927F928F929F92AF92BF9241
:1027D000CF92DF92EF92FF920F931F93CF93DF93ED
:1027E0008C01009799F4CB01DF91CF911F910F914C
:1027F000FF90EF90DF90CF90BF90AF909F908F9021
:102800007F906F905F904F900C94BB12FC01E60F8D
:10281000F71F9C0122503109E217F30708F4AEC0FC
:10282000D901CD91DC911197C617D70720F1C5309A
:10283000D10578F0CE0104978617970750F0C61B94
:10284000D70B2297C193D1936D937C93CF010E94B4
:102850005713C801DF91CF911F910F91FF90EF9017
:10286000DF90CF90BF90AF909F908F907F906F90B0
:102870005F904F9008955B01AC1ABD0A4C018C0E1D
:102880009D1EA0913E07B0913F07512C412CF12C89
:10289000E12C109731F580913C0790913D07881508
:1028A000990509F05CC04616570608F058C080919B
:1028B000020290910302009741F48DB79EB74091B8
:1028C000060250910702841B950BE817F90708F0E0
:1028D00055C0F0933D07E0933C07F9017183608395
:1028E000B8CF8D919C91119712966C901297139678
:1028F0007C901397A815B90559F56C0142E0C40EF8
:10290000D11CCA14DB0420F1AC014A195B09DA01BD
:102910001296159780F06282738251834083D901A9
:102920006D937C93E114F10471F0D7011396FC933D
:10293000EE9312978ECF22968C0F9D1FF9019183F3
:102940008083F301EFCFF0933F07E0933E0781CF01
:102950004816590608F42C017D01D3019ACFCB010A
:102960000E94BB127C01009749F0AE01B8010E94A1
:10297000C114C8010E94571387016BCF10E000E01B
:1029800068CFFB01DC0102C001900D924150504024
:10299000D8F70895FB01DC0101900D920020E1F7CA
:1029A00008950F931F93CF93DF93CDB7DEB72E9784
:1029B0000FB6F894DEBF0FBECDBF0E891F8986E02B
:1029C0008C831A8309838FEF9FE79E838D83AE01EB
:1029D000465E5F4F688D798DCE0101960E9401158C
:1029E0002F813885020F131FF80110822E960FB623
:1029F000F894DEBF0FBECDBFDF91CF911F910F9135
:102A000008952F923F924F925F926F927F928F9292
:102A10009F92AF92BF92CF92DF92EF92FF920F936D
:102A20001F93CF93DF9300D000D000D01F921F924E
:102A3000CDB7DEB77C013B018A01FC01178216820B
:102A4000838181FFDDC1CE0101965C01F701938195
:102A5000F30193FD859193FF81913F01882309F450
:102A600053C1853239F493FD859193FF81913F01E4
:102A7000853229F4B70190E00E941917E7CF912C15
:102A8000212C312CFFE1F31538F08B3211F190F449
:102A9000803209F1833229F137FC3CC020ED280F48
:102AA0002A3050F536FE20C08AE0989E200D112471
:102AB000922E06C08D3291F0803371F7689430F811
:102AC000F30193FD859193FF81913F018111DACF4D
:102AD00021C0689431F8689432F8F2CF689433F8E2
:102AE000EFCF689434F8ECCFEAE02E9E200D11244D
:102AF000222E689435F8E4CF8E3229F436FC04C1D6
:102B0000689436F8DDCF8C3619F4689437F8D8CF4E
:102B10008836B1F2982F9F7D95549330E0F083363C
:102B2000A1F18337C1F1833509F063C02801F2E0D8
:102B30004F0E511CF801C080D180692D70E036FC29
:102B400002C06FEF7FEFC6010E9403174C0168942B
:102B500037F882010AC00C5F1F4FFFE3F983882416
:102B60008394912C6501E89437F833FE2DC0522CE4
:102B70008114910471F5552009F468CFB70180E202
:102B800090E00E9419175A94F6CFF801808189834A
:102B90000E5F1F4FE4CF2801F2E04F0E511CF801E9
:102BA000C080D180692D70E036FC02C06FEF7FEFEE
:102BB000C6010E940E174C018201D5CFB70180E2F9
:102BC00090E00E9419172A942814190409F0B0F70C
:102BD000CECFF60137FC859137FE81916F01B701A9
:102BE00090E00E94191751105A94F1E08F1A910841
:102BF000BFCF843619F0893609F077C0F80137FE67
:102C00006BC060817181828193810C5F1F4FF32DB6
:102C1000FF763F2E97FF09C090958095709561953E
:102C20007F4F8F4F9F4F689437F82AE030E0A5011F
:102C30000E944917C82ECA188C2C432C36FE0CC093
:102C4000E89440F8C91440F434FE05C032FC03C0D7
:102C5000F32DFE7E4F2E892C44FEAAC0FE01EC0D02
:102C6000F11D8081803309F09CC0242D297E422EE5
:102C7000842D8870582E43FCAAC040FEA4C09C2C12
:102C8000821418F42C0C922C981844FEA6C0B7019C
:102C900080E390E00E94191742FE09C088E790E0A7
:102CA00041FE02C088E590E0B7010E941917C914DF
:102CB00008F49FC0CA94D12C9FEFC91AD90ACA0C34
:102CC000DB1CF60182916F01B70190E00E94191799
:102CD000AC14BD04B1F74FCF60817181072E000C99
:102CE000880B990B0E5F1F4F92CFD32CE894D4F82A
:102CF0002AE030E08537E1F1232D297FD22E8F366F
:102D0000A9F1F0F4883551F1F701868197812B966E
:102D10000FB6F894DEBF0FBECDBFDF91CF911F91EC
:102D20000F91FF90EF90DF90CF90BF90AF909F906A
:102D30008F907F906F905F904F903F902F9008956D
:102D4000803749F0883701F7D4FE02C06894D2F882
:102D500020E130E00DC06894D4F8F6CF34FE03C013
:102D6000822F8660D82E20E132E002C028E030E0D9
:102D7000F801D7FE0FC060817181828193810C5F61
:102D80001F4FA5010E944917C82ECA183D2CE89470
:102D900037F852CF6081718190E080E00E5F1F4F65
:102DA000F0CF42FC02C0839463CF8394839460CFBE
:102DB000842D867809F45CCFF6CFB70180E290E0ED
:102DC0000E94191783948214C0F3512C5ECF522CA9
:102DD0005818821408F459CFF8CF842D867809F456
:102DE00066CF8BE241FE80E247FC8DE2B70190E0C6
:102DF0005CCFB70180E390E00E9419179A9457CFF7
:102E00008FEF9FEF84CFFC0105906150704001105F
:102E1000D8F7809590958E0F9F1F0895FC01615003
:102E2000704001900110D8F7809590958E0F9F1FEC
:102E300008950F931F93CF93DF93182F092FEB0162
:102E40008B8181FD09C01FEF0FEF812F902FDF9144
:102E5000CF911F910F91089582FF14C02E813F8161
:102E60008C819D81281739073CF4E881F981CF01D5
:102E700001969983888310838E819F8101969F8319
:102E80008E83E3CFE885F985812F1995892BA1F3EE
:102E9000DACFFA01AA27283051F1203181F1E894E4
:102EA0006F936E7F6E5F7F4F8F4F9F4FAF4FB1E03D
:102EB0003ED0B4E03CD0670F781F891F9A1FA11D38
:102EC000680F791F8A1F911DA11D6A0F711D811D39
:102ED000911DA11D20D009F468943F912AE0269FFE
:102EE00011243019305D3193DEF6CF010895462F5D
:102EF0004770405D4193B3E00FD0C9F7F6CF462F3E
:102F00004F70405D4A3318F0495D31FD40524193A6
:102F100002D0A9F7EACFB4E0A69597958795779563
:102F20006795BA95C9F700976105710508959B01EA
:102F3000AC010A2E06945795479537952795BA9573
:102F4000C9F7620F731F841F951FA01D089511E01C
:102F5000C0E7D1E000E006C0802FFE010E94781299
:102F60002196011DC137D10780E00807A9F7F89421
:022F7000FFCF91
:102F7200FF01000040078000363738391B1D1A1C3C
:102F8200000000004C021F02C307F50118020502EF
:102F9200F601000000008605C3040905D3053A05C1
:102FA20018052C0500000000DB07C304C307C20795
:102FB2000D0A00456E636F646575722031203A20F8
:102FC200256C640A456E636F646575722032203A1F
:062FD20020256C640A00DA
:00000001FF
