:100000000C9471010C94A2010C94A2010C94A20115
:100010000C94A2010C94A2010C94A2010C94A201D4
:100020000C94A2010C94380B0C94380B0C94380BE4
:100030000C94A2010C94B00C0C94A2010C94A2019B
:100040000C94A2010C94090F0C94A2010C94A2012F
:100050000C94A2010C94A2010C94A2010C94660CC5
:100060000C94A2010C941F0E0C94F50D0C94A2019B
:100070000C94A2010C94A2010C94A2010C94A20174
:100080000C94A2010C94A2010C94A2010C94A20164
:100090000C94A2010C94A2010C94A2010C94420BAA
:1000A0000C94A2010C94A2010C94A2010C94A20144
:1000B0000C94A2010C94A2010C94A2010C94490E80
:1000C0000C94A2010C94A2010C94A2010C94CB0DEF
:1000D0000C94A10D0C94A2010C94770D0C944D0D71
:1000E0000C94A2010C9414070C94A4020C947B02AF
:1000F0000C94B2020C94B6020C940C070C94FA0601
:100100000C9428070C9432070C94E6060C949E027B
:100110000C94CD010C947F020C94E1060C94240203
:100120000C9473070C9409060C9404070C943C0877
:100130000C9483020C945F070C94B10F0C94F90497
:100140000C94CE010C9457170C94BC050C946205CA
:100150000C94B1020C9486020C9470050C94410727
:100160000C9496020C94F0010C9490020C941E07CF
:100170000C9471020C94D0060C9455070C944E0507
:100180000C94F0060C9469070C94DD010C94A80201
:100190000C9423080C94AC020C9477020C943F0549
:1001A0000C94F7010C94CC010C948C020C94CB01B0
:1001B0000C949A020C944B070C9424080200002122
:1001C00000240027002A002D003000330001010028
:1001D00000040107010A0100002200250028002B6D
:1001E000002E003100340002010000050108010B5F
:1001F00001000020002300260029002C002F0032DF
:1002000000000100000301060109010505050507BD
:100210000508080808020202020A0A080804040481
:1002200004010101010101010103030303030303AD
:1002300003040707070C0C0C0C0C0C0C0C0202023C
:100240000206060606060606060B0B0B0B0B0B0B2F
:100250000B010210202008081020401020408002CE
:1002600001020108040201010204081020408080FC
:100270004020100804020180040201804020100880
:100280000402010804020101020408102040800158
:100290000204081020408000000A0B02090C0D0E19
:1002A0000807030401000000000000000000000037
:1002B000000000000000000000000000000000003E
:1002C00000000012111000000000000000000000FB
:1002D0000000000000000000000000000000B10F5E
:1002E000571711241FBECFEFD1E2DEBFCDBF00E014
:1002F0000CBF13E0A0E0B2E0E2EBF8E300E00BBFDC
:1003000002C007900D92A631B107D9F727E0A6E108
:10031000B3E001C01D92AC3FB207E1F711E0C0E7C6
:10032000D1E000E006C021970109802FFE010E9464
:10033000B218CF36D10780E00807A9F70E949911BB
:100340000C94471C0C94000020919003260F332737
:10035000331F21323105ECF42091DD03FC0190E0E4
:1003600080E0243069F082E00895A091900321910B
:10037000AC0142595C4FA40FB52FB11D2C930196CF
:10038000861798F380919003680F6093900380E044
:10039000089581E00895089508950895E0916C030B
:1003A00080916B03E81730F4F0E0E55BFC4F80814F
:1003B00090E008958FEF9FEF089590916C038091E6
:1003C0006B032FEF3FEF981748F4E92FF0E0E55B60
:1003D000FC4F208130E09F5F90936C03C90108952A
:1003E00080916B0390916C03891B990B0895CF92B8
:1003F000DF92EF92FF920F931F93CF93DF937C01D5
:10040000CB018A012091E303222389F0EB016B01E8
:10041000C40ED51ECC15DD0569F06991D701ED91AB
:10042000FC910190F081E02DC7011995F3CF642F65
:100430000E94A401C801DF91CF911F910F91FF90FD
:10044000EF90DF90CF900895CF93DF931F92CDB7B9
:10045000DEB769832091E3032223F9F0209106049B
:10046000203258F021E030E0FC013383228390E019
:1004700080E00F90DF91CF9108958091E403E82F01
:10048000F0E0EB51FC4F998190838F5F8093E40300
:100490008093060481E090E0ECCF61E0CE0101960C
:1004A0000E94A401F7CF8150823108F05AC0E82F92
:1004B000F0E08827E15AFD4F8F4F0C94B2187F026D
:1004C0008302710277027B02B10286028C029002E3
:1004D00096029A029E02A402A802B102AC02B202E3
:1004E000B602809180008F7780938000089580917C
:1004F00080008F7DF9CF80918000877FF5CF84B514
:100500008F7784BD089584B58F7DFBCF8091B00037
:100510008F778093B00008958091B0008F7DF9CFE0
:10052000809190008F778093900008958091900043
:100530008F7DF9CF80919000877FF5CF8091A000CB
:100540008F778093A00008958091A0008F7DF9CFD0
:100550008091A000877FF5CF809120018F778093D5
:1005600020010895809120018F7DF9CF8091200195
:10057000877FF5CFCF93DF93282F30E0F901E9563D
:10058000FD4F8491F901EF5AFD4FD491F901E55FD8
:10059000FD4FC491CC23A1F081110E945302EC2F96
:1005A000F0E0EE0FFF1FEF50FE4FA591B491EC91DC
:1005B000ED2381E090E009F480E0DF91CF91089590
:1005C00080E090E0FACF1F93CF93DF93282F30E0A5
:1005D000F901E956FD4F8491F901EF5AFD4FD4918D
:1005E000F901E55FFD4FC491CC23A9F0162F8111CD
:1005F0000E945302EC2FF0E0EE0FFF1FE952FE4F76
:10060000A591B4918FB7F894EC91111108C0D095D1
:10061000DE23DC938FBFDF91CF911F910895DE2BF6
:10062000F8CF1092DD0381E08093DC031092B703D2
:1006300061E084E10E94E30261E085E10E94E3025F
:10064000E9EBF0E080818E7F808380818D7F8083E5
:1006500088E48093B80085E48093BC000895CF932C
:10066000DF9391E090936D038823B9F0C091B800B7
:10067000D091BA008091BC008A7B8093BC0060E07E
:1006800084E10E94E30260E085E10E94E3020E94AF
:100690001103D093BA00C093B800DF91CF910895B1
:1006A000CF93DF9390E0FC01EF5AFD4F2491855FDB
:1006B0009D4FFC0184918823D1F090E0880F991F11
:1006C000FC01E354FE4FA591B491FC01E952FE4FA9
:1006D000C591D49161110EC09FB7F8948C91E22F0F
:1006E000E0958E238C932881E223E8839FBFDF91DE
:1006F000CF9108958FB7F894EC91E22BEC938FBFD4
:10070000F6CF3FB7F8948091470390914803A091AA
:100710004903B0914A0326B5A89B05C02F3F19F0A5
:100720000196A11DB11D3FBFBA2FA92F982F882771
:10073000BC01CD01620F711D811D911D42E0660F4C
:10074000771F881F991F4A95D1F70895CF92DF929E
:10075000EF92FF920F931F93CF93DF93D0910604F4
:1007600081E0D13208F09CC0C09105040E94810351
:100770006B017C018091DD0381116CC082E080936C
:10078000DD0381E08093DC038FEF8093DB03109225
:10079000DA03D093D903A5EEB3E0E9EBF3E080E010
:1007A000D8138DC01092B8038091B803CC0FC82B1A
:1007B000C093B8038091B703813009F084C01092D0
:1007C000B7030E9481036B017C018091B803809381
:1007D000BB008091DF039091E003A091E103B09111
:1007E000E203892B8A2B8B2BA1F00E9481030091BD
:1007F000DF031091E0032091E1033091E2036C19D3
:100800007D098E099F09061717072807390708F47D
:1008100042C08091BC0083FDD8CF85EC8093BC00A2
:100820000E9481036B017C018091DD03823009F419
:100830004CC08091DB038F3F09F469C08091DB03DA
:10084000803209F466C08091DB03803309F463C011
:1008500084E026C08091DF039091E003A091E10342
:10086000B091E203892B8A2B8B2B09F483CF0E9452
:1008700081030091DF031091E0032091E1033091A7
:10088000E2036C197D098E099F09061717072807CF
:10089000390708F06FCF8091DE030E942F0385E0B7
:1008A0001092E403109206041092E303DF91CF91BB
:1008B0001F910F91FF90EF90DF90CF9008959D9141
:1008C00091938F5F6DCF85EEA9CF8091DF039091DB
:1008D000E003A091E103B091E203892B8A2B8B2BDB
:1008E00009F4A2CF0E9481030091DF031091E0037D
:1008F0002091E1033091E2036C197D098E099F0973
:10090000061717072807390708F08ECFC4CF80E0F5
:10091000C7CF82E0C5CF83E0C3CF0F931F93CF93A0
:10092000DF93162F072FC1ECD7E0AA85BB859C85E6
:1009300021E02093E303909305041092E4031092C6
:100940000604ED91FC9111970190F081E02D682F44
:10095000CD0119958A859B85DC01ED91FC91019073
:10096000F081E02D602F19958A859B85DC01ED9142
:10097000FC910190F081E02D612F1995DF91CF91CD
:100980001F910F910C94A6038F929F92AF92BF92EA
:10099000CF92DF92EF92FF920E9481034B015C01A4
:1009A00084E6C82ED12CE12CF12C0E948103681919
:1009B00079098A099B09683E734081059105A8F36E
:1009C00021E0C21AD108E108F10888EE880E83E020
:1009D000981EA11CB11CC114D104E104F10429F733
:1009E000FF90EF90DF90CF90BF90AF909F908F904F
:1009F0000895AF92BF92CF92DF92EF92FF920F9342
:100A00001F93CF93DF936C017B018B01040F151FA4
:100A1000EB015E01AE18BF08C017D10759F069910C
:100A2000D601ED91FC910190F081E02DC601199560
:100A3000892B79F7C501DF91CF911F910F91FF901D
:100A4000EF90DF90CF90BF90AF900895FC01A08908
:100A5000B1898C91A689B78982FD0FC09C91818D47
:100A60008F5F8F73228D821749F0A18DAE0FBF2F3C
:100A7000B11D5D969C93818F08958C910895FC0122
:100A8000538D448D252F30E0842F90E0821B930BF3
:100A9000541710F0CF96089501970895FC01918D99
:100AA000828D981761F0A28DAE0FBF2FB11D5D969C
:100AB0008C91928D9F5F9F73928F90E008958FEF3E
:100AC0009FEF0895FC01918D828D981731F0828DF2
:100AD000E80FF11D858D90E008958FEF9FEF089549
:100AE000FC01918D228D892F90E0805C9F4F821BAD
:100AF00091098F739927089583E194E00E9470050E
:100B000021E0892B09F420E0822F089580EB94E006
:100B10000E94700521E0892B09F420E0822F0895BE
:100B20008DE495E00E94700521E0892B09F420E016
:100B3000822F0895FC01A48DA80FB92FB11DA35ACF
:100B4000BF4F2C91848D90E001968F739927848FED
:100B5000A689B7892C93A089B1898C918370806410
:100B60008C93938D848D981306C00288F389E02DB1
:100B700080818F7D80830895EF92FF920F931F9362
:100B8000CF93DF93EC0181E0888F9B8D8C8D981340
:100B90001AC0E889F989808185FF15C09FB7F8944C
:100BA000EE89FF896083E889F98980818370806498
:100BB00080839FBF81E090E0DF91CF911F910F91E3
:100BC000FF90EF900895F62E0B8D10E00F5F1F4FF2
:100BD0000F731127E02E8C8D8E110CC00FB607FC01
:100BE000FACFE889F989808185FFF5CFCE010E948F
:100BF0009A05F1CFEB8DEC0FFD2FF11DE35AFF4F5E
:100C0000F0829FB7F8940B8FEA89FB89808180621C
:100C1000CFCFCF93DF93EC01888D8823B9F0AA89D9
:100C2000BB89E889F9898C9185FD03C0808186FDA7
:100C30000DC00FB607FCF7CF8C9185FFF2CF8081F6
:100C400085FFEDCFCE010E949A05E9CFDF91CF91CC
:100C50000895F0E0E0E0199480E090E0892B29F01D
:100C60000E94900581110E94000080E090E0892B95
:100C700049F080E090E0892B29F00E94000081116A
:100C80000E9400000E94860581110E94290680E0D2
:100C900090E0892B29F00E947C0581110C940000C2
:100CA00008958F929F92AF92BF92CF92DF92EF9270
:100CB000FF920F931F93CF93DF93EC016A017B01A7
:100CC00020E030E04FE753E4CB01B6010E94C617A5
:100CD0004B015C0120E030E0A9010E94271A1816A0
:100CE0008CF5C501B4010E9499198B01B98020E0EF
:100CF00030E0A901C701B6010E94271A60E018166A
:100D00000CF061E08B2D0E94E3020F3F110509F00A
:100D1000ECF41127C88161E08C2F0E94500301156B
:100D20001105B9F460E08C2FDF91CF911F910F91E5
:100D3000FF90EF90DF90CF90BF90AF909F908F90FB
:100D40000C94E302C501B4019058CDCF0FEF10E031
:100D5000E1CF0F3F110511F461E0E5CFEC2FF0E09A
:100D6000E956FD4FE491E150E23108F0BCC0F0E0FB
:100D70008827E254F94F8F4F0C94B218D006E10641
:100D8000E606F006FA06730704070C0714071E07A9
:100D90002807320741074B07730755075F076907A5
:100DA00084B5806884BD07BDDF91CF911F910F91FD
:100DB000FF90EF90DF90CF90BF90AF909F908F907B
:100DC000089584B5806284BD08BDEECF8091800017
:100DD0008068809380001093890000938800E4CF9E
:100DE0008091800080628093800010938B0000933C
:100DF0008A00DACF80918000886080938000109311
:100E00008D0000938C00D0CF8091B00080688093DB
:100E1000B0000093B300C8CF8091B000806280938F
:100E2000B0000093B400C0CF8091900080688093A0
:100E300090001093990000939800B6CF8091900095
:100E400080628093900010939B0000939A00ACCF37
:100E50008091900088608093900010939D00009393
:100E60009C00A2CF8091A00080688093A000809118
:100E7000A0008F7B8093A0001093A9000093A8008E
:100E800093CF8091A00080628093A0001093AB006C
:100E90000093AA0089CF8091A00088608093A00071
:100EA0001093AD000093AC007FCF8091200180684B
:100EB00080932001109329010093280175CF809120
:100EC000200180628093200110932B0100932A015E
:100ED0006BCF8091200188608093200110932D01B9
:100EE00000932C0161CF003811050CF035CF1ACFDB
:100EF0008EBD00000DB407FEFDCF8EB50895CF93D3
:100F0000DF93EC0160E088810E94E30288E90E949F
:100F1000780780E00E94780780E00E94780780E0F0
:100F20000E94780780E00E94780761E088810E9433
:100F3000E3028BE891E00197F1F760E088810E947D
:100F4000E30280EE0E94780761E08881DF91CF9113
:100F50000C94E302AF92BF92CF92DF92EF92FF9296
:100F60000F931F93CF93DF93CDB7DEB760970FB684
:100F7000F894DEBF0FBECDBF6C0160E0FC01808144
:100F80000E94E30280E60E9478079E012F5F3F4F98
:100F900079015E0131E1A30EB11C870180E00E945E
:100FA000780790E0B0E0A0E0F80181939193A193DD
:100FB000B1938F01EA15FB0589F761E0F6018081A5
:100FC0000E94E30280E090E0DC01F7014191519141
:100FD000619171917F01BA2FA92F982F8827840FD3
:100FE000951FA61FB71FE017F10779F79C01AD0108
:100FF00066277727CB01621B730B840B950B6096DA
:101000000FB6F894DEBF0FBECDBFDF91CF911F9119
:101010000F91FF90EF90DF90CF90BF90AF90089529
:10102000FC01248131E03093E30320930504109206
:10103000E403109206048485682B87E094E00E9404
:1010400024020C94A603089590E080E008950F9385
:101050001F93CF938C01C62F64600E9410086C2FE1
:101060006B7FC8010E94100883EC90E00197F1F7B4
:10107000CF911F910F9108950F931F93CF93DF93FB
:101080008C01C62FD62FD07FD1606D2F0E94100803
:101090006D2FC8010E94270880E1C89FE00111243C
:1010A000C1606C2FC8010E9410086C2FC8010E94FB
:1010B000270881E090E0DF91CF911F910F91089573
:1010C0008EED97E00E94AA079B01AC018827992723
:1010D000DC01821B930BA40BB50B80933A03909316
:1010E0003B03A0933C03B0933D0380EE97E00E9446
:1010F000AA07609336037093370380933803909365
:10110000390308958EED97E00E947F0780EE97E007
:101110000E947F070C94600840E050E0BA018AED1D
:1011200097E00E94510640E050E060E070E88CEDEE
:1011300097E00C9451064F925F926F927F928F923C
:101140009F92AF92BF92CF92DF92EF92FF92CF9396
:10115000DF9300D000D0CDB7DEB78E836D836901F9
:101160007A018091750290917602019709F0E1C0B1
:1011700040903A0350903B0360903C0370903D03D5
:10118000D301C20177FE07C088279927DC018419A3
:101190009509A609B709C0903603D0903703E090AF
:1011A0003803F0903903F7FE08C0F094E094D0942F
:1011B000C094C11CD11CE11CF11CBC01CD016C19F7
:1011C0007D098E099F090E9467172AE037ED43E2E7
:1011D0005BE30E94C61769837A838B839C83E091CB
:1011E0003E03F0913F03EE0FFF1FEE0FFF1FE75C82
:1011F000FD4F80809180A280B380C301B2010E9424
:1012000067176B017C0120E030E04AE755E4C50137
:10121000B4010E94271A18160CF07CC020ED42166B
:1012200027E05206610471040CF05BC026EA3BE93A
:1012300044EC59E3C701B6010E94C6172AE939E90F
:1012400049E15EE30E94BB186B017C012E81622F95
:10125000220F770B880B990B0E946717A701960145
:101260000E94C617AB01BC018AED97E00E945106AF
:101270002D81622F220F770B880B990B0E94671725
:101280004B015C01A70196010E94C6176B017C010E
:1012900029813A814B815C81C501B4010E94C61746
:1012A0009B01AC01C701B6010E94BB18AB01BC0198
:1012B00070588CED97E026960FB6F894DEBF0FBEFF
:1012C000CDBFDF91CF91FF90EF90DF90CF90BF9097
:1012D000AF909F908F907F906F905F904F900C9405
:1012E000510620E030E04AEF54E4C501B4010E9409
:1012F000BA18A70196010E94601787FF1FC0A701B7
:101300009601C501B4010E94BA1826EA3BE944ECF3
:1013100059E392CF20E030E040E05FE3C501B40143
:101320000E94C617A70196010E94271A18163CF7BB
:101330007DCF19821A821B821C8288CF86E6C82E36
:10134000DC2CEC2C8FE3F82E81CFFC0101900020E7
:10135000E9F73197AF01481B590BBC018DE495E0CB
:101360000C94F9048F929F92AF92BF920F931F93A8
:10137000CF93DF93CDB7DEB7A1970FB6F894DEBF5A
:101380000FBECDBF19A2423008F44AE08E010F5DB6
:101390001F4F842E912CB12CA12CA50194010E94E9
:1013A0008418E62FB901CA01EA30F4F4E05DD801EF
:1013B000EE938D01232B242B252B79F790E080E0F1
:1013C000109719F0CD010E94A509A1960FB6F894C7
:1013D000DEBF0FBECDBFDF91CF911F910F91BF90A8
:1013E000AF909F908F900895E95CE1CFCF92DF920C
:1013F000EF92FF92CF93DF936B017C01F7FE1FC04A
:101400006DE28DE495E00E94BC05EC01662777272C
:10141000CB016C197D098E099F094AE00E94B2092F
:10142000C80FD91F85EB92E00E94A5098C0F9D1F64
:10143000DF91CF91FF90EF90DF90CF9008954AE039
:101440000E94B209EC01EECF4F925F926F927F92B1
:101450008F929F92AF92BF92CF92DF92EF92FF92C4
:101460000F931F93CF936B017C01742EAC019B01F2
:101470000E942C1A882399F088EB92E0CF911F915B
:101480000F91FF90EF90DF90CF90BF90AF909F9023
:101490008F907F906F905F904F900C94A5094601BC
:1014A0005701E894B7F82FEF3FEF4FE75FE7C5012B
:1014B000B4010E942C1A81110DC02FEF3FEF4FE7AE
:1014C0005FE7C501B4010E94601718161CF48CEB8D
:1014D00092E0D4CF2FEF3FEF4FE75FE4C701B601B3
:1014E0000E94271A18161CF480EC92E0C7CF2FEF49
:1014F0003FEF4FE75FECC701B6010E94601787FD21
:10150000F3CF20E030E0A901C701B6010E946017C7
:1015100010E000E087FF0AC06DE28DE495E00E94D4
:10152000BC058C01F7FAF094F7F8F094C0E060E0A5
:1015300070E080E09FE37C1641F020E030E040E284
:1015400051E40E942719CF5FF6CFA70196010E94B0
:10155000BB182B013C010E94A0194B015C014AE021
:101560000E94B2097C01E00EF11ECC23C1F1C5013D
:10157000B4010E9465179B01AC01C301B2010E9436
:10158000BA184B015C016EE28DE495E00E94BC0547
:10159000E80EF91EC15018F120E030E040E251E4BD
:1015A000C501B4010E94C6172B013C010E94A0197D
:1015B0004B01B12CA12C4AE0C501B4010E94B20933
:1015C000E80EF91EC501B4010E9465179B01AC012C
:1015D000C301B2010E94BA184B015C01DBCFC70105
:1015E000CF911F910F91FF90EF90DF90CF90BF9020
:1015F000AF909F908F907F906F905F904F900895E5
:1016000085ED8093BC008091DF039091E003A09171
:10161000E103B091E2030796A11DB11D23E0B69549
:10162000A795979587952A95D1F72091BC0024FD21
:1016300003C01092DD0308954091DF035091E00351
:101640006091E1037091E203452B462B472B69F330
:101650000097A105B10541F025E32A95F1F70000B7
:101660000197A109B109E1CF8091DE030C942F030A
:101670001F920F920FB60F9211240F900FBE0F9072
:101680001F9018951F920F920FB60F9211240BB650
:101690000F922F933F934F935F936F937F938F930B
:1016A0009F93AF93BF93EF93FF938091B900887F8F
:1016B000803609F44DC008F040C0883209F4A9C052
:1016C00028F5803109F49DC0C8F4882309F4FBC0D3
:1016D000883009F496C0FF91EF91BF91AF919F912F
:1016E0008F917F916F915F914F913F912F910F90CB
:1016F0000BBE0F900FBE0F901F901895883109F404
:1017000088C0803241F78093DB0314C0803409F431
:101710009DC040F48033B9F38833E9F68093DB034E
:1017200085ECB0C0803509F485C0883509F496C0D1
:10173000883489F60E94000BCECF883909F48CC01A
:1017400038F5883729F050F4883611F0803719F6CB
:1017500083E08093DD031092B40357C0883809F406
:101760007BC0803919F0803809F0B5CF8091B4037F
:10177000803208F071C0E091B40381E08E0F809355
:10178000B4038091BB00F0E0EC56FC4F80833DC079
:10179000803B39F0E0F4803A09F479C0883A09F0E6
:1017A0009ACF84E08093DD0310929103109290030E
:1017B000E0918E03F0918F03199580919003811130
:1017C0000FC081E08093900310926E0309C0803CAB
:1017D00009F4A6CF883C09F4A3CF883B09F07BCF5E
:1017E000E091910381E08E0F80939103F0E0E25944
:1017F000FC4F80818093BB00909191038091900376
:1018000029C08091B8038093BB0085EC8093BC0015
:1018100062CF9091DA038091D903981758F5E0913F
:10182000DA0381E08E0F8093DA03F0E0E754FC4F97
:101830008081E9CFE091DA0381E08E0F8093DA03B3
:101840008091BB00F0E0E754FC4F80839091DA0375
:101850008091D9039817C8F285E8D8CFE091DA03D0
:1018600081E08E0F8093DA038091BB00F0E0E754B3
:10187000FC4F80838091DC0381115CCF81E08093F9
:10188000B70384EA8093BC001092DD0324CF85EC7B
:101890008093BC001092DD038091B403803230F459
:1018A000E091B403F0E0EC56FC4F10826091B40379
:1018B00070E0E0919203F091930384E993E019952D
:1018C0001092B40308CF1092DB0334CF1F920F9213
:1018D0000FB60F9211242F933F938F939F93AF9343
:1018E000BF938091430390914403A0914503B0912D
:1018F00046033091420323E0230F2D3758F501961C
:10190000A11DB11D20934203809343039093440390
:10191000A0934503B09346038091470390914803F9
:10192000A0914903B0914A030196A11DB11D809376
:10193000470390934803A0934903B0934A03BF9190
:10194000AF919F918F913F912F910F900FBE0F906C
:101950001F90189526E8230F0296A11DB11DD2CF26
:101960001F920F920FB60F9211240BB60F922F9366
:101970003F934F935F936F937F938F939F93AF9317
:10198000BF93EF93FF938091310390913203A09125
:101990003303B0913403892B8A2B8B2BD1F1909197
:1019A00030038091000089278093000080913103EB
:1019B00090913203A0913303B091340318161906A5
:1019C0001A061B069CF48091310390913203A0917A
:1019D0003303B09134030197A109B1098093310316
:1019E00090933203A0933303B0933403FF91EF91AC
:1019F000BF91AF919F918F917F916F915F914F9127
:101A00003F912F910F900BBE0F900FBE0F901F9024
:101A1000189580910002ECEBF1E0E4919FEF909338
:101A20000002E230E9F040F4EE2389F0E13091F079
:101A300060E00E94E302DACFE43049F110F1E530D2
:101A4000B9F7909173009D7F90937300F1CF10923E
:101A50006E00EECF90916F009D7F90936F00E8CF66
:101A6000909170009D7F9093700091E09093B000F2
:101A70009091B100987F94609093B1001092B30060
:101A8000D7CF909171009D7F90937100D1CF9091AD
:101A900072009D7F90937200CBCF1F920F920FB672
:101AA0000F9211240BB60F922F933F934F935F9396
:101AB0006F937F938F939F93AF93BF93EF93FF9316
:101AC00083E194E00E949A05FF91EF91BF91AF915D
:101AD0009F918F917F916F915F914F913F912F9146
:101AE0000F900BBE0F900FBE0F901F9018951F9276
:101AF0000F920FB60F9211240BB60F922F933F93B4
:101B00004F935F936F937F938F939F93AF93BF9305
:101B1000EF93FF9383E194E00E942605FF91EF91FC
:101B2000BF91AF919F918F917F916F915F914F91F5
:101B30003F912F910F900BBE0F900FBE0F901F90F3
:101B400018951F920F920FB60F9211240BB60F9299
:101B50002F933F934F935F936F937F938F939F93B5
:101B6000AF93BF93EF93FF9380EB94E00E949A05AD
:101B7000FF91EF91BF91AF919F918F917F916F9165
:101B80005F914F913F912F910F900BBE0F900FBE21
:101B90000F901F9018951F920F920FB60F9211245D
:101BA0000BB60F922F933F934F935F936F937F9357
:101BB0008F939F93AF93BF93EF93FF9380EB94E04A
:101BC0000E942605FF91EF91BF91AF919F918F9158
:101BD0007F916F915F914F913F912F910F900BBE2D
:101BE0000F900FBE0F901F9018951F920F920FB677
:101BF0000F9211240BB60F922F933F934F935F9345
:101C00006F937F938F939F93AF93BF93EF93FF93C4
:101C10008DE495E00E949A05FF91EF91BF91AF91FD
:101C20009F918F917F916F915F914F913F912F91F4
:101C30000F900BBE0F900FBE0F901F9018951F9224
:101C40000F920FB60F9211240BB60F922F933F9362
:101C50004F935F936F937F938F939F93AF93BF93B4
:101C6000EF93FF938DE495E00E942605FF91EF919D
:101C7000BF91AF919F918F917F916F915F914F91A4
:101C80003F912F910F900BBE0F900FBE0F901F90A2
:101C900018951F920F920FB60F9211240BB60F9248
:101CA0002F933F934F935F936F937F938F939F9364
:101CB000AF93BF93EF93FF938091EB050E94BA021D
:101CC0002091EF053091F0052F5F3F4F3093F005E5
:101CD0002093EF059091EE05953618F096E09093DD
:101CE000EA059091EA05943009F466C0B8F49230A0
:101CF000F1F0933009F444C09091ED05992309F473
:101D00006BC081117CC08091EC05882309F463C00D
:101D10008091EC0561E00E94E3025EC0953009F419
:101D200057C0963049F791E09093BB064FC08111A0
:101D3000E3CF2091EF053091F0052436310528F4EA
:101D40001092F0051092EF05D7CF1092BB061092BB
:101D5000EE05E091EE0591E09E0F9093EE05F0E028
:101D60002091EF053091F005EE0FFF1FE651FA4F7D
:101D7000308727831092F0051092EF0593E019C089
:101D8000813009F0B9CFE091EE0591E09E0F90937C
:101D9000EE05F0E02091EF053091F005EE0FFF1F0A
:101DA000E651FA4F308727831092F0051092EF0525
:101DB00094E09093EA05A0CF882359F22091EF0593
:101DC0003091F0052536310508F496CF95E0F1CF36
:101DD000811192CFB5CF2F9AFF91EF91BF91AF9123
:101DE0009F918F917F916F915F914F913F912F9133
:101DF0000F900BBE0F900FBE0F901F901895809103
:101E0000EC05882321F08091EC0560E084CF2F98C9
:101E1000E3CF1F920F920FB60F9211240BB60F92C1
:101E20002F933F934F935F936F937F938F939F93E2
:101E3000AF93BF93CF93DF93EF93FF9380912F03E3
:101E4000C091F806D0E087FF23C010928500109261
:101E5000840080912F038F5F80932F0380912F0345
:101E6000082E000C990B8C179D0724F480912F03EA
:101E70008C3074F1809184009091850084349C4969
:101E800008F465C08091840090918500049661C03B
:101E900080912F03082E000C990B8C179D07CCF610
:101EA00030912F0325E03203F0011124E454F94F5F
:101EB000808186FFCECF30912F033203F0011124B1
:101EC000E454F94F808160E08F730E94E302C1CF38
:101ED000809184009091850030912F0325E032039A
:101EE000F0011124E454F94F41815281840F951F70
:101EF000909389008093880030912F033203F00182
:101F00001124E454F94F808186FF0CC030912F03D7
:101F10003203F0011124E454F94F808161E08F73A2
:101F20000E94E302FF91EF91DF91CF91BF91AF91BA
:101F30009F918F917F916F915F914F913F912F91E1
:101F40000F900BBE0F900FBE0F901F90189580E45E
:101F50009CE990938900809388008FEF80932F03F2
:101F6000E1CF10920A041092090488EE93E0A0E0F9
:101F7000B0E080930B0490930C04A0930D04B093F5
:101F80000E0429E832E030930804209307041092ED
:101F90001604109215048093170490931804A093CC
:101FA0001904B0931A042BE932E0309314042093FF
:101FB000130445E351E05093200440931F0444E38D
:101FC00051E0509322044093210440E351E05093A8
:101FD00024044093230441E351E0509326044093AA
:101FE000250442E351E0509328044093270446E33C
:101FF00051E050932A044093290410922C0410922B
:102000002D0410922E0410922F041092B3041092FB
:10201000B2048093B4049093B504A093B604B09333
:10202000B7043093B1042093B00445ED50E05093D1
:10203000BD044093BC0444ED50E05093BF04409372
:10204000BE0440ED50E05093C1044093C00441ED04
:1020500050E05093C3044093C20442ED50E05093CB
:10206000C5044093C40446ED50E05093C704409328
:10207000C6041092C9041092CA041092CB041092A4
:10208000CC041092500510924F0580935105909307
:102090005205A0935305B093540530934E052093F9
:1020A0004D0585EC90E090935A058093590584EC9A
:1020B00090E090935C0580935B0580EC90E09093BA
:1020C0005E0580935D0581EC90E0909360058093C0
:1020D0005F0582EC90E0909362058093610586EC49
:1020E00090E09093640580936305109266051092CA
:1020F0006705109268051092690580917D029091A4
:102100007E02A0917F02B09180028093E2079093BB
:10211000E307A093E407B093E507809181029091D3
:102120008202A0918302B09184028093E60790938B
:10213000E707A093E807B093E90784E08093EA07F4
:1021400087E08093EB071092EC0784EB8093ED0718
:1021500086E18093EE0788E18093EF0787E1809323
:10216000F00789E18093F107E091F806EC3008F47C
:10217000A9C08FEF8093F207E091F806EC3008F4E5
:10218000B2C08FEF8093F3078CE08093C10784E2A5
:102190008093C20786E08093C30785E08093C407DD
:1021A0008FE18093C5078EE18093C60783E2809319
:1021B000C70782E28093C80785E48093C90784E457
:1021C0008093CA0780E48093CD071092D2071092C3
:1021D000D3071092D4071092D5071092D607109209
:1021E000D7071092D8071092D907E3E0F7E08FEFF6
:1021F0009FEFDC01128213821482158216821782ED
:102200001086118683879487A587B6878787908BEA
:10221000A18BB28B128611821082739627E0E13C6B
:10222000F20741F78DE090E00E94311AFC01138221
:1022300012828DEA92E091838083118687E2848303
:1022400084E1828784E083871486F0930007E0931B
:10225000FF06109201071092020785E28093EB05BA
:102260001092ED051092FA061092F9061092FC06F3
:102270001092FB061092FE061092FD0661E070E0DF
:1022800090E080E00E94561B0097F1F19093FA06CF
:102290008093F9061092FC061092FB062091FD0631
:1022A0003091FE06232B11F4FC0110821092FE06E1
:1022B0001092FD0667EB72E08091F9069091FA06A4
:1022C0000C94401C81E08E0F8093F806E093F20797
:1022D00025E0E29FF0011124E454F94F88EB9BE0E4
:1022E0009283818349CF81E08E0F8093F806E0933B
:1022F000F30785E0E89FF0011124E454F94F88EBDF
:102300009BE09283818340CF8091F9069091FA06F9
:10231000009711F00E94CD1A1092FA061092F90659
:102320001092FE061092FD061092FC061092FB061B
:102330000895CF93DF9300D01F92CDB7DEB7789486
:1023400084B5826084BD84B5816084BD85B58260BA
:1023500085BD85B5816085BD80916E00816080936B
:102360006E001092810080918100826080938100D4
:1023700080918100816080938100809180008160E4
:10238000809380008091B10084608093B10080913F
:10239000B00081608093B000809191008260809352
:1023A00091008091910081608093910080919000D4
:1023B0008160809390008091A10082608093A10051
:1023C0008091A10081608093A1008091A000816034
:1023D0008093A000809121018260809321018091EF
:1023E000210181608093210180912001816080938F
:1023F000200180917A00846080937A0080917A0035
:10240000826080937A0080917A00816080937A0064
:1024100080917A00806880937A001092C100E091E8
:102420005D05F0915E0582E08083E0915905F091B1
:102430005A051082E0915B05F0915C058FEC80837A
:1024400010926505E0916105F091620586E0808358
:10245000E0915F05F0916005808180618083E0916B
:102460005F05F0916005808188608083E0915F0561
:10247000F0916005808180688083E0915F05F09134
:10248000600580818F7D808361E08091C2070E941A
:10249000500360E08091C2070E94E30260E08091F7
:1024A000C1070E94500387E094E09093CC0780938B
:1024B000CB0710926C0310926B031092E4031092FE
:1024C00006040E9411038BEC91E090938F0380939C
:1024D0008E038CEC91E0909393038093920380E0C1
:1024E00090E1A0E0B0E08093CE079093CF07A09357
:1024F000D007B093D1078AE090E0A0E0B0E08093ED
:10250000D2079093D307A093D407B093D50780E068
:1025100090E0A0E0B0E48093D6079093D707A09313
:10252000D807B093D90760E070E185E00E948D0480
:102530006FE979E380E00E948D0403EC17E081EC01
:1025400097E09A83898330E4A32E32E0B32E46E8E5
:10255000842E42E0942E5BECE52E57E0F52ED80158
:1025600012969C91F80181918F01A981BA815996A7
:102570008C9359975A969C9361E00E94500361E0B6
:10258000E981FA81828D0E945003C980DA80FDE1E1
:10259000CF0ED11CD80115969C91159713968C914E
:1025A000E981FA81858F968F61E00E94500360E097
:1025B000A981BA815E968C910E94500361E0E98105
:1025C000FA81858D0E94E3027FB6F89480913503ED
:1025D000811125C0F5018491F4019491E82FF0E078
:1025E000EE0FFF1FE354FE4FA591B4918C919823F9
:1025F00021F461E085E30E94E30261E085E30E944B
:1026000050038CB580618CBD8CB580648CBD61E05D
:1026100084E30E94500361E083E30E9450038091B1
:1026200035038F5F809335037FBEC7010197F1F7B4
:1026300060E0A981BA815D968C910E94E30288E8EE
:102640000E94780783E00E94780761E0E981FA81BF
:10265000858D0E94E302C7010197F1F7C6010E9430
:102660007F0789819A8102969A838983855C974046
:1026700009F075CF06EE17E0E2EEF7E0FA83E983A2
:102680009AEEE92E97E0F92E60E0D8018D918D0148
:102690000E945003E016F106B9F7F6EEEF2EF7E0D0
:1026A000FF2E02EE17E0A5E0DA2EBCE0BB2E82E0A2
:1026B000C82EE981FA8180898C3008F049C0A08455
:1026C00061E08A2D0E945003A981BA8150968C91B5
:1026D000D89EF0011124E454F94F2A2D2F739081D4
:1026E000907C922B9083138214826B2D0E94A618EB
:1026F0008B9DA001112430E020E0BA01620F731F0E
:10270000D69EF001D79EF00D1124E454F94F90812C
:1027100096FD12C02F5F3F4F2C30310571F78111AC
:102720000BC010928000C092810010928500109220
:102730008400C6BAC0926F00A981BA815096EC910C
:10274000DE9EF0011124E454F94F8081806480837F
:10275000E981FA8196858485D80152968C935297A7
:1027600053969C9360E00E94500361E0F8018389D6
:102770000E94500360E0D80153968C910E94E302BE
:10278000E981FA813196FA83E9830E5F1F4FE016E3
:10279000F10609F08ECFF8941092200189E0809321
:1027A000210180E293E09093290180932801109207
:1027B00025011092240182E0809373007894809325
:1027C000EA051092EE058091EB0560E00E9450034F
:1027D00089E392E09A83898305E712E0A981BA81AF
:1027E0006D917D918D919D91BA83A9837D01B4E016
:1027F000EB1AF10820E030E048E455E40E94C617E7
:1028000022E133E84FEB51E40E942719F70160837E
:1028100071838283938389819A8108171907F1F65E
:10282000A1E0B2E0BA83A98309E312E0E981FA8169
:10283000C190D190E190F190FA83E98320E030E0FB
:10284000A901C701B6010E94271A18160CF029C168
:1028500020E030E044EB52E4C701B6010E9460176B
:1028600087FF2AC1E4E18E2EEEEA9E2EE3E1AE2E32
:10287000E1E4BE2E2BED3FE049E450E4C701B60190
:102880000E94C617A50194010E94C61720E030E0FF
:1028900048E455E40E94C61729E238EA46E855E4C0
:1028A0000E9427190E94CF19E981FA813497608329
:1028B00071838283938389819A810817190709F0AC
:1028C000B5CF8DE10E94BA02892B41F010924103ED
:1028D000A1E0B0E0B0937602A09375028BE10E9474
:1028E000BA02892B19F0B1E0B09340038091400304
:1028F000882309F4C9C00E946008C0900102D090EA
:102900000202E0900302F090040220903A0330901B
:102910003B0300913C0310913D0320E030E04AEF7F
:1029200053E4C701B6010E94BA184B015C01B10122
:10293000C8010E9467179B01AC01C501B4010E9448
:1029400060176DEC862E6CEC962E6CE4A62E6EE372
:10295000B62E87FF07C05DEC852E5CEC952EA92C6A
:102960005DE3B52E60913603709137038091380393
:102970009091390397FF07C0909580957095619568
:102980007F4F8F4F9F4F0E9467172B013C01AC0177
:102990009B01C701B6010E94271AB501A4011816B0
:1029A00024F04AE057ED63E27CEB8CED97E00E9467
:1029B0005106B101C80197FF07C0909580957095A9
:1029C00061957F4F8F4F9F4F0E94671769837A836E
:1029D0008B839C839B01AC01C701B6010E94271A1F
:1029E000B501A401181624F04AE057ED63E27CEB30
:1029F0008AED97E00E945106A3019201C701B6013A
:102A00000E94601718160CF43FC029813A814B814F
:102A10005C81C701B6010E9460171816ACF10E94D4
:102A2000C4040E94600884EC92E00E94A5096091B1
:102A3000010270910202809103029091040242E02F
:102A40000E94240A85EB92E00E94A5098DEC92E099
:102A50000E94A50960913A0370913B0380913C0369
:102A600090913D030E94F6098AED92E00E94A5092B
:102A70006091360370913703809138039091390348
:102A80000E94F6090E9482088CE10E94BA02892BFA
:102A9000D9F00E948208E1E0E09341030E942C06F5
:102AA00010CF20E030E044EB52ECC701B6010E94A9
:102AB000271A18160CF4D6CE73E3872E982C75E1DE
:102AC000A72E71E4B72ED6CE80914103882331F32F
:102AD0000E9460088091750290917602009761F0E3
:102AE000019709F483C186E093E00E94A50985EB74
:102AF00092E00E94A509D2CFE0913E03F0913F03FE
:102B0000EE0FFF1FEE0FFF1FEF5FFD4FC080D18064
:102B1000E280F38020E030E0A901C701B6010E9405
:102B2000271A20E030E04AEF53E418160CF0BCC03E
:102B3000C701B6010E94BA184B015C0160913A03CB
:102B400070913B0380913C0390913D0397FF07C038
:102B500090958095709561957F4F8F4F9F4F0E9404
:102B6000671769837A838B839C83A50194010E94F4
:102B7000271A181614F1609136037091370380916B
:102B800038039091390397FF07C090958095709511
:102B900061957F4F8F4F9F4F0E9467179B01AC013C
:102BA000C501B4010E9460173AE9832E39E9932EDA
:102BB000A92C3EE3B32E87FF07C02DEC822E2CEC10
:102BC000922EA92C2DE3B22E20E030E0A901C701FE
:102BD000B6010E94271A26013701181624F077FA49
:102BE000709477F87094A301920169817A818B8146
:102BF0009C810E94601787FD30C1609136037091FF
:102C00003703809138039091390397FF07C090955F
:102C10008095709561957F4F8F4F9F4F0E946717EA
:102C20009B01AC01C301B2010E94271A18160CF0D7
:102C300092C020E030E0A901C701B6010E946017F0
:102C400087FF36C060913603709137038091380357
:102C50009091390397FF07C0909580957095619585
:102C60007F4F8F4F9F4F0E9467179B01AC01C3019D
:102C7000B2010E946017181634F0A501940160E0BB
:102C800081E00E949B08A301920169817A818B8176
:102C90009C810E94271A87FD01CFA50194016FEF47
:102CA00080E00E949B08FACEC701B601905842CF3F
:102CB00020E030E0A901C701B6010E94271A1816CA
:102CC0000CF0ECCE6091360370913703809138039D
:102CD0009091390397FF07C0909580957095619505
:102CE0007F4F8F4F9F4F0E9467172B013C01298117
:102CF0003A814B815C81C701B6010E94271A1816E0
:102D00006CF4A7019601C301B2010E94601787FF0E
:102D100005C0A501940161E08FEFC3CFA701960123
:102D2000C301B2010E94271A87FD06C0A5019401C4
:102D300060E08FEF0E949B0829813A814B815C8182
:102D4000C701B6010E946017A501940161E0181641
:102D50000CF4A4CEA5CF0E948C0884EC92E00E94D3
:102D6000A509E0913E03F0913F03EE0FFF1FEE0F28
:102D7000FF1FEF5FFD4F608171818281938142E08F
:102D80000E94240A85EB92E00E94A50987EE92E05A
:102D90000E94A50960913A0370913B0380913C0326
:102DA00090913D030E94F60986EF92E00E94A509EA
:102DB0006091360370913703809138039091390305
:102DC0000E94F60980913E0390913F0301969093F3
:102DD0003F0380933E030E94C4040E94820881E066
:102DE00090E0909376028093750258CEE0903E0377
:102DF000F0903F038701000F111F000F111F075CA8
:102E00001D4F60913A0370913B0380913C03909178
:102E10003D030E9467179B01AC01D8016D917D9124
:102E20008D919C910E94271A181634F420E030E00E
:102E300040E85FE361E039C0BFE0EB16F10410F059
:102E4000109241030E948C080E94C4040E948208D0
:102E5000109276021092750221CE20E030E0A90196
:102E6000C701B6010E94601787FF22CF6091360329
:102E700070913703809138039091390397FF07C011
:102E800090958095709561957F4F8F4F9F4F0E94D1
:102E900067179B01AC01C301B2010E94271AA5016B
:102EA00094016FEF18160CF0CDCE81E0FACE809130
:102EB000F9069091FA06009711F00C94CD1A089536
:102EC0000E94A21708F481E00895E89409C097FBD6
:102ED0003EF490958095709561957F4F8F4F9F4FF1
:102EE0009923A9F0F92F96E9BB279395F695879535
:102EF00077956795B795F111F8CFFAF4BB0F11F4F8
:102F000060FF1BC06F5F7F4F8F4F9F4F16C088239E
:102F100011F096E911C0772321F09EE8872F762FD4
:102F200005C0662371F096E8862F70E060E02AF015
:102F30009A95660F771F881FDAF7880F9695879501
:102F400097F90895990F0008550FAA0BE0E8FEEFD6
:102F500016161706E807F907C0F012161306E4075D
:102F6000F50798F0621B730B840B950B39F40A2656
:102F700061F0232B242B252B21F408950A2609F434
:102F8000A140A6958FEF811D811D08950E94D9173C
:102F90000C944A180E943C1838F00E94431820F004
:102FA000952311F00C9433180C94391811240C94B7
:102FB0007E180E945B1870F3959FC1F3950F50E047
:102FC000551F629FF001729FBB27F00DB11D639FDB
:102FD000AA27F00DB11DAA1F649F6627B00DA11D81
:102FE000661F829F2227B00DA11D621F739FB00D27
:102FF000A11D621F839FA00D611D221F749F332797
:10300000A00D611D231F849F600D211D822F762F2F
:103010006A2F11249F5750409AF0F1F088234AF00C
:10302000EE0FFF1FBB1F661F771F881F9150504078
:10303000A9F79E3F510580F00C9433180C947E182C
:103040005F3FE4F3983ED4F3869577956795B795FF
:10305000F795E7959F5FC1F7FE2B880F911D969519
:10306000879597F9089597F99F6780E870E060E089
:1030700008959FEF80EC089500240A941616170611
:1030800018060906089500240A9412161306140659
:1030900005060895092E0394000C11F4882352F0BC
:1030A000BB0F40F4BF2B11F460FF04C06F5F7F4F74
:1030B0008F4F9F4F089557FD9058440F551F59F05B
:1030C0005F3F71F04795880F97FB991F61F09F3F15
:1030D00079F087950895121613061406551FF2CF3E
:1030E0004695F1DF08C0161617061806991FF1CF8E
:1030F00086957105610508940895E894BB276627B5
:103100007727CB0197F90895A1E21A2EAA1BBB1BC2
:10311000FD010DC0AA1FBB1FEE1FFF1FA217B307A3
:10312000E407F50720F0A21BB30BE40BF50B661FB9
:10313000771F881F991F1A9469F76095709580957D
:1031400090959B01AC01BD01CF010895991B79E0D9
:1031500004C0991F961708F0961B881F7A95C9F727
:1031600080950895EE0FFF1F881F8BBF0790F69183
:10317000E02D19945058BB27AA270E94D2180C940E
:103180004A180E943C1838F00E94431820F039F485
:103190009F3F19F426F40C9439180EF4E095E7FBE0
:1031A0000C943318E92F0E945B1858F3BA17620782
:1031B00073078407950720F079F4A6F50C947D1821
:1031C0000EF4E0950B2EBA2FA02D0B01B901900142
:1031D0000C01CA01A0011124FF27591B99F0593F86
:1031E00050F4503E68F11A16F040A22F232F342FCE
:1031F0004427585FF3CF469537952795A795F0401C
:103200005395C9F77EF41F16BA0B620B730B840B30
:10321000BAF09150A1F0FF0FBB1F661F771F881FE8
:10322000C2F70EC0BA0F621F731F841F48F4879540
:1032300077956795B795F7959E3F08F0B0CF939532
:10324000880F08F09927EE0F9795879508950E94AB
:103250003B190C944A180E94431858F00E943C18DD
:1032600040F029F45F3F29F00C94331851110C946D
:103270007E180C9439180E945B1868F39923B1F3F7
:10328000552391F3951B550BBB27AA27621773078C
:10329000840738F09F5F5F4F220F331F441FAA1F20
:1032A000A9F335D00E2E3AF0E0E832D091505040DC
:1032B000E695001CCAF72BD0FE2F29D0660F771F8A
:1032C000881FBB1F261737074807AB07B0E809F070
:1032D000BB0B802DBF01FF2793585F4F3AF09E3FF5
:1032E000510578F00C9433180C947E185F3FE4F38A
:1032F000983ED4F3869577956795B795F7959F5F38
:10330000C9F7880F911D9695879597F90895E1E083
:10331000660F771F881FBB1F621773078407BA07E2
:1033200020F0621B730B840BBA0BEE1F88F7E0953D
:1033300008950E94A0196894B1110C947E18089504
:103340000E94631888F09F5798F0B92F9927B751BA
:10335000B0F0E1F0660F771F881F991F1AF0BA9539
:10336000C9F714C0B13091F00E947D18B1E0089502
:103370000C947D18672F782F8827B85F39F0B93FF4
:10338000CCF3869577956795B395D9F73EF49095EC
:103390008095709561957F4F8F4F9F4F08950E9444
:1033A0000F1A90F09F3748F4911116F00C947E1884
:1033B00060E070E080E89FEB089526F41B16611D25
:1033C000711D811D0C94E6190C94011A882371F467
:1033D000772321F09850872B762F07C0662311F4AE
:1033E00099270DC09051862B70E060E02AF09A95E5
:1033F000660F771F881FDAF7880F9695879597F9DC
:1034000008959F3F31F0915020F487957795679507
:10341000B795880F911D9695879597F908950E9405
:103420006318A0F0BEE7B91788F4BB279F3860F493
:103430001616B11D672F782F8827985FF7CF8695CE
:1034400077956795B11D93959639C8F308950E94B5
:10345000A21708F48FEF08950E94A217880B990B0A
:1034600008950F931F93CF93DF938230910510F44B
:1034700082E090E0E091FA07F091FB0730E020E075
:10348000B0E0A0E0309799F42115310509F44AC065
:10349000281B390B24303105D8F58A819B816115B1
:1034A000710589F1FB0193838283FE0111C0408184
:1034B00051810281138148175907E0F048175907D5
:1034C00099F4109761F012960C93129713961C932F
:1034D0003296CF01DF91CF911F910F910895009304
:1034E000FA071093FB07F4CF2115310551F042176D
:1034F000530738F0A901DB019A01BD01DF01F80192
:10350000C1CFEF01F9CF9093FB078093FA07CDCF9E
:10351000FE01E20FF31F8193919322503109398309
:103520002883D7CF2091F8073091F907232B41F456
:103530002091790230917A023093F9072093F807AD
:1035400020917702309178022115310541F42DB791
:103550003EB740917B0250917C02241B350BE091D9
:10356000F807F091F907E217F307A0F42E1B3F0BC1
:103570002817390778F0AC014E5F5F4F24173507E5
:1035800048F04E0F5F1F5093F9074093F80781935F
:1035900091939FCFF0E0E0E09CCFCF93DF93009733
:1035A000E9F0FC01329713821282A091FA07B091E0
:1035B000FB07ED0130E020E01097A1F4208131817C
:1035C000820F931F2091F8073091F90728173907C8
:1035D00009F061C0F093F907E093F807DF91CF910C
:1035E0000895EA01CE17DF07E8F54A815B819E0165
:1035F00041155105B1F7E901FB83EA8349915991DE
:10360000C40FD51FEC17FD0761F4808191810296EC
:10361000840F951FE90199838883828193819B831D
:103620008A83F0E0E0E012968D919C9113970097C9
:10363000B9F52D913C911197CD010296820F931F00
:103640002091F8073091F9072817390739F6309794
:1036500051F51092FB071092FA07B093F907A09367
:10366000F807BCCFD383C28340815181840F951F5B
:10367000C817D90761F44E5F5F4F88819981480F61
:10368000591F518340838A819B81938382832115B3
:10369000310509F0B0CFF093FB07E093FA079ECF16
:1036A000FD01DC01C0CF13821282D7CF4F925F920F
:1036B0006F927F928F929F92AF92BF92CF92DF9242
:1036C000EF92FF920F931F93CF93DF938C0100979C
:1036D00099F4CB01DF91CF911F910F91FF90EF9063
:1036E000DF90CF90BF90AF909F908F907F906F9022
:1036F0005F904F900C94311AFC01E60FF71F9C016C
:1037000022503109E217F30708F4AEC0D901CD9178
:10371000DC911197C617D70720F1C530D10578F095
:10372000CE0104978617970750F0C61BD70B229738
:10373000C193D1936D937C93CF010E94CD1AC801A0
:10374000DF91CF911F910F91FF90EF90DF90CF907D
:10375000BF90AF909F908F907F906F905F904F90B1
:1037600008955B01AC1ABD0A4C018C0E9D1EA09100
:10377000FA07B091FB07512C412CF12CE12C10974A
:1037800031F58091F8079091F9078815990509F0AE
:103790005CC04616570608F058C080917702909199
:1037A0007802009741F48DB79EB740917B0250910B
:1037B0007C02841B950BE817F90708F055C0F093BD
:1037C000F907E093F807F90171836083B8CF8D9111
:1037D0009C91119712966C90129713967C90139768
:1037E000A815B90559F56C0142E0C40ED11CCA14E4
:1037F000DB0420F1AC014A195B09DA011296159736
:1038000080F06282738251834083D9016D937C93EF
:10381000E114F10471F0D7011396FC93EE93129723
:103820008ECF22968C0F9D1FF90191838083F30127
:10383000EFCFF093FB07E093FA0781CF48165906C4
:1038400008F42C017D01D3019ACFCB010E94311ADB
:103850007C01009749F0AE01B8010E94371CC801F5
:103860000E94CD1A87016BCF10E000E068CFFB010A
:10387000DC0102C001900D9241505040D8F70895EC
:10388000FB01DC0101900D920020E1F7089511E0A9
:10389000C0E7D1E000E006C0802FFE010E94B21810
:1038A0002196011DC137D10780E00807A9F7F894D8
:0238B000FFCF48
:1038B200FF0000B4420000B4C20000B4C20000B471
:1038C2004200003442000034C20000394300003498
:1038D20042000034C20000B4C20000B4420000B48E
:1038E200420000B4C2000000000000C942000046CD
:1038F2004200003E420000464200000142000050E9
:103902004200005A4200005A4200005042000001A8
:10391200420000464200003E42000046420000C90A
:10392200420000000001000000FC0780003637382A
:10393200391B1D1A1C000000002402F7012408CDC7
:1039420001F001DD01CE0100000000BC05F9043FD9
:1039520005090670054E056205000000003C08F9E5
:1039620004240823080D0A006E616E00696E660069
:103972006F766600416E676C65203A2000456E6383
:103982006F646575724C203A2000456E636F646502
:10399200757252203A20004C656674456E636F64FE
:1039A2006572203A20005269676874456E636F64DD
:1039B2006572203A20004552524F52204E4F204D00
:0639C2004F444521000006
:00000001FF
